:100000000C94A32D0C94D42D0C94D42D0C94D42D9D
:100010000C94D42D0C94D42D0C94D42D0C94D42D5C
:100020000C94D42D0D949B5D0C94D42D0C94D42D54
:100030000C94D42D0D94CA7D0C94D42D0C94D42DF5
:100040000C94D42D0D9473250C94D42D0C94D42D94
:100050000C94D42D0C94D42D0D94CF200D940D8799
:100060000C94D42D0C94C6550C94D42D0C94D42DF2
:100070000C94D42D0C94D42D0C94D42D0C94D42DFC
:100080000D94512F0C94D42D0C94D42D0C94D42D6C
:100090000C94D42D0C94D42D0C94D42D0C94D42DDC
:1000A0000C94D42D0C94D42D0D94232F0C94D42D7A
:1000B0000C94D42D0C94D42D0C94D42D0D94F52E99
:1000C0000C94D42D0C94D42D0C94D42D0C94D42DAC
:1000D0000C94D42D0C94D42D0C94D42D0C94D42D9C
:1000E0000C94D42D084AD73B3BCE016E84BCBFFD97
:1000F000C12F3D6C74319ABD56833DDA3D00C77FF8
:1001000011BED9E4BB4C3E916BAAAABE0000008090
:100110003F05A84CCDB2D44EB93836A9020C50B91F
:10012000918688083CA6AAAA2ABE000000803F004B
:100130000D94920B0D940B000D9497700C94EDACF4
:100140000C9492890C9411BE0D94175A0D94461973
:100150000D94135B0C9472F90C94C3920D94867FEA
:100160000C9493930C94ED8D0C940FA00C9491FB34
:100170000D947D800D9442700C94CAAE0C94D8906E
:100180000C940BDE0C9472E30D940F0C0C945193B1
:100190000C9495910D94275C0C9418890C944A89C1
:1001A0000D94D2700D943C800C947CB30C946B8CA9
:1001B0000C94F9DD0C94B9890C946DC60D944680AD
:1001C0000C94F72E0D9420800C94A0930C9479C17C
:1001D0000D948B7F0D94C0700C9420E50D94AE0DA2
:1001E0000C94DB920C9461AF0C94C7B10C946A9898
:1001F0000C94268D0C9435A40C9423A10C945B9440
:100200000D9490360C9485FF0C9440950C9408CC7A
:100210000C9492D20D940E800C94C3B00C94F59370
:100220000C944FC80C94C7AE0D944E120C94D6B0DB
:100230000D942D700C94C7930C9446890D941880DE
:100240000C94F5920D94977F0C9473AF0D94595BB9
:100250000C9438930D94AE5B0C94CF920D9460196E
:100260000D94B9590D945F800D94C05B0C9440AF10
:100270000C94F4AF0C94108F0C94A0AE0D94F95321
:100280000C94BE9A0C943D950D94930A0D94F40C25
:100290000D9428800C9485930C9406940C94878973
:1002A0000D94B6700D94055C0D94A8700D949B7020
:1002B0000C942EC90C948B890C9466C50D94C8704F
:1002C0000C9434950C942EE50C94828F0C94949994
:1002D0000D9432800C9416950C94A1B20C94219537
:1002E0000D94BA700D94AA3A0D94405B0D94CE70A3
:1002F0000C9417A80D94549A0C94F8B20C94499548
:100300000D9469800D94A0020C9474C70C94B58967
:100310000D94F9590C941BB50C9464AF0D940E0E0A
:100320000C94C5AF0C94B5AE0C9417940D94409BEF
:100330000C9417890C9412E50D94B27F0C949CBB1D
:100340000D94F57F0D9441700D9499590D943B7067
:100350000C941EE10C94E6C30C9445F50D948F5C4F
:100360000D94C4700C947FAD0D9473800D94C45B98
:100370000D94B2700C94A3AD0C9435E00C9405DE92
:100380000D94AF3A0C9420E10C94048F0C94D6DABF
:100390000C946DB20C9452AF0C94E89B0D948D703C
:1003A0000C94E4B00C942B950D9434700C941CE1D7
:1003B0000C94A42E0D94ED7F0C943D970C9472B682
:1003C0000D9487800D9493700C944A910C9425B4ED
:1003D0000C9439940C94B0B00D94615C0C947C89AD
:1003E0000C94AEF60C940E8F0C9440E00C94E1D07B
:1003F0000D94D9590C9496890C94FDB00C94A3AF2C
:100400000C946D8C0D945E5B0C9453930C94FCD8FF
:100410000D948E5B0C94F6E40C944F950C940E9115
:100420000D94095A0D94A9590C948BAE0C94CAFAE8
:100430000C9427B10C9431E50D94280B0C9456952F
:100440000C94FFDD0C9428940D94175C0C944F933E
:100450000C9408B30C9410B30C9448BF0D94390E4F
:100460000D94C9590C941DB30D9406090C942F8951
:100470000C94ED920C942A910D94455C0C94132FDE
:100480000C9456FE0D94497F0D9404800C94FD92BB
:100490000C941ACA0D94640E0C9413900C94E3B748
:1004A0000D9455800D94A77F0D94AC700D949C0510
:1004B0000D947C170C94E1F80C94F82E0D940D1407
:1004C0000C944A940D94FA7F0C94618C0D94215BEA
:1004D0000C9464CD0D949D6F0C9482AF0D941E0FFF
:1004E0000C94D5910C9403FA0C9443950C9443AF5F
:1004F0000C94E7E10D942E7F0C9480890D949D7FE0
:100500000C944C950C942BE00D9426700C9400CC1C
:100510000D94C90C0D94A2700C942FBA0D94E95946
:100520000C9404E50C94B6AF0C94F5910C941ECF8A
:100530000C94C9920C94D9AE0D94A75C0D94975A63
:100540000D940E010D94F3710D949C6F0C94F3AD0A
:100550000D941E110C946A910D94CD700C94E28A46
:100560000C94B1890D94C95B0C9494AF0C94D8BCD5
:100570000D948B590C9485AF0C94BAAD0D94830FE8
:100580000C94932E0C94D1AD0C9446950D94561763
:100590000C94B5910C9485AD0C9445E00C945DAE33
:1005A0000C94A3AE0C9488AD0D947F5B0D949F705A
:1005B0000D94210A0D949D5B4E414E494E4954596C
:1005C000494E46CDCCCC3D0AD7233C17B7D138771E
:1005D000CC2B329595E6241FB14F0A000020410034
:1005E00000C84200401C4620BCBE4CCA1B0E5AAE7E
:1005F000C59D74434F4D4D554E49434154494F4E4F
:100600000044525952554E004552524F52530049E0
:100610004E464F004543484F004572726F72207737
:10062000726974696E6720746F20454550524F4D52
:10063000210A0053657474696E6720657874727559
:1006400064657220544D43206173206E6F6E205399
:1006500050490A0053657474696E6720616C6C20A0
:10066000544D43206173205350492E0A004B494C8E
:100670004C45442E200053544F505045442E2000EA
:100680005072696E7465722073746F707065642047
:1006900064756520746F206572726F72732E2046C8
:1006A000697820746865206572726F7220616E646B
:1006B00020757365204D39393920746F2072657348
:1006C000746172742E202854656D70657261747542
:1006D00072652069732072657365742E205365748A
:1006E000206974206166746572207265737461722A
:1006F00074696E67290A004E6F20436865636B73E7
:10070000756D2077697468206C696E65206E756DF3
:100710006265722C204C617374204C696E653A20BE
:1007200000636865636B73756D206D69736D6174CB
:1007300063682C204C617374204C696E653A20000C
:100740004C696E65204E756D626572206973206E0E
:100750006F74204C617374204C696E65204E756D0A
:100760006265722B312C204C617374204C696E656C
:100770003A20004D313130004D3331005344207266
:10078000656164206572726F720A00446F6E652045
:100790007072696E74696E672066696C650A002004
:1007A000496E76616C6964206578747275646572EF
:1007B000200000000000000088C1000000000000D0
:1007C000A14300005E430000964342696C696E6578
:1007D0006172204C6576656C696E6720477269644A
:1007E0003A0A0053756264697669646564207769C2
:1007F0007468204341544D554C4C20524F4D204C71
:100800006576656C696E6720477269643A0A0057BD
:1008100061726E696E673A20486F6D696E6720423B
:10082000756D702044697669736F72203C20310ABF
:100830000004040400000000000000000000803FED
:100840000000A14300006F43000096434732382068
:100850005A20466F7262696464656E0A00473238D6
:10086000205A20466F7262696464656E0020706F62
:10087000736974696F6E206F7574206F6620726182
:100880006E67652E0A003F50726F626520004C65EE
:1008900076656C696E67206D657368206166746546
:1008A0007220636F7272656374696F6E0A000A4624
:1008B000726F6E742072696768743A000A426163ED
:1008C0006B207269676874203A000A4261636B208A
:1008D0006C65667420203A000A46726F6E74206C54
:1008E000656674203A004C6576656C696E67206DAC
:1008F000657368206265666F726520636F727265EA
:100900006374696F6E0A00202844525952554E296B
:1009100000473239204175746F20426564204C6570
:1009200076656C696E670028422961636B00284612
:1009300029726F6E74002852296967687400284C08
:1009400029656674003F2856296572626F736520B9
:100950006C6576656C20697320696D706C61757368
:1009600069626C652028302D34292E0A00426164AA
:10097000205A2076616C75650A004E6F2062696CA2
:10098000696E65617220677269640A0052657375E9
:100990006D696E67207072696E7400423258333030
:1009A000302072656164792E00436C69636B20743A
:1009B0006F20726573756D652E2E2E0044656C6513
:1009C00074696F6E206661696C65642C2046696C81
:1009D000653A200046696C652064656C65746564E1
:1009E0003A006F70656E206661696C65642C204604
:1009F000696C653A200020573A0042325833303053
:100A00002072656164792E0020573A00205A3A001E
:100A100020593A0020436F756E7420583A002045E3
:100A20003A00205A3A0020593A00583A003A004316
:100A300061703A00205A00205900580020204D6172
:100A4000783A2000205A00205900580020204D6993
:100A50006E3A20004F6E20004F666600536F66743A
:100A600020656E6473746F70733A200020643A00DE
:100A700020693A0020703A0020653A004B6420005B
:100A800023646566696E65202044454641554C5493
:100A90005F004B69200023646566696E6520204411
:100AA000454641554C545F004B70200023646566F9
:100AB000696E65202044454641554C545F005049BD
:100AC00044206175746F74756E652066696E697314
:100AD000686564212050757420746865206C6173AA
:100AE00074204B702C204B6920616E64204B642075
:100AF000636F6E7374616E74732066726F6D2062C3
:100B0000656C6F7720696E746F20436F6E666967DE
:100B100075726174696F6E2E680A005049442061D5
:100B200075746F74756E65206661696C65642120EB
:100B300074696D656F75740A00544845524D414C97
:100B40002052554E4157415900546865726D616C91
:100B50002052756E617761790048656174696E67CE
:100B6000206661696C65640048656174696E672020
:100B70006661696C656400504944206175746F74E6
:100B8000756E65206661696C6564212054656D70C1
:100B90006572617475726520746F6F20686967682B
:100BA0000A00204B643A2000204B693A2000204B79
:100BB000703A20000A20436C6173736963205049C6
:100BC00044200A002054753A2000204B753A20003A
:100BD000206D61783A2000206D696E3A2000206413
:100BE0003A200020626961733A20004D65736820E5
:100BF000706F696E742063616E6E6F742062652021
:100C00007265736F6C7665640A004D343231206909
:100C10006E636F727265637420706172616D65746A
:100C200065722075736167650A004F666673657447
:100C300073206170706C696564004572723A20546B
:100C40006F6F206661722100546F6F2066617220A1
:100C500066726F6D207265666572656E6365207081
:100C60006F696E740A0046616C73652045322066B8
:100C7000696C616D656E742072756E6F7574206439
:100C8000657465637465640A0046616C736520660B
:100C9000696C616D656E742072756E6F7574206419
:100CA000657465637465642E20496E207374617287
:100CB000742047636F64650A004175746F002045B6
:100CC0002F443D00416476616E6365204B3D0061B9
:100CD0007869733A70776D5F7363616C65207C73BC
:100CE00074617475735F726573706F6E73657C0A7F
:100CF0000044726976657220726567697374657203
:100D0000733A0A006F7409006F74707709007332C8
:100D1000676109007332676209006F6C6109006FD7
:100D20006C6209007374737409006673616374699B
:100D30007665090053475F726573756C740053479D
:100D40005F56616C7565007374616C6C6775617278
:100D50006409000A445256535441545553005347B2
:100D60002074687273002D7374617274090068795D
:100D700073746572697369730A2D656E6409006224
:100D80006C616E6B2074696D65006F6666207469B6
:100D90006D65004F54207072657761726E2054004B
:100DA0004F54207072657761726E006D7374657058
:100DB000730900737465616C746843686F700076C2
:100DC00073656E7365090050574D207363616C65E0
:100DD00000524D532063757272656E7400536574D2
:100DE0002063757272656E7400456E61626C656435
:100DF000090009000A4531206973206E6F7720755C
:100E000073696E6720737465616C746843686F7092
:100E10000A000A4531206973206E6F772075736967
:100E20006E67207370726561644379636C650A0054
:100E30000A4530206973206E6F77207573696E677D
:100E4000207370726561644379636C650A000A45BA
:100E500030206973206E6F77207573696E67207319
:100E60007465616C746843686F700A000A5A206187
:100E7000786973206973206E6F77207573696E6768
:100E8000207370726561644379636C650A000A5A65
:100E90002061786973206973206E6F77207573699C
:100EA0006E6720737465616C746843686F700A00C4
:100EB0000A592061786973206973206E6F772075F5
:100EC00073696E67207370726561644379636C65E2
:100ED0000A000A592061786973206973206E6F7760
:100EE000207573696E6720737465616C74684368FC
:100EF0006F700A000A582061786973206973206E48
:100F00006F77207573696E672073707265616443D3
:100F100079636C650A000A582061786973206973E7
:100F2000206E6F77207573696E6720737465616CCE
:100F3000746843686F700A000A45312061786973EC
:100F4000207374616C6C47756172643220737465D0
:100F50007073206C6F73733A000A453120617869B1
:100F600073207374616C6C477561726432207472A3
:100F700069676765726564203A000A4531206178C7
:100F80006973207374616C6C47756172643220768A
:100F9000616C756520202020203A000A45302061D0
:100FA000786973207374616C6C4775617264322068
:100FB0007374657073206C6F73733A000A45302048
:100FC00061786973207374616C6C47756172643207
:100FD00020747269676765726564203A000A45305B
:100FE0002061786973207374616C6C4775617264F9
:100FF000322076616C756520202020203A000A5A44
:101000002061786973207374616C6C4775617264D8
:1010100032207374657073206C6F73733A000A5AD0
:101020002061786973207374616C6C4775617264B8
:101030003220747269676765726564203A000A5AE3
:101040002061786973207374616C6C477561726498
:10105000322076616C756520202020203A000A59E4
:101060002061786973207374616C6C477561726478
:1010700032207374657073206C6F73733A000A5971
:101080002061786973207374616C6C477561726458
:101090003220747269676765726564203A000A5984
:1010A0002061786973207374616C6C477561726438
:1010B000322076616C756520202020203A000A5885
:1010C0002061786973207374616C6C477561726418
:1010D000322066696C74657220697320646561638F
:1010E000746976617465640A000A582061786973CE
:1010F000207374616C6C4775617264322066696C30
:1011000074657220697320616374697661746564C3
:101110000A000A5920617869732073656E736F72D3
:101120006C65737320686F6D696E672063616C69AD
:1011300062726174696F6E20203A000A58206178EB
:1011400069732073656E736F726C65737320686F5B
:101150006D696E672063616C6962726174696F6E3C
:1011600020203A005072696E7420736176656421A4
:10117000005A2076616C7565206166746572206C1A
:10118000696674203A200053746172747570207718
:10119000697A61726420736574207570210A005346
:1011A0007461727475702077697A61726420646901
:1011B0007361626C6564210A0053746172747570A6
:1011C0002077697A61726420776974682045455098
:1011D000524F4D207761726E696E6720616374694A
:1011E0007665210A00206465677265657320636C0B
:1011F0006F636B77697365210020746F20636F7272
:101200007265637420726F7461746520003A003AED
:101210002D2D2D207265666572656E636520706F79
:10122000696E740A00506F696E742000496E7661B1
:101230006C69642073657269616C206E756D62659E
:1012400072203A20005072696E74657220534E3AD3
:1012500020005072696E74657220534E3A20004728
:10126000322F47332062616420706172616D657452
:101270006572730A00536C6565702E2E2E00205A1D
:101280003A200020593A200042656420583A200054
:101290004D65736820706F696E742063616E6E6F48
:1012A00074206265207265736F6C7665640A004E07
:1012B0006F206D6F76652E00456E642066696C65E3
:1012C000206C6973740A00426567696E2066696CF8
:1012D00065206C6973740A004D3132350053442027
:1012E0007072696E74696E67206279746520004E51
:1012F0006F74205344207072696E74696E670A00BF
:1013000020737472696E673A202200256973002584
:10131000696D20256973002569682025696D202580
:10132000697300256964202569682025696D202579
:10133000697300256979202569642025696820255D
:10134000696D20256973005072696E742074696D2F
:10135000653A200050726F7465637465642050694B
:101360006E0A004232583330302072656164792E43
:10137000006F66660014060F0608060106F30544B2
:10138000454255473A004B494C4C45442E20004DB0
:101390003131332053006F6B0042325833303020EC
:1013A0004F66662E00454D455247454E43595F50A6
:1013B000415253455200434153455F4C49474854BD
:1013C0005F4252494748544E45535300544F474794
:1013D0004C455F4C494748545300534F465457417E
:1013E00052455F504F574552004255494C445F505B
:1013F000455243454E54004C4556454C494E475F77
:1014000044415441005A5F50524F424500415554A7
:101410004F4C4556454C005052494E545F4A4F423E
:101420000050524F4752455353004155544F524577
:10143000504F52545F54454D5000564F4C554D45FA
:101440005452494300454550524F4D00534552496F
:10145000414C5F584F4E5F584F4646004649524DEB
:10146000574152455F4E414D453A4D61726C696E30
:1014700020312E312E382042564320322028476911
:10148000746875622920534F555243455F434F445A
:10149000455F55524C3A68747470733A2F2F6769E0
:1014A000746875622E636F6D2F4D61726C696E4644
:1014B00069726D776172652F4D61726C696E205033
:1014C000524F544F434F4C5F56455253494F4E3A3B
:1014D000312E30204D414348494E455F54595045C7
:1014E0003A423258333030204558545255444552D0
:1014F0005F434F554E543A3120555549443A636540
:101500006465326132662D343161322D34373438BE
:101510002D396231322D63353563363266333637D5
:1015200066660A002F2F20004D31343520533C6968
:101530006E6465783E206F7574206F662072616EF0
:1015400067652028302D31290A0053657474696E4F
:10155000672054726176656C20416363656C6572C7
:101560006174696F6E3A200053657474696E672008
:101570005265747261637420416363656C65726166
:1015800074696F6E3A200053657474696E672050F9
:1015900072696E7420416363656C65726174696F12
:1015A0006E3A200053657474696E67205072696EDC
:1015B0007420616E642054726176656C20416363AF
:1015C000656C65726174696F6E3A20000001363790
:1015D00026FF033C3D38FF0F2E303E12FFFF0C0864
:1015E0000907FFFF1A1C18FFFF08440AFF43FFFF0B
:1015F000FFFFFFFF3A200020536572766F20002026
:101600006F7574206F662072616E67650A0053659E
:1016100072766F200050726F6265205A204F6666A6
:101620007365743A200020643A0020693A00207003
:101630003A006C636420636F6E7472617374207619
:10164000616C75653A200043290A0061626C65642B
:1016500020286D696E2074656D702000436F6C6486
:10166000206578747275646573206172652000422C
:101670006564204C6576656C696E6720004661691B
:101680006C656420746F20656E61626C65204265D4
:1016900064204C6576656C696E670A003A2000200C
:1016A0007A5F6D696E3A20202D3138207A5F6D6146
:1016B000783A20202D330A0050726F6265205A203C
:1016C0004F6666736574004E6F2063617365206CAE
:1016D000696768740A00556E6B6E6F776E20636F72
:1016E0006D6D616E643A202200506C6561736520F7
:1016F000776169742E005374617475733A20686F52
:101700006D696E6720582B590053656E736F726C4C
:101710006573732D686F6D696E673A205859005371
:10172000656C662D746573742057697A6172640004
:10173000506C6561736520776169742E0053746124
:101740007475733A68656174696E67206E6F7A7A32
:101750006C650009004368616E67652066696C61AD
:101760006D656E7400436C69636B20746F20636FEA
:101770006E74696E75652E005374617475733A20CA
:101780002068656174696E6720646F6E650009008A
:101790004368616E67652066696C616D656E740093
:1017A00066696C616D656E7420746F20636F6E7412
:1017B000696E75652E00436C69636B206F722069DA
:1017C0006E7365727420005374617475733A2020CF
:1017D00068656174696E6720646F6E650009004317
:1017E00068616E67652066696C616D656E74005036
:1017F0006C6561736520776169742E005374617440
:1018000075733A206C6F6164696E67000900436804
:10181000616E67652066696C616D656E7400506C01
:101820006561736520776169742E00537461747506
:10183000733A20756E6C6F6164696E6700090043CE
:1018400068616E67652066696C616D656E740043E2
:101850006C69636B20746F20657869742E00537413
:10186000617475733A207374616E64627900506CB0
:101870006561736520776169742E005374617475B6
:10188000733A206D6F76696E67004578747275647F
:10189000657220323A004578747275646572203141
:1018A0003A004D616E75616C20657874727573696C
:1018B0006F6E00506C6561736520776169742E00EE
:1018C0005374617475733A206D6F76696E670009A1
:1018D0000009004368616E67652066696C616D652B
:1018E0006E74004731205831343620593539205A2A
:1018F0003530204638303030004731205A353020DE
:101900004633303030004732380045786974004D36
:10191000616E75616C20457874727573696F6E00C5
:101920004175746F20556E6C6F6164004175746F02
:10193000204C6F6164004261636B0043504520207E
:101940002020202020202020202032383009430071
:101950005043202020202020202020202020203222
:1019600036300943004142532F415341202020206B
:10197000202020203234300943005450552F464C4B
:1019800045582020202020202032333509430050A4
:101990004554472F4E594C4F4E20202020203233A3
:1019A00030094300504C41202020202020202020BE
:1019B0002020203231300943004261636B004865CA
:1019C000617465722074696D656F757420732E0083
:1019D0004865617465722074696D656F75742073F4
:1019E0002E0045787472756465722031004261631F
:1019F0006B00466C6F7720453100466C6F77204551
:101A0000310046656564726174650046656564729F
:101A10006174650046616E207370656564203100F5
:101A200046616E20737065656420310054656D7089
:101A300065726174757265204265640054656D70ED
:101A400065726174757265204265640054656D70DD
:101A5000657261747572652045310054656D7065FD
:101A6000726174757265204531004E6F7A7A6C65CB
:101A700020686569676874004261636B0050726535
:101A80006865617420504C4120456E640050726559
:101A90006865617420504C41204265640050726555
:101AA0006865617420504C41004261636B00507264
:101AB00065686561742041425320456E6400507230
:101AC000656865617420414253204265640050722C
:101AD000656865617420414253004261636B004D4B
:101AE0006F76652058004D6F76652059004D6F76F2
:101AF00065205A004D6F7665205A004D6F7665203F
:101B000059004D6F76652058004261636B00697320
:101B100073756520616E64207472792061676169F4
:101B20006E2E007072696E7465722C206669782062
:101B300074686500506C65617365207368757464C2
:101B40006F776E2074686500506C656173652077EF
:101B50006169742E00436C69636B20746F20636F3E
:101B60006E74696E75652E005374617475733A20D6
:101B700000646574656374696F6E20626F6172647E
:101B80002E200073746570706572206472697665CA
:101B900072732E200074657374207468652000547D
:101BA0006865206D616368696E652077696C6C207B
:101BB0006E6F77006F6E20746865205573657220B4
:101BC0004D616E75616C2E00224572726F722043FA
:101BD0006F64657322206368617074657200506C75
:101BE000656173652C20636865636B2074686500AC
:101BF000647572696E67207468652073656C662D04
:101C0000746573740041206572726F72206F636334
:101C10007572656400287363726F6C6C20746F203A
:101C200072656164206D6F72652900436C69636B36
:101C300020746F20657869742E004E6F7A7A6C6517
:101C4000206865696768743A2000486F6D696E673F
:101C5000205A3A204F4B00486F6D696E6720593A01
:101C600000486F6D696E6720583A00426C6F776567
:101C7000722046616E3A204F4B004865617465647E
:101C8000206265643A204F4B004578747275646534
:101C90007220323A204F4B00457874727564657239
:101CA00020313A204F4B00287363726F6C6C2074A4
:101CB0006F2072656164206D6F72652900737563B2
:101CC0006365737366756C6C792E0053656C662D55
:101CD0007465737420636F6D706C657465640077F0
:101CE0006572652072657365742E00757064617429
:101CF00065642C2073657474696E6773004D656D3F
:101D00006F72792073747275637475726520776170
:101D100073004E6F7A7A6C65206865696768740035
:101D20005A206178697320746573743A20202D2DD0
:101D30002D2D2D004E6F7A7A6C6520686569676875
:101D4000743A202D2D2D2D2D004E6F7A7A6C652042
:101D50006865696768743A202D2D2D2D2D0050720D
:101D60006F632E20636F64653A204F433031006605
:101D70006F72206D6F726520696E666F726D61742F
:101D8000696F6E2E006F6E207468652055736572E2
:101D9000204D616E75616C2000224F746865722061
:101DA000436F6465732220636861707465720050CC
:101DB0006C656173652C20636865636B207468656E
:101DC000006E6F7220636F6D706C6574656C792046
:101DD000737475636B007061706572206973206E37
:101DE0006569746865722066726565002E204164BD
:101DF0006A75737420756E74696C20746865200050
:101E0000616E6420746865207072696E74207375E9
:101E10007266616365006265747765656E207468DB
:101E200065206E6F7A7A6C652000506C6163652066
:101E30006120706170657220736865657420002888
:101E40007363726F6C6C20746F2072656164206DB7
:101E50006F726529004C4344206B6E6F622E0068E0
:101E60006569676874206279207475726E696E673F
:101E70002074686500506C656173652C2061646A2C
:101E800075737420746865205A00706F7369746983
:101E90006F6E004D6F76696E6720746F2063616CA2
:101EA0006962726174696F6E004C6576656C696E0B
:101EB0006720646F6E65210053656E736F726C6589
:101EC00073732D686F6D696E673A205859005365BA
:101ED0006E736F726C6573732D686F6D696E673AA0
:101EE00020585900536572766F206D6F746F723A87
:101EF0002020202020204E4F4B00536572766F200B
:101F00006D6F746F723A202020202020204F4B00EC
:101F10005A2061786973206D6F74696F6E3A202062
:101F200020204E4F4B005A2061786973206D6F74EA
:101F3000696F6E3A20202020204F4B00506F77654C
:101F4000726C6F73733A20202020202020204E4F87
:101F50004B00506F7765726C6F73733A20202020AE
:101F600020202020204F4B00453220537465707094
:101F70006572206472697665723A4E4F4B00453146
:101F80002053746570706572206472697665723A68
:101F90004E4F4B005A205374657070657220647206
:101FA000697665723A204E4F4B0059205374657024
:101FB000706572206472697665723A204E4F4B00EC
:101FC000582053746570706572206472697665720A
:101FD0003A204E4F4B005472696E616D6963206404
:101FE0007269766572733A204F4B2100426C6F77AD
:101FF00065722066616E3A2020202020202D2D2D34
:102000002500426C6F7765722066616E3A20202051
:1020100020202020204F4B007072696E7465722062
:1020200073657475702E007468726F7567682074BC
:10203000686520696E697469616C00492077696C14
:102040006C20677569646520796F75002873637209
:102050006F6C6C20746F2072656164206D6F7265A7
:10206000290073656C662D746573742077697A61D5
:102070007264210057656C636F6D6520746F207406
:102080006865204232583330300053656C662D74D9
:102090006573742077697A61726400202D204E6F19
:1020A00000202D2059657300647269766572732073
:1020B000757064617465643F00576572652074686B
:1020C000652045787420737465707065720053657F
:1020D0006C662D746573742077697A617264002070
:1020E0002D204E6F00202D2059657300202D205289
:1020F0006570656174207465737400576173205A4C
:10210000206D6F74696F6E20736D6F6F74683F0020
:1021100053656C662D746573742077697A61726497
:1021200000202D204E6F00202D205965730049732B
:10213000206C6576656C696E672061726D206F70CA
:10214000656E3F0053656C662D7465737420776906
:102150007A61726400202D204E6F00202D20596579
:10216000730049732074686520626C6F7765722014
:102170006163746976653F0053656C662D746573A1
:10218000742077697A61726400436C69636B2074B0
:102190006F20736176652E202020202020200053A0
:1021A00074617475733A20706C6561736520616445
:1021B0006A757374004E6F7A7A6C6520686569671A
:1021C00068740053656C662D746573742077697A42
:1021D000617264004732382058205900436F6E66A0
:1021E00069726D004261636B0053617665207365AF
:1021F0007474696E677300436F6E6669726D004236
:1022000061636B0052657365742073657474696EE5
:1022100067730053696C656E74206D6F646500535D
:102220007465616C7468206D6F6465004E6F726DCB
:10223000616C206D6F646500526573657420736511
:102240007474696E67730053746F7265207365747C
:1022500074696E67730053656C662D7465737420C2
:1022600077697A617264004D6F74696F6E005465AE
:102270006D7065726174757265004C434420636FC4
:102280006E7472617374004C434420636F6E747299
:10229000617374004D6F64653A2020202020202057
:1022A0004E6F726D616C20004D6F64653A20202086
:1022B00020202020537465616C7468004D6F646544
:1022C0003A2020202020202053696C656E74200065
:1022D0004261636B004D3330332055312045256911
:1022E00020532569005049442D4420453100504970
:1022F000442D44204531005049442D4920453100AA
:102300005049442D49204531005049442D50204525
:1023100031005049442D502045310050494420613E
:1023200075746F74756E65204531005049442061A5
:1023300075746F74756E6520453100436F6F6C6402
:102340006F776E005072656865617420414253007A
:102350005072656865617420504C41004261636B46
:1023600000416476616E6365642073657474696EA0
:1023700067730046616E20737065656420310046A6
:10238000616E20737065656420310054656D706501
:10239000726174757265204265640054656D706584
:1023A000726174757265204265640054656D706574
:1023B0007261747572652045310054656D70657287
:1023C0006174757265204531004261636B0056543B
:1023D000726176206D696E005654726176206D6967
:1023E0006E00566D696E00566D696E00566D6178AF
:1023F000204500566D6178204500566D6178205A61
:1024000000566D6178205A00566D6178205900564B
:102410006D6178205900566D6178205800566D61C5
:10242000782058004261636B00416D61782045005F
:10243000416D6178204500416D6178205A00416D01
:102440006178205A00416D6178205900416D6178B2
:10245000205900416D6178205800416D6178205805
:1024600000412D74726176656C00412D7472617645
:10247000656C00412D7265747261637400412D7248
:1024800065747261637400416363656C00416363EA
:10249000656C004261636B0056652D6A65726B0066
:1024A00056652D6A65726B00567A2D6A65726B00EF
:1024B000567A2D6A65726B0056792D6A65726B00CB
:1024C00056792D6A65726B0056782D6A65726B00BD
:1024D00056782D6A65726B004261636B00457374B8
:1024E0006570732F6D6D004573746570732F6D6D1E
:1024F000005A73746570732F6D6D005A7374657034
:10250000732F6D6D005973746570732F6D6D005965
:1025100073746570732F6D6D005873746570732FCD
:102520006D6D005873746570732F6D6D004261633B
:102530006B0053746570732F6D6D004A65726B008C
:10254000416363656C65726174696F6E00466565B1
:102550006472617465005472696E616D69632073A1
:10256000657474696E6773004261636B0045004572
:10257000005A005A0059005900580058004261633F
:102580006B004175746F2061646A757374005465E3
:102590007374205920686F6D696E67004732382068
:1025A000590A47323820590A47323820590A4732E7
:1025B0003820590A473238205900592063616C6924
:1025C00062726174696F6E00592063616C69627236
:1025D0006174696F6E0054657374205820686F6D64
:1025E000696E670047323820580A47323820580A47
:1025F00047323820580A47323820580A47323820A4
:102600005800582063616C6962726174696F6E0072
:10261000582063616C6962726174696F6E00426117
:10262000636B0045207468726573686F6C64004565
:10263000207468726573686F6C64005920746872E6
:102640006573686F6C640059207468726573686F95
:102650006C640058207468726573686F6C6400580D
:10266000207468726573686F6C64004261636B000C
:102670004532206E6F6E20535049004F6666004F02
:102680006E20004531206E6F6E20535049004F6E12
:1026900020004F6666004F6E20005A206E6F6E203D
:1026A000535049004F6666004261636B0052657388
:1026B00065742064656661756C74004E6F6E20539E
:1026C000504920544D4320647269766572005374FA
:1026D000616C6C6775617264322073657474696EC5
:1026E00067730053656E736F726C65737320686FE8
:1026F0006D696E67005374657070657220637572E2
:1027000072656E74004261636B0043616E6E6F743C
:1027100020656E746572207375626469723A200078
:102720004D37313200022E2E004261636B002020B3
:102730004E6F7A7A6C653A20004261636B004D6996
:102740006E696D756D2054656D7020697320313729
:10275000302E0048656174696E67206661696C653A
:10276000640045787472756465206D6F726500420F
:1027700061636B202020202020202020202020208A
:1027800020202004004368616E67652066696C61E3
:102790006D656E740046696C616D656E742072754E
:1027A0006E6F757400506C65617365207761697434
:1027B0002E005374617475733A20726573756D6978
:1027C0006E6700506C6561736520776169742E00D7
:1027D0005374617475733A20657874727564696EA8
:1027E0006700506C6561736520776169742E0053D2
:1027F00074617475733A206C6F6164696E6700610F
:102800006E6420636C69636B20746F20636F6E74F9
:10281000696E756500506C656173652C206C6F6125
:10282000642066696C616D656E74005374617475C3
:10283000733A2077616974696E6700436C69636BF2
:1028400020746F207265686561742E005374617422
:1028500075733A207374616E64627900506C6561BF
:10286000736520776169742E005374617475733ACF
:102870002068656174696E6700506C6561736520DE
:10288000776169742E005374617475733A20756EA4
:102890006C6F6164696E6700506C65617365207769
:1028A0006169742E005374617475733A206D6F768C
:1028B000696E670009004368616E67652066696C30
:1028C000616D656E740046696C616D656E74207231
:1028D000756E6F757400436172642072656D6F76FA
:1028E0006564004361726420696E73657274656427
:1028F000005344204E4F4B2C207265696E736572F5
:1029000074205344210000060900FE0701920321B0
:10291000207FFF07FF07FF000000060000010707F8
:10292000060200808080808000800302020601058C
:10293000A0A00507070600005050F850F8505005B9
:1029400007070600002078A07028F020050707067A
:102950000000C0C810204098180507070600006056
:1029600090A040A89068020303060104C0408003C1
:1029700007070601002040808080402003070706EB
:102980000100804020202040800505050600012030
:10299000A870A8200505050600012020F8202002C7
:1029A00003030602FFC04080050101060003F80290
:1029B0000202060200C0C00505050600010810203D
:1029C00040800507070600007088888888887003A3
:1029D000070706010040C040404040E005070706E9
:1029E0000000708808708080F8050707060000F86E
:1029F0001020100808F0050707060000103050905E
:102A0000F81010050707060000F880F00808887025
:102A1000050707060000708080F0888870050707AA
:102A2000060000F8081020202020050707060000F7
:102A3000708888708888700507070600007088888D
:102A400078080870020505060200C0C000C0C00278
:102A500006060602FFC0C000C0408004070706004B
:102A60000010204080402010050303060002F800FB
:102A7000F804070706010080402010204080050769
:102A800007060000708808102000200507070600D0
:102A90000070880868A8A8700507070600007088FD
:102AA00088F8888888050707060000F08888F0887D
:102AB00088F0050707060000708880808088700510
:102AC0000707060000F08888888888F00507070651
:102AD0000000F88080F08080F8050707060000F805
:102AE0008080F0808080050707060000708880B82D
:102AF000888870050707060000888888F888888815
:102B0000010707060200808080808080800507071B
:102B1000060000381010101090600507070600002E
:102B20008890A0C0A09088050707060000808080DC
:102B3000808080F805070706000088D8A888888864
:102B4000880507070600008888C8A89888880507B0
:102B500007060000708888888888700507070600C7
:102B600000F08888F08080800507070600007088E4
:102B70008888A89068050707060000F08888F0A0FC
:102B80009088050707060000788080700808F00527
:102B90000707060000F82020202020200507070650
:102BA00000008888888888887005070706000088E4
:102BB000888888885020050707060000888888884C
:102BC00088A850050707060000888850205088888C
:102BD0000507070600008888885020202005070781
:102BE000060000F80810204080F8030707060100DF
:102BF000E08080808080E00505050600018040209F
:102C00001008030707060100E02020202020E0052F
:102C10000303060004205088050101060000F802A5
:102C200002020602058040050505060000700878CE
:102C300088780507070600008080B0C88888F005FE
:102C400005050600007080808870050707060000F3
:102C5000080868988888780505050600007088F8D7
:102C600080700507070600003048E04040404005FE
:102C700006060600FF7088887808700507070600BA
:102C8000008080B0C888888801070706020080009D
:102C900080808080800308080601FF20002020201B
:102CA00020A040040707060000808090A0C0A090EC
:102CB000030707060100C04040404040E00505050D
:102CC000060000D0A8A8A8A8050505060000B0C801
:102CD00088888805050506000070888888700506C4
:102CE000060600FFF08888F080800506060600FFD3
:102CF000788888780808050505060000B0C8808037
:102D00008005050506000070807008F004070706BE
:102D100000004040E04040403005050506000088C6
:102D20008888986805050506000088888850200571
:102D300005050600008888A8A850050505060000BE
:102D400088502050880506060600FF888888780885
:102D500070050505060000F8102040F80307070677
:102D6000010020404080404020010707060200800B
:102D7000808080808080030707060100804040201B
:102D80004040800502020600026890000000060034
:102D90000000060900FE000000000001090008FE16
:102DA000000005080806000040F0C88888987810E0
:102DB000050808060000C0F88888888888F8050596
:102DC000050600012030F830200508080600002024
:102DD00070F820202020E00509090600FF2070A8D7
:102DE000A8B8888870200509090600FFE080C0B0F7
:102DF000A8283028280509090600FFF8A88888882F
:102E00008888A8F8050A0A0600FE2050505050880D
:102E1000A8A8887003030306000340A0401000C95F
:102E20000210012C014001220170011801B0010EB5
:102E300001F00104015002FA00B002F0003003E694
:102E400000D003DC009004D2007005C800A006BECC
:102E5000000008B400B009AA00D00BA000600E96D4
:102E60000060118C000015820020197800C01D6ED2
:102E700000A0226400B0275A00902C500000314678
:102E800000E0343C0010383200903A2800603C1ECC
:102E900000A03D1400803E0A00203F000066696CDF
:102EA000616D656E743A20007A5F6D696E3A20003C
:102EB000795F6D61783A2000785F6D61783A200023
:102EC0005265706F7274696E6720656E6473746F9B
:102ED00070207374617475730A0020746F6F206CB6
:102EE0006F6E6720657874727573696F6E2070728B
:102EF0006576656E7465640A0020636F6C64206596
:102F00007874727573696F6E2070726576656E7411
:102F100065640A0024F4D43050C38E20C2A2401746
:102F2000828B7011127A910D816CD90AA861E10827
:102F3000C7586607615143061E4B5D05C145A7048E
:102F40001A411104093D9803713931034036DB02FF
:102F500065339102D4305402802E1D02632CEE01A1
:102F6000752AC501B028A001102781018F256401B1
:102F70002B244B01E0223401AC211F018D200D01D7
:102F8000801FFC00841EED00971DDF00B81CD200DE
:102F9000E61BC600201BBC00641AB200B219A800D0
:102FA0000A19A0006A189900D117910040178B00E8
:102FB000B516840031167E00B31579003A157300FA
:102FC000C7146F0058146A00EE136600881363007C
:102FD00025135E00C7125B006C12570015125400D7
:102FE000C111510070114F0021114B00D610490042
:102FF0008D1047004610440002104200C00F4000F0
:10300000800F3E00420F3C00060F3B00CB0E380005
:10301000930E37005C0E3500270E3400F30D32009E
:10302000C10D3100900D3000600D2E00320D2D00CD
:10303000050D2C00D90C2B00AE0C2900850C2900A5
:103040005C0C2700350C27000E0C2600E80B240032
:10305000C40B2400A00B23007D0B23005A0B21007E
:10306000390B2100180B2000F80A1F00D90A1E0096
:10307000BB0A1E009D0A1D00800A1D00630A1C0079
:10308000470A1B002C0A1B00110A1A00F7091A0034
:10309000DD091900C4091900AB09190092091700CC
:1030A0007B091800630917004C0916003609160041
:1030B000200916000A091500F5081500E00814009B
:1030C000CC081400B8081400A408140090081300D9
:1030D0007D0812006B081300580812004608120001
:1030E0003408110023081100120811000108110012
:1030F000F0071000E0071000D0071000C007100014
:10310000B0070F00A107100091070E0083070F0002
:1031100074070F0065070E0057070E0049070E00E1
:103120003B070D002E070E0020070D0013070D00B2
:1031300006070D00F9060C00ED060D00E0060C0078
:10314000D4060C00C8060C00BC060C00B0060C002F
:10315000A4060B0099060C008D060B0082060B00DE
:1031600077060B006C060B0061060A0057060B0081
:103170004C060A0042060A0038060A002E060A001B
:1031800024060A001A060A001006090007060A00AB
:10319000FD050900F4050900EB050900E205090039
:1031A000D9050900D0050900C7050900BE050900B9
:1031B000B5050800AD050800A50509009C05080037
:1031C000940508008C050800840508007C050800AB
:1031D000740508006C050700650508005D0507001B
:1031E000560508004E050700470507004005080082
:1031F00038050700310507002A05070023050700E9
:103200001C050600160507000F0507000805060047
:1032100002050700FB040600F5040700EE040600A3
:10322000E8040600E2040700DB040600D5040600FB
:10323000CF040600C9040600C3040600BD0406004E
:10324000B7040600B1040500AC040600A60406009D
:10325000A00405009B0406009504050090040600E8
:103260008A04050085040500800406007A04050030
:1032700075040500700405006B0405006604050074
:10328000610405005C0405005704050052040500B4
:103290004D04050048040500430405003E040400F5
:1032A0003A04050035040500300404002C04050030
:1032B00027040400230405001E0404001A0404006B
:1032C00016040500110404000D040400090405009F
:1032D0000404040000040400FC030400F8030400D8
:1032E000F4030400F0030400EC030400E80304000A
:1032F000E4030400E0030400DC030400D80304003A
:10330000D4030400D0030400CC030400C80303006A
:10331000C503030024F404D9201BC40C5C0E9804DC
:10332000C4095F0265077101F405F900FB04B300ED
:1033300048048700C1036900580355000303450092
:10334000BE023A008402310053022A0029022500FD
:1033500004022000E4011C00C8011900AF0117009D
:103360009801140084011300710110006101100024
:1033700051010E0043010D0036010B002B010B0023
:1033800020010B00150109000C01090003010800D0
:10339000FB000800F3000800EB000700E400060053
:1033A000DE000600D8000600D2000600CC000500B2
:1033B000C7000500C2000500BD000400B9000400FC
:1033C000B5000400B1000400AD000400A900040031
:1033D000A5000300A20003009F0004009B0003005F
:1033E0009800030095000200930003009000030082
:1033F0008D0002008B00030088000200860002009E
:1034000084000300810002007F0002007D000200B2
:103410007B000200790002007700010076000200C4
:103420007400020072000100710002006F000200CF
:103430006D0001006C0002006A00010069000200DA
:1034400067000100660001006500010064000200E1
:103450006200010061000100600001005F000200E5
:103460005D0001005C0001005B0001005A000100EA
:1034700059000100580001005700010056000100EA
:1034800055000100540001005300000053000100EA
:103490005200010051000100500001004F000100E6
:1034A0004E0000004E0001004D0001004C000100E4
:1034B0004B0000004B0001004A00010049000100E0
:1034C00048000000480001004700010046000000DD
:1034D00046000100450000004500010044000100D5
:1034E00043000000430001004200000042000100D0
:1034F0004100000041000100400001003F000000C9
:103500003F0001003E0000003E0001003D000000C1
:103510003D0001003C0000003C0000003C000100B8
:103520003B0000003B0001003A0000003A000100AF
:1035300039000000390001003800000038000000A8
:10354000380001003700000037000100360000009D
:103550003600000036000100350000003500000094
:103560003500010034000000340000003400010088
:10357000330000003300000033000100320000007F
:103580003200000032000100310000003100000074
:103590003100010030000000300000003000010068
:1035A0002F0000002F0000002F0000002F0001005E
:1035B0002E0000002E0000002E0001002D00000053
:1035C0002D0000002D0000002D0001002C00000047
:1035D0002C0000002C0000002C0001002B0000003B
:1035E0002B0000002B0000002B0001002A0000002F
:1035F0002A0000002A0000002A0001002900000023
:103600002900000029000000290000002900010015
:10361000280000002800000028000000280000000A
:1036200028000100270000002700000027000000FC
:1036300027000000270001002600000026000000EF
:1036400026000000260000002600010025000000E2
:1036500025000000250000002500000025000000D6
:1036600025000100240000002400000024000000C8
:1036700024000000240001002300000023000000BB
:1036800023000000230000002300000023000000AE
:1036900023000100220000002200000022000000A0
:1036A0002200000022000000220001002100000092
:1036B0002100000021000000210000002100000086
:1036C0002100000021000100200000002000000077
:1036D000200000002000000020000000200000006A
:1036E00020000000200001001F0000001F0000005B
:1036F0001F0000001F0000001F0000001F0000004E
:103700001F0001001E0000001E0000001E0000003F
:103710001E0000004D383420582059205A20450002
:103720006265640A002C2073797374656D2073746C
:103730006F7070656421204865617465725F4944EB
:103740003A200070012C0190012701B0012201C034
:10375000011D01F00118011002130130020E016079
:1037600002090190020401C002FF000003FA0040B8
:1037700003F5008003F000D003EB002004E60070A6
:1037800004E100E004DC004005D700C005D20040A1
:1037900006CD00D006C8008007C3003008BE00F088
:1037A00008B900C009B400B00AAF00B00BAA00D03D
:1037B0000CA500000EA000500F9B00C010960050FA
:1037C00012910000148C00C0158700B0178200B061
:1037D000197D00D01B7800001E730040206E009001
:1037E000226900F024640040275F0090295A00E01D
:1037F0002B5500102E500020304B0010324600E0B8
:1038000033410090353C001037370070383200A04B
:10381000392D00B03A2800A03B2300603C1E001068
:103820003D1900903D1400103E0F00703E0A00C08C
:103830003E0500003F0000403FFBFF803FF6FFC019
:103840003FF1FF544845524D414C2052554E41578F
:10385000415900546865726D616C2052756E6177D4
:103860006179004572723A204D494E54454D5020C1
:10387000424544004572723A204D494E54454D50E0
:10388000004D494E54454D5020747269676765720A
:103890006564004572723A204D415854454D5020A0
:1038A000424544004572723A204D415854454D50AE
:1038B000004D415854454D502074726967676572D8
:1038C000656400202F002042403A0020403A004327
:1038D0006C69636B20746F207265696E73657274B6
:1038E00020534E00506C6561736520696E7365727C
:1038F0007420534E2E00436C69636B20746F2063F9
:103900006F6E74696E75652E00534E3A2000636FBA
:103910006E666967757265642E0053657269616CC5
:10392000206E756D626572206973206E6F7700532B
:10393000657269616C206E756D62657220696E7664
:10394000616C69642100666F7220796F7572206DF9
:10395000616368696E652E006C6F616420746865D0
:103960002073657474696E6773007072696E746534
:103970007220746F20636F72726563746C79005487
:103980006869732077696C6C20616C6C6F77207448
:103990006865006E65787420746F20657874727540
:1039A0006465722045312E006261636B206F662072
:1039B000746865207072696E7465722C006F6E2079
:1039C00074686520737469636B6572206F6E207410
:1039D00068650073657269616C206E756D626572F1
:1039E0002070726573656E7400506C65617365203C
:1039F000696E736572742074686500287363726FF2
:103A00006C6C20746F2072656164206D6F72652923
:103A100000666F756E642E0053657269616C206E6E
:103A2000756D626572206E6F740053657269616CAA
:103A3000206E756D6265722077697A61726400200C
:103A40002D204E6F00202D2059657300497320747E
:103A500068697320636F72726563743F00534E3AF6
:103A6000200053657269616C206E756D626572200D
:103A700077697A61726400436C69636B20746F20AC
:103A8000736176652E202020202020200053746151
:103A90007475733A20706C656173652061646A7532
:103AA0007374004E6F7A7A6C652068656967687414
:103AB000004C6576656C696E672061646A75737425
:103AC000004E6F7A7A6C6520686569676874005388
:103AD0006574206E6F7A7A6C6520686569676874B2
:103AE000004739310A4731205A350A4732382058C1
:103AF00020590A473120582D32300A4739300A4DB3
:103B0000383400436C69636B20746F20636F6E748C
:103B1000696E75652E00506C65617365207761690B
:103B2000742E0050726F632E20636F64653A204FCD
:103B300043303100666F72206D6F726520696E666A
:103B40006F726D6174696F6E2E006F6E20746865A0
:103B50002055736572204D616E75616C00224F7443
:103B600068657220436F64657322206368617074B6
:103B7000657200506C656173652C20636865636BCA
:103B800020746865007175616C697479206465637F
:103B90007265617365732E006F74686572776973FF
:103BA00065206C6576656C696E670061646A757323
:103BB000746D656E7420706F696E74732C0072651D
:103BC00073697374616E6365206265747765656E91
:103BD00000456E73757265206120636F6E73697343
:103BE00074656E74006E6F7220636F6D706C6574B7
:103BF000656C7920737475636B00706170657220F9
:103C00006973206E65697468657220667265650007
:103C10002E2041646A75737420756E74696C20740B
:103C2000686500616E6420746865207072696E74E6
:103C30002073757266616365006265747765656E91
:103C400020746865206E6F7A7A6C6500506C6163D1
:103C5000652061207061706572207368656574000D
:103C6000287363726F6C6C20746F207265616420BE
:103C70006D6F726529004C4344206B6E6F622E009D
:103C8000686569676874206279207475726E696E00
:103C9000672074686500506C656173652C206164F1
:103CA0006A75737420746865205A00636F6D706C58
:103CB0006574652100506F696E742061646A757364
:103CC000746D656E74004865696768742061646A24
:103CD0007573746D656E74005374617475733A20F6
:103CE0004D6F76696E67004E6F7A7A6C65206865F5
:103CF000696768743A202D2D2D2D2D005374617441
:103D000075733A2066696E64696E67206D657368C5
:103D1000004E6F7A7A6C65206865696768743A202E
:103D20002D2D2D2D2D004C6576656C696E672061FB
:103D3000646A75737400536574206E6F7A7A6C656B
:103D400020686569676874004739310A4731205A2D
:103D5000350A473238205820590A473120582D3229
:103D6000300A4739300A4D3834003A2000436F7228
:103D700072656374696F6E200046726F6E74207294
:103D8000696768740046726F6E7420726967687440
:103D9000004261636B207269676874004261636B03
:103DA000207269676874004261636B206C65667499
:103DB000004261636B206C6566740046726F6E74BE
:103DC000206C6566740046726F6E74206C65667454
:103DD000004261636B00416476616E6365642073C9
:103DE000657474696E6773004C6576656C696E679F
:103DF0002061646A757374004261636B0025753AD3
:103E00002530327500253032753A2530327500255F
:103E1000756420253032753A25303275005A0059C4
:103E200000580009200009200000000000000000E8
:103E300000000000007FFFE0000000000000000024
:103E4000000000007000E000000000000000000022
:103E500000000061F86000000000000000000000A9
:103E6000000041F8200000000000000000000000F9
:103E70000040F020000000000000000000000000F2
:103E8000406020000000000000000000000000581A
:103E900001A07F80000000000000004104005C637E
:103EA000A0FFC0000000000000002082005EF7A01C
:103EB000FFC0000000000000002082005EF7A0FFAD
:103EC000C0000000000000004104005C63A07F808F
:103ED000000000000000008208005801A07F800060
:103EE000000000000001041000406020FFC000003E
:103EF000000000000104100040F020FFC00000009E
:103F00000000000082080041F820FFC0000000000F
:103F100000000041040061F8603F00000000000064
:103F200000000000007000E01E0000000000000023
:103F300001FFFF807FFFE00C000000000000000197
:103F4000FFFF8000000000000000000000000000F3
:103F500000007FFFE0000000000000000000000003
:103F6000007000E000000000000000000000000001
:103F7000630C60000000000000000000000000472B
:103F80000E200000000000000000000000004F0FA5
:103F9000200000000000000000000000005F0FA0F3
:103FA0000000000000000000000000005E07A07F8D
:103FB0008000000000000000410400406020FFC0BD
:103FC0000000000000000020820040F020FFC00040
:103FD00000000000000020820040F020FFC0000030
:103FE00000000000004104004060207F80000000CD
:103FF000000000008208005E07A07F800000000033
:104000000000010410005F0FA0FFC00000000000CE
:1040100000010410004F0F20FFC00000000000004E
:1040200000820800470E20FFC000000000000000D2
:10403000410400630C603F0000000000000000002D
:1040400000007000E01E0000000000000001FFFF03
:10405000807FFFE00C0000000000000001FFFF80F7
:10406000000000436C69636B20746F20657869748D
:104070002E0070726F6365737320756E74696C20A7
:10408000636C65616E2E00706C656173652072658E
:10409000706561742074686500657874726163741A
:1040A00065642066696C616D656E742000287363B9
:1040B000726F6C6C20746F2072656164206D6F721A
:1040C0006529006F6E2074686520746970206F66C2
:1040D00020746865200049662074686572652069EF
:1040E00073207265736964756500436F6C6420703A
:1040F000756C6C2066696E69736865642100506C2C
:10410000656173652070756C6C2066696C616D65A6
:104110006E742E005374617475733A2020636F6C53
:10412000642070756C6C696E67000900436C69638C
:104130006B20746F20636F6E74696E75652E0066F8
:10414000696C616D656E742E200070756C6C2066F4
:104150006F726365206F6E2074686500506C6561D6
:1041600073652C206170706C792061206576656EB6
:1041700000436C69636B20746F20636F6E74696EAB
:1041800075652E0066726F6D20746865206E6F7A9B
:104190007A6C652E2000616E79206C6566746F768E
:1041A00065722066696C616D656E7400506C656146
:1041B00073652C2070756C6C206177617900506C90
:1041C0006561736520776169742E0053746174753D
:1041D000733A20707265706172696E6700090050F1
:1041E0006C6561736520776169742E005374617426
:1041F00075733A206C6F6164696E67000900436CE7
:1042000069636B20746F206C6F61642E0077697432
:10421000686F7574207573696E672073656E736F50
:10422000722E00496E736572742066696C616D65EB
:104230006E7420005374617475733A202068656150
:1042400074696E6720646F6E6500506C656173659C
:1042500020776169742E005374617475733A207508
:104260006E6C6F6164696E67000900436C69636B13
:1042700020746F20636F6E74696E75652E007468AC
:10428000652066696C616D656E742073656E736F11
:10429000722E006D61792067657420737475636B8D
:1042A00020696E73696465006F66207468652066B6
:1042B000696C616D656E74207468617400696E204C
:1042C0006120656E6C61726765642074697000437B
:1042D0006F6C642070756C6C20726573756C747390
:1042E00000287363726F6C6C20746F207265616458
:1042F000206D6F72652900756E6C6F616420697343
:10430000206E6563657373617279210066696C6103
:104310006D656E742073656E736F720046696C61B3
:104320006D656E74206465746563746564206F6E7A
:1043300000506C6561736520776169742E00537459
:10434000617475733A68656174696E67206E6F7A1F
:104350007A6C65000900436C69636B20746F20639D
:104360006F6E74696E75652E006578747275736909
:104370006F6E2070726F626C656D73006966207479
:10438000686572652061726520616E79006265748E
:104390007765656E2066696C616D656E7473206FFC
:1043A00072004232583330302C207768656E2063BB
:1043B00068616E67696E67006E6F7A7A6C657320EC
:1043C0006F6620796F75720068656C7020796F7503
:1043D00020636C65616E20746865005468697320A1
:1043E00070726F636573732077696C6C200028733B
:1043F00063726F6C6C20746F2072656164206D6FE6
:104400007265290077697A617264210057656C636F
:104410006F6D6520746F20636F6C642070756C6CB9
:1044200000436F6C642070756C6C0050432020203A
:104430002020202020202020202032363009430058
:1044400041425320202020202020202020202032E4
:104450003430094300504554472F4E594C4F4E209D
:1044600020202020323330094300504C41202020AE
:1044700020202020202020202032313009430042FB
:1044800061636B0045787472756465722031004217
:1044900061636B00436F6C642070756C6C004D370A
:1044A0003130004D37313200202D204E6F00202D4D
:1044B00020596573005265636F766572207072696A
:1044C0006E743F00506F7765726C6F737320646514
:1044D00074656374656400436C69636B20746F205A
:1044E00063616E63656C2E004175746F2D72656338
:1044F0006F766572696E67207072696E7400506FB6
:104500007765726C6F73732064657465637465643A
:1045100000436C69636B20746F20636F6E74696E07
:1045200075652E00637573746F6D657220736572A7
:10453000766963652100506C6561736520636F6EF9
:104540007461637400453220737465707065722005
:104550006661756C742100453120737465707065F7
:1045600072206661756C7421005A207374657070D6
:104570006572206661756C742100592073746570D2
:10458000706572206661756C7421005820737465C3
:1045900070706572206661756C742100636F6D6D5B
:1045A000756E69636174696F6E206572726F723ABD
:1045B00000544D4320737465707065722064726995
:1045C000766572005472696E616D6963204661752B
:1045D0006C740041626F7574004D616368696E654B
:1045E0002073657474696E67730052657472792004
:1045F00053442063617264004D3231005072696E21
:1046000074004D61696E74656E616E636500507211
:10461000696E74004261636B005072696E74207041
:104620006175736564004D31323500004D323400E0
:104630004739310A4731205A350A47323820582045
:10464000590A473120582D32300A4739300A4D383F
:1046500034005072696E742063616E63656C6564CA
:10466000004D363030204230004368616E6765206F
:1046700066696C616D656E740043616E63656C2084
:104680007072696E7400526573756D652070726921
:104690006E74005072696E742073657474696E670D
:1046A00073005061757365207072696E74004261A9
:1046B000636B004C6576656C206265640047323937
:1046C0000A473238205820590A4D3530300A4739C8
:1046D000310A473120582D32300A4739300A4734E1
:1046E00020503230300A204D3330302053343030B7
:1046F0003020503230300A473420503530300A20D4
:104700004D33303020533430303020503230300090
:10471000436F6C642070756C6C00496D70726F76BD
:1047200065206C6576656C696E6700536574206EF4
:104730006F7A7A6C65206865696768740041757482
:104740006F20686F6D6500473238004D6F766520C9
:1047500061786973004368616E67652066696C61A2
:104760006D656E74004261636B0045322053746561
:1047700070706572206472697665723A4E4F4B00B4
:104780004531205374657070657220647269766576
:10479000723A4E4F4B005A20537465707065722008
:1047A0006472697665723A204E4F4B0059205374FB
:1047B0006570706572206472697665723A204E4F3A
:1047C0004B0058205374657070657220647269766E
:1047D00065723A204E4F4B00534E3A20004E6F7A8E
:1047E0007A6C65206865696768743A20004469617D
:1047F000676E6F7374696320496E666F2E00424561
:104800004556455259435245415449564500656EF7
:1048100067696E6565726564206279006F70656EA8
:1048200020736F75726365206669726D776172655A
:10483000004D61726C696E2D666F726B00436C691E
:10484000636B20746F20736176652E2020202020FA
:104850002020005374617475733A20706C65617325
:10486000652061646A757374004E6F7A7A6C652096
:10487000686569676874004C697665206E6F7A7A3E
:104880006C652068656967687400576F726B696E44
:10489000672E2E2E00576F726B696E672E2E005793
:1048A0006F726B696E672E00576F726B696E67006F
:1048B00065787065637465642E004E6F697365205A
:1048C000616E6420696D706163747320617265004C
:1048D00053656E736F726C6573732D686F6D696E5F
:1048E000673A20580053656C662D746573742057C1
:1048F000697A61726400576F726B696E672E2E2E33
:1049000000576F726B696E672E2E00576F726B695E
:104910006E672E00576F726B696E67006578706501
:10492000637465642E004E6F69736520616E642048
:10493000696D7061637473206172650053656E7395
:104940006F726C6573732D686F6D696E673A20596D
:104950000053656C662D746573742057697A6172B3
:104960006400506C6561736520776169742E005333
:1049700074617475733A204F4B210053656E736FE9
:10498000726C6573732D686F6D696E673A2058009D
:1049900053656C662D746573742057697A6172640F
:1049A00000506C6561736520776169742E005374E3
:1049B000617475733A204F4B210053656E736F72AB
:1049C0006C6573732D686F6D696E673A205900537B
:1049D000656C662D746573742057697A6172640022
:1049E00045786974696E6720626C6F636B696E6786
:1049F0002073637265656E0A00526573656E643A72
:104A000020006F6B0020746F6F206C6F6E672065E5
:104A10007874727573696F6E2070726576656E74E6
:104A200065640A0020636F6C642065787472757326
:104A3000696F6E2070726576656E7465640A004DEC
:104A4000363030204600627573793A207061757394
:104A5000656420666F7220696E7075740A006275F5
:104A600073793A2070617573656420666F72207582
:104A70007365720A00627573793A2070726F6365AC
:104A80007373696E670A004B494C4C45442E2000F5
:104A90004B494C4C20636175736564206279204BEF
:104AA000494C4C20627574746F6E2F70696E0A00E9
:104AB0004B494C4C45442E20004B494C4C206361E3
:104AC0007573656420627920746F6F206D756368FB
:104AD00020696E6163746976652074696D65202D47
:104AE0002063757272656E7420636F6D6D616E64A4
:104AF0003A200045312064697361626C65640A0084
:104B000045302064697361626C65640A00506C65AD
:104B1000617365207265736574005052494E544547
:104B2000522048414C544544005072696E7465727D
:104B30002068616C7465642E206B696C6C28292078
:104B400063616C6C6564210A005072696E74207335
:104B50006176656421006572726F72207772697484
:104B6000696E6720746F2066696C650A00205A3A86
:104B70000020593A0020583A00656E6473746F70D3
:104B800073206869743A2000446F6E652073617603
:104B9000696E672066696C652E0A004D32390074B3
:104BA0007275650066616C73650074727565006688
:104BB000616C736500747275650066616C73650085
:104BC000313D2E313800303D2E333235002F333118
:104BD000002F3331002F3331007472756500666128
:104BE0006C736500203D2030780058005800580054
:104BF000580058005800580058005800090020611B
:104C00007869732064726976657220637572726563
:104C10006E743A2000747275650066616C7365008D
:104C200020617869732074656D7065726174757246
:104C300065207072657761726E207472696767654E
:104C40007265643A2000207072657761726E20662A
:104C50006C616720636C65617265640A0020647230
:104C60006976657220686F6D696E672073656E7313
:104C7000697469766974792073657420746F200093
:104C80004163746976652045787472756465723A1B
:104C900020004D36303020486F74656E6420746F8C
:104CA0006F20636F6C6420746F206368616E67654A
:104CB0002066696C616D656E740A007C3C3E5E2BFB
:104CC0003D3F2F5B5D3B2C2A225C004572726F7268
:104CD0002077726974696E6720746F204545505261
:104CE0004F4D210A00506F696E7420343A00506FA6
:104CF000696E7420333A00506F696E7420323A0046
:104D0000506F696E7420313A00454550524F4D2026
:104D100076657273696F6E206D69736D6174636817
:104D200020005570646174696E6720454550524F8C
:104D30004D2076657273696F6E20423032202D3EB1
:104D4000204230330A00204D61726C696E3D423062
:104D5000330A00454550524F4D3D00B80B0000B896
:104D60000B0000C8000000102700000000484300AE
:104D70000048430000C04000007042205200202044
:104D80004D393030204B004C696E656172204164B2
:104D900076616E63653A0A000A0946726F6E742086
:104DA000726967687420000A094261636B20726946
:104DB00067687420000A094261636B206C65667441
:104DC0002000426564206C6576656C696E672069B9
:104DD0006D70726F76656D656E74206D6D3A0A093F
:104DE00046726F6E74206C6566742000200A007C29
:104DF00042696E6172793A004532200045312000E7
:104E00005A2000592000582000544D43206E6F6EE8
:104E1000205350493A2000204531200020453020C1
:104E200000205A200020592000205820005374658B
:104E30007070657220647269766572206375727233
:104E4000656E743A0A0020204D383531205A005AD8
:104E50002D50726F6265204F666673657420286DF1
:104E60006D293A0A0020440020490020204D3330AB
:104E70003420500020440020490020204D333031A0
:104E80002050005049442073657474696E67733A0A
:104E90000A0020460020420020480020204D3134E6
:104EA000352053004D6174657269616C20686561DD
:104EB00074757020706172616D65746572733A0A01
:104EC0000020204D3432302053004175746F204251
:104ED0006564204C6576656C696E673A0A00205AF5
:104EE0000020590020204D323036205800486F6D88
:104EF00065206F66667365743A0A00204500205A83
:104F00000020590020580020420020540020204D4D
:104F1000323035205300416476616E6365643A2017
:104F2000533C6D696E5F66656564726174653E20B1
:104F3000543C6D696E5F74726176656C5F66656521
:104F400064726174653E20423C6D696E5F73656793
:104F50006D656E745F74696D655F75733E20583C56
:104F60006D61785F78795F6A65726B3E205A3C6D3F
:104F700061785F7A5F6A65726B3E20453C6D61784F
:104F80005F655F6A65726B3E0A0020540020520024
:104F900020204D323034205000416363656C6572CF
:104FA0006174696F6E2028756E6974732F7332296E
:104FB0003A20503C7072696E745F616363656C3E49
:104FC00020523C726574726163745F616363656CE7
:104FD0003E20543C74726176656C5F616363656CFE
:104FE0003E0A00204500205A0020590020204D3262
:104FF00030312058004D6178696D756D20416363D3
:10500000656C65726174696F6E2028756E69747362
:105010002F7332293A0A00204500205A00205900F7
:1050200020204D3230332058004D6178696D756D08
:10503000206665656472617465732028756E697495
:10504000732F73293A0A00204500205A0020590086
:1050500020204D39322058005374657073207065DC
:105060007220756E69743A0A0020204D323030206B
:1050700044300A0020204D32303020440020446962
:105080007361626C65640A0046696C616D656E747B
:105090002073657474696E67733A0020204D313453
:1050A000392043203B20556E69747320696E20437C
:1050B000656C736975730A00202047323120202007
:1050C000203B20556E69747320696E206D6D0A0057
:1050D000476C6F62616C2073657474696E67733AB4
:1050E0000A00FFE0FFD11000FFFEFFD0FFE0FFC18C
:1050F000FFD1E240A0C8A6A22FF800238127AC0070
:10510000AFFF64A5FF64FF64A4FFD0FFFE00002191
:1051100000240027002A002D003000330001010088
:1051200000040107010A0102000000000000000065
:10513000000000000000000000000000000000006F
:10514000618000000000000000000000000000007E
:105150007DF00000000000000000000000000000E2
:105160007FFC0000000000000000000000000000C4
:105170007FFE0000000000000000000000000000B2
:105180007FFF800000000000000000000000000021
:105190007FFFC000000000000000000000000000D1
:1051A0007FFFC000000000000000000000000000C1
:1051B0007FFFE00000000000000000000000000091
:1051C0007FFFE00000000000000000000000000081
:1051D0007FFFE00000000000000000000000000071
:1051E0007FFFE00000000000000000000000000061
:1051F0007FFFE00000000000000000000000000051
:105200007FFFE00000000000000000000000000040
:105210007FFFE00000000000000000000000000030
:105220007FFFC00000000000000000000000000040
:105230007FFFC00000000000000000000000000030
:105240007FFF800000000000000000000000000060
:105250007FFE0000000000000000000000000000D1
:105260007FFC0000000000000000000000000000C3
:105270007DF00000000000000000000000000FFFB3
:105280009CE0000000000000000000000003FFFFA1
:105290009CE000000000000000000000000FFFFF85
:1052A0009CE600000000000000000000001FFFFF5F
:1052B0009CE700000000000000000000007FFFFFEE
:1052C0009CE70000000000000000000000FFFFFF5E
:1052D0009CE70000000000000000000001FFFFFF4D
:1052E0009CE72000000000000000000003F803FF1E
:1052F0009CE73000000000000000000003F000FF09
:105300009CE7300000000000000000000F80007FDC
:105310009CE73C0000000000000000000F00001FA0
:105320009CE73C0000000000000000000F00000FA0
:105330009CE73E0000000000000000000E00000F8F
:105340009CE73E0000000000000000001E00000F6F
:105350009CE73E0000000000000000001E700007F7
:105360009CE73E0000000000000000001EF800075F
:105370009CE73FFC00000000000000001EF8000752
:105380009CE73FFC00000000000000001E700007CA
:105390009CE73E0000000000000000001E00000F1F
:1053A0009CE73E0000000000000000000E00000F1F
:1053B0009CE73E0000000000000000000F00000F0E
:1053C0009CE73E0000000000000000000F80001F6E
:1053D0009CE73C0000000000000000000FE0007FA0
:1053E0009CE73C00000000000000000003F000FF0C
:1053F0009CE73000000000000000000001FC03FFFB
:105400009CE73000000000000000000001FFFFFFEB
:105410009CE72000000000000000000000FFFFFFEC
:105420009CE700000000000000000000007FFFFF7C
:105430009CE700000000000000000000001FFFFFCC
:105440009CE700000000000000000000000FFFFFCC
:105450009CE6000000000000000000000000FFFFCC
:105460009CE00000000000000000000000000000C0
:10547000000000000000000000000000000000002C
:10548000000000000000000000000000000000001C
:10549000000000000000000000000000000000000C
:1054A00000000000000000000000000000000000FC
:1054B0000000000000000000000003CFBE8BEF22C0
:1054C00073CF88FA8BE0000000000228208A08943D
:1054D0008A2814228A00000000000228208A0888F6
:1054E000822822228A000000000003CF3C8BCF08D4
:1054F00083CF22228B80000000000228208A0A0825
:1055000082883E228A0000000000022820520908FA
:105510008A48222252000000000003CFBE23E88800
:10552000722FA22223E0000001FFFFFFFFFFFFFF19
:10553000FFFFFFFFFFFF0FFFFFFFFFFFFFFFFFFF6B
:10554000FFFFFFFF1E00000000000000000000073A
:10555000FFFF380000000000000000000003FFFF14
:10556000700000000000000000000001FFFF60006C
:1055700000000000000000000000FFFF60000000CD
:1055800000000000000000007FFFC00000000000DD
:105590000000007800003FFFC00FC0FC00000000CA
:1055A000007818001FFFC03FE1FF000000000078F6
:1055B0003C000FFFC07FF3FF8000000000783C003C
:1055C00007FFC0FFFFFFC000000000783C0003FFA2
:1055D000C1F87F87E00000000078000001FFC1F003
:1055E0003F03E00000000078000000FFC1E01E0162
:1055F000E01F0003E0783C03F07FC1E01E01E07F84
:10560000C00FF8783C07FC3FC1E01E01E1FFE01F3E
:10561000FC783C0FFE1FC1E01E01E3FFF03FFE7867
:105620003C1FFE0FC1E01E01E3F3F83F3E783C3F14
:105630003F07C1E01E01E7E0FC7C1F783C3E1F07EE
:10564000C1E01E01E7C07C7C0F783C3C0F03C1E049
:105650001E01E7807C780F783C3C0F03C1E01E01FF
:10566000E7803C7800783C3C0F03C1E01E01E780F6
:105670003C7800783C3C0F03C1E01E01E7803C7899
:1056800000783C3C0F03C1E01E01E7C03C78007885
:105690003C3C0F03C1E01E01E3E03C78007C3C3C55
:1056A0000F03C1E01E01E3FF3FF8007FBC3C0F0386
:1056B000C1E01E01E1FF3FF8003FBFFC0F03C1E066
:1056C0001E01E0FF3FF8001FBFFC0F03C1E01E01F9
:1056D000E07F3FF8000FBFFC0F03600000000000F8
:1056E0000000000000000007600000000000000053
:1056F0000000000000067000000000000000000034
:105700000000000E38000000000000000000000053
:10571000001C1E00000000000000000000000078D7
:105720000FFFFFFFFFFFFFFFFFFFFFFFFFF001FF86
:10573000FFFFFFFFFFFFFFFFFFFFFF802020506CF8
:10574000616E6E65724275666665724279746573E4
:105750003A20002046726565204D656D6F72793A7A
:105760002000312E312E382042564320320A004D7F
:1057700061726C696E0020536F6674776172652088
:1057800052657365740A00205761746368646F67BB
:105790002052657365740A002042726F776E206F25
:1057A00075742052657365740A00204578746572BB
:1057B0006E616C2052657365740A00506F77657274
:1057C00055700A0073746172740A00456E647374D4
:1057D0006F707320256320256320256320256300D7
:1057E000000020002300260029002C002F0032009A
:1057F000000100000301060109010000220025004C
:1058000028002B002E0031003400020100000501A9
:1058100008010B010505050507050808080802022F
:1058200002020A0A0808040404040101010101013A
:1058300001010303030303030303040707070C0C1D
:105840000C0C0C0C0C0C02020202060606060606E4
:1058500006060B0B0B0B0B0B0B0B01021020200889
:1058600008102040102040800201020108040201BB
:10587000010204081020408080402010080402012A
:105880008004020180402010080402010804020183
:10589000010204081020408001020408102040800A
:1058A00000000A0B02090C0D0E080703040100009A
:1058B00000000000000000000000000000000000E8
:1058C00000000000000000000000000012111000A5
:1058D00000000000000000000000000000000000C8
:1058E00000000000000050726F62696E6720666100
:1058F000696C65640A0050726F62696E6720666148
:10590000696C656400205A3A200020593A20004210
:10591000656420583A20002066697273740A005A40
:105920000059005800486F6D6520000000A042003B
:1059300000A0420000004100000000577269746935
:105940006E6720746F2066696C653A20006F706521
:105950006E206661696C65642C2046696C653A202E
:10596000006F70656E206661696C65642C20466905
:105970006C653A200046696C652073656C656374DC
:1059800065640A002053697A653A200046696C65AF
:10599000206F70656E65643A20006F70656E2066DA
:1059A00061696C65642C2046696C653A200020664C
:1059B000696C653A2000646F696E67006672657392
:1059C00068004E6F772000454E4420535542524F99
:1059D0005554494E450A002220706F7300222070F2
:1059E0006172656E743A2200535542524F555449C4
:1059F0004E452043414C4C207461726765743A22D5
:105A0000004B494C4C45442E2000747279696E67F6
:105A100020746F2063616C6C207375622D67636FF7
:105A200064652066696C6573207769746820746F9B
:105A30006F206D616E79206C6576656C732E204DDC
:105A40004158206C6576656C2069733A0043616E3D
:105A50006E6F74206F70656E20737562646972205A
:105A60000053442063617264206F6B0A006F70659D
:105A70006E526F6F74206661696C65640A00766FA0
:105A80006C756D652E696E6974206661696C6564FC
:105A90000A004572726F723A00534420696E69744D
:105AA000206661696C0A006175746F25692E670054
:105AB0004D3234004D323320257300656E717565AB
:105AC0007565696E6720220048656174696E67209C
:105AD0006661696C65640048656174696E6720661B
