:100000000C94C12E0C94F22E0C94F22E0C94F22E21
:100010000C94F22E0C94F22E0C94F22E0C94F22EE0
:100020000C94F22E0D945A630C94F22E0C94F22E32
:100030000C94F22E0D9447910C94F22E0C94F22E07
:100040000C94F22E0D94C8230C94F22E0C94F22EE4
:100050000C94F22E0C94F22E0D94931F0D94569A3C
:100060000C94F22E0C94E9580C94F22E0C94F22E6F
:100070000C94F22E0C94F22E0C94F22E0C94F22E80
:100080000D94E02D0C94F22E0C94F22E0C94F22E82
:100090000C94F22E0C94F22E0C94F22E0C94F22E60
:1000A0000C94F22E0C94F22E0D94B22D0C94F22E90
:1000B0000C94F22E0C94F22E0C94F22E0D94842DAE
:1000C0000C94F22E0C94F22E0C94F22E0C94F22E30
:1000D0000C94F22E0C94F22E0C94F22E0C94F22E20
:1000E0000C94F22E084AD73B3BCE016E84BCBFFD78
:1000F000C12F3D6C74319ABD56833DDA3D00C77FF8
:1001000011BED9E4BB4C3E916BAAAABE0000008090
:100110003F05A84CCDB2D44EB93836A9020C50B91F
:10012000918688083CA6AAAA2ABE000000803F004B
:100130000C94F1AC0C94019A0D946A930D94B75FF2
:100140000C9405950D94975F0C9479AD0D94C70BA5
:100150000C94D2AB0C945E940D94C75F0D94A75F82
:100160000C9455D40C94E0970C94B9B00C94D3989B
:100170000C945D950D94F0930C94EF8C0D94761483
:100180000C940CAE0C94DC920D941A830D94C7ADB4
:100190000C9454F10D943D610D94FA060D94C939F7
:1001A0000C9457E50C947CAD0C9477C40C9431CA34
:1001B0000C9456C90C948BAD0D9417610C9435D0EA
:1001C0000C94BBAB0C94B8AC0C94638D0C94FCCB2E
:1001D0000C94E8990C9401DE0C9443E90D945F169D
:1001E0000D94DD830C942C8D0D94E6930C94B18CBE
:1001F0000C94DDAD0C945BAD0C940BAC0C9428B15D
:100200000C945FE90C948DF00D947F080D94D82127
:100210000D94291D0D9414840C94FCAE0C94918DB6
:100220000D94A4210C94128D0C9452E50D94B610EB
:100230000C94CEAD0C94BA940C94FE900C943DB2F8
:100240000C944B950D9404940C946C8C0D94FC833D
:100250000D949D930D948B930C9410CB0C94F59866
:100260000C949A940C94E8920D9487610D94B105C6
:100270000D9418840C9443900C94CC8C0D94FE60D7
:100280000C94EFD10D94575F0C94A0980C94E0F46B
:100290000C9447E50D9413B20C945A930C9426E6F3
:1002A0000C9415300C9416300C94E9AB0C9410B1EE
:1002B0000D9439200C94548D0C94BBAD0D940E8488
:1002C0000D9481930C94B0C30C9425950D943E0A23
:1002D0000D94B9930D9436390C9477BC0C94C59158
:1002E0000C946DE90C9462EB0C9470E90D94020887
:1002F0000D9462350D944D620D9408930D94C3B125
:100300000C946F950C946A8D0D941C610C94EE996D
:100310000D9488060C946E8D0D94B3AE0C94FA99DE
:100320000C94E6920C94E4C70D94D1600D94D858C7
:100330000C944B970C9445900D94C3610C94469E7D
:100340000C94DFAC0C94EEAE0C94B12F0D9488831A
:100350000D94875F0C94DF990D94675F0C94F4996A
:100360000C94B1980D94C3930D94A5930C9435B14E
:100370000C949DAB0C9481C60D9472930C942FA693
:100380000D9414930C94D9CE0C940CE30C94C88C5B
:100390000D94BF210D94A70A0D94FD0A0D94398583
:1003A0000D94E8830C9497AB0C94BA950C94BA8E88
:1003B0000C9442970C945FE50D94E5610C9412E364
:1003C0000C9407980C943EBB0C943FAF0C94C22F36
:1003D0000C9494B10C94838C0C94898D0D947804B6
:1003E0000D94AB920C9439900D9419830C943F9713
:1003F0000D94D3830D9405B20C9474B30D9424938F
:100400000C94B7970C94DBAE0D94F70E0D94D55F5A
:100410000D9403020D9477930C943CE50C94C8AEB4
:100420000C9431300C9413970C94F1990D94EE8345
:100430000C9477950C9485B00D94C6920C94588DBD
:100440000C94E4980D9403620C945F8D0D946C6190
:100450000C943C970C949DAD0C94DBDF0C9445FC04
:100460000C9452970C946BEF0C94CC990C946AAD4D
:100470000C946B8C0C94DFAF0D94D3210C94D69913
:100480000D943C030C94A0AB0D94BDB10C9402BA36
:100490000C94C1990C9495B80D9465620D94FA93DF
:1004A0000C9406990D94DC930C9405AB0D94556057
:1004B0000D9406840D942F930D94C70D0C944CA2AB
:1004C0000C9406D60D940CB20D94E1830D9474092E
:1004D0000C941BF20C9406E30C94D8B40C94AFFF6C
:1004E0000D94B0210C9428940C947F950D94CA001F
:1004F0000C94E5940C94D1950D94D20A0C945A9FC7
:100500000D9403930C9444970C949AAD0C94A3AC63
:100510000D9445160C9451950D9495930C9415AF2C
:100520000C94D3BD0C94FCEF0C9497C00D943A142A
:100530000C94B1E70C940FF60C94EB990C9400E337
:100540000D940A840C9458AD0C947A940C945DE547
:100550000C9451E90C949A8C0D945B610C94ACADA5
:100560000C94CDAC0D94D5610D94E5830C9449B6F3
:100570000D943B390D9400840D948F070D947E618A
:100580000C94C5970D94C4210D942C0C0C9475AC4F
:100590000C9435E90C948D8D0D941A930D94F88379
:1005A0000D944C610D94495F0D941F620C9449F9B0
:1005B0000D94775F0C9498F70C94BBAC0C9432E5D7
:1005C0000D94F2830D9449090C9445950C94E2AC7A
:1005D0000D94AF930C94D1CE0C9484970C94CBECE7
:1005E0000D94DF600C9495F60C94DAEE0C94C2989E
:1005F0000D942C1D0D94D2930C9420B10D94D9839D
:100600000C94D2970C94F7990D9482610D941384F5
:100610004E414E494E495459494E46CDCCCC3D0AE7
:10062000D7233C17B7D13877CC2B329595E6241FCA
:10063000B14F0A000020410000C84200401C462083
:10064000BCBE4CCA1B0E5AAEC59D74434F4D4D5592
:100650004E49434154494F4E0044525952554E0061
:100660004552524F525300494E464F004543484F62
:10067000004572726F722077726974696E672074B8
:100680006F20454550524F4D210A005365747469DF
:100690006E6720657874727564657220544D4320CE
:1006A0006173206E6F6E205350490A005365747455
:1006B000696E6720616C6C20544D43206173205338
:1006C00050492E0A004B494C4C45442E20005354AF
:1006D0004F505045442E20005072696E7465722050
:1006E00073746F707065642064756520746F206525
:1006F00072726F72732E2046697820746865206567
:1007000072726F7220616E6420757365204D393985
:100710003920746F20726573746172742E202854AE
:10072000656D70657261747572652069732072659C
:100730007365742E20536574206974206166746536
:10074000722072657374617274696E67290A004E53
:100750006F20436865636B73756D207769746820DB
:100760006C696E65206E756D6265722C204C6173CC
:1007700074204C696E653A2000636865636B73751D
:100780006D206D69736D617463682C204C617374A6
:10079000204C696E653A20004C696E65204E756D7F
:1007A000626572206973206E6F74204C61737420CF
:1007B0004C696E65204E756D6265722B312C204C34
:1007C000617374204C696E653A20004D3131300000
:1007D0004D33310053442072656164206572726F3D
:1007E000720A00446F6E65207072696E74696E677C
:1007F0002066696C650A0020496E76616C69642028
:1008000065787472756465722000000080C1000014
:1008100088C1000000000000994300005E43000012
:10082000964342696C696E656172204C6576656CB1
:10083000696E6720477269643A0A00537562646999
:1008400076696465642077697468204341544D5526
:100850004C4C20524F4D204C6576656C696E67207C
:10086000477269643A0A005761726E696E673A208E
:10087000486F6D696E672042756D702044697669B6
:10088000736F72203C20310A000404040000000051
:10089000000000000000803F0000A14300006F4303
:1008A00000009643473238205A20466F72626964CE
:1008B00064656E0A00473238205A20466F726269BA
:1008C0006464656E0020706F736974696F6E206F69
:1008D0007574206F662072616E67652E0A003F5046
:1008E000726F626520004C6576656C696E67206D7D
:1008F00065736820616674657220636F72726563E8
:1009000074696F6E0A000A46726F6E7420726967AE
:1009100068743A000A4261636B20726967687420E8
:100920003A000A4261636B206C65667420203A00CD
:100930000A46726F6E74206C656674203A004C65CE
:1009400076656C696E67206D657368206265666F99
:10095000726520636F7272656374696F6E0A00203E
:100960002844525952554E29004732392041757456
:100970006F20426564204C6576656C696E6700285F
:10098000422961636B00284629726F6E74002852F9
:10099000296967687400284C29656674003F2856E9
:1009A000296572626F7365206C6576656C2069736A
:1009B00020696D706C61757369626C652028302DDB
:1009C00034292E0A00426164205A2076616C7565D4
:1009D0000A004E6F2062696C696E656172206772F1
:1009E00069640A00526573756D696E67207072697B
:1009F0006E74004232583330302072656164792E53
:100A000000436C69636B20746F20726573756D654C
:100A10002E2E2E0044656C6574696F6E20666169C8
:100A20006C65642C2046696C653A200046696C65EB
:100A30002064656C657465643A006F70656E20664D
:100A400061696C65642C2046696C653A200020570A
:100A50003A004232583330302072656164792E009A
:100A600020573A00205A3A0020593A0020436F7527
:100A70006E7420583A0020453A00205A3A00205916
:100A80003A00583A003A004361703A00205A002078
:100A90005900580020204D61783A2000205A00204B
:100AA0005900580020204D696E3A20004F6E2000FA
:100AB0004F666600536F667420656E6473746F7062
:100AC000733A200020643A0020693A0020703A000E
:100AD00020653A004B64200023646566696E6520DA
:100AE0002044454641554C545F004B692000236427
:100AF0006566696E65202044454641554C545F004B
:100B00004B70200023646566696E6520204445466D
:100B100041554C545F00504944206175746F7475A1
:100B20006E652066696E697368656421205075740E
:100B300020746865206C617374204B702C204B69A5
:100B400020616E64204B6420636F6E7374616E74F9
:100B5000732066726F6D2062656C6F7720696E74AA
:100B60006F20436F6E66696775726174696F6E2E70
:100B7000680A00504944206175746F74756E652071
:100B80006661696C6564212074696D656F75740AAE
:100B900000544845524D414C2052554E4157415901
:100BA00000546865726D616C2052756E6177617971
:100BB0000048656174696E67206661696C656400F0
:100BC00048656174696E67206661696C6564005090
:100BD0004944206175746F74756E65206661696C37
:100BE0006564212054656D7065726174757265204D
:100BF000746F6F20686967680A00204B643A2000B0
:100C0000204B693A2000204B703A20000A20436CA8
:100C1000617373696320504944200A002054753A77
:100C20002000204B753A2000206D61783A2000208A
:100C30006D696E3A200020643A2000206269617379
:100C40003A20004D65736820706F696E742063618F
:100C50006E6E6F74206265207265736F6C7665646A
:100C60000A004D34323120696E636F7272656374AD
:100C700020706172616D657465722075736167655E
:100C80000A004F666673657473206170706C6965E5
:100C900064004572723A20546F6F206661722100C1
:100CA000546F6F206661722066726F6D2072656688
:100CB0006572656E636520706F696E740A004661C7
:100CC0006C73652045322066696C616D656E7420B9
:100CD00072756E6F75742064657465637465640AFB
:100CE0000046616C73652066696C616D656E742089
:100CF00072756E6F75742064657465637465642EB7
:100D000020496E2073746172742047636F64650AB2
:100D1000004175746F0020452F443D0041647661A9
:100D20006E6365204B3D00617869733A70776D5F43
:100D30007363616C65207C7374617475735F726535
:100D400073706F6E73657C0A0044726976657220F9
:100D50007265676973746572733A0A006F7409008B
:100D60006F747077090073326761090073326762CC
:100D700009006F6C6109006F6C6209007374737411
:100D800009006673616374697665090053475F7291
:100D90006573756C740053475F56616C75650073BD
:100DA00074616C6C677561726409000A4452565331
:100DB00054415455530053472074687273002D7387
:100DC0007461727409006879737465726973697308
:100DD0000A2D656E640900626C616E6B2074696D2A
:100DE00065006F66662074696D65004F54207072EF
:100DF000657761726E2054004F5420707265776180
:100E0000726E006D73746570730900737465616C44
:100E1000746843686F70007673656E73650900507F
:100E2000574D207363616C6500524D53206375729A
:100E300072656E74005365742063757272656E74AA
:100E400000456E61626C6564090009000A45312045
:100E50006973206E6F77207573696E672073746590
:100E6000616C746843686F700A000A4531206973C9
:100E7000206E6F77207573696E672073707265617D
:100E8000644379636C650A000A4530206973206EFB
:100E90006F77207573696E67207370726561644344
:100EA00079636C650A000A4530206973206E6F779C
:100EB000207573696E6720737465616C746843682C
:100EC0006F700A000A5A2061786973206973206E76
:100ED0006F77207573696E67207370726561644304
:100EE00079636C650A000A5A206178697320697316
:100EF000206E6F77207573696E6720737465616CFF
:100F0000746843686F700A000A5920617869732019
:100F10006973206E6F77207573696E6720737072C6
:100F20006561644379636C650A000A5920617869D8
:100F300073206973206E6F77207573696E672073F5
:100F40007465616C746843686F700A000A582061A8
:100F5000786973206973206E6F77207573696E6787
:100F6000207370726561644379636C650A000A5886
:100F70002061786973206973206E6F7720757369BB
:100F80006E6720737465616C746843686F700A00E3
:100F90000A45312061786973207374616C6C477500
:100FA00061726432207374657073206C6F73733A6E
:100FB000000A45312061786973207374616C6C4755
:100FC0007561726432207472696767657265642046
:100FD0003A000A45312061786973207374616C6C42
:100FE0004775617264322076616C7565202020201F
:100FF000203A000A45302061786973207374616C6F
:101000006C477561726432207374657073206C6F05
:1010100073733A000A4530206178697320737461F4
:101020006C6C4775617264322074726967676572AF
:101030006564203A000A4530206178697320737432
:10104000616C6C4775617264322076616C756520E5
:10105000202020203A000A5A206178697320737496
:10106000616C6C47756172643220737465707320B3
:101070006C6F73733A000A5A206178697320737435
:10108000616C6C4775617264322074726967676560
:10109000726564203A000A5A20617869732073747B
:1010A000616C6C4775617264322076616C75652085
:1010B000202020203A000A59206178697320737437
:1010C000616C6C4775617264322073746570732053
:1010D0006C6F73733A000A592061786973207374D6
:1010E000616C6C4775617264322074726967676500
:1010F000726564203A000A5920617869732073741C
:10110000616C6C4775617264322076616C75652024
:10111000202020203A000A582061786973207374D7
:10112000616C6C4775617264322066696C746572BB
:101130002069732064656163746976617465640A0B
:10114000000A582061786973207374616C6C47756C
:10115000617264322066696C746572206973206103
:1011600063746976617465640A000A59206178695C
:10117000732073656E736F726C65737320686F6D27
:10118000696E672063616C6962726174696F6E2059
:10119000203A000A5820617869732073656E736F76
:1011A000726C65737320686F6D696E672063616C24
:1011B0006962726174696F6E20203A005072696EC4
:1011C0007420736176656421005A2076616C7565C0
:1011D000206166746572206C696674203A20005341
:1011E0007461727475702077697A617264207365B6
:1011F00074207570210A00537461727475702077C1
:10120000697A6172642064697361626C6564210A41
:1012100000537461727475702077697A617264200A
:101220007769746820454550524F4D207761726E42
:10123000696E6720616374697665210A00206465C0
:10124000677265657320636C6F636B776973652183
:101250000020746F20636F727265637420726F7404
:1012600061746520003A003A2D2D2D207265666567
:1012700072656E636520706F696E740A00506F69E5
:101280006E742000496E76616C69642073657269C2
:10129000616C206E756D626572203A200050726933
:1012A0006E74657220534E3A20005072696E7465F8
:1012B0007220534E3A200047322F47332062616438
:1012C00020706172616D65746572730A00536C659C
:1012D00065702E2E2E00205A3A200020593A200008
:1012E00042656420583A20004D65736820706F692C
:1012F0006E742063616E6E6F742062652072657318
:101300006F6C7665640A004E6F206D6F76652E00F7
:10131000456E642066696C65206C6973740A0042CE
:101320006567696E2066696C65206C6973740A0074
:101330004D313235005344207072696E74696E67A6
:10134000206279746520004E6F74205344207072BF
:10135000696E74696E670A0020737472696E673A09
:101360002022002569730025696D202569730025F9
:1013700069682025696D2025697300256964202529
:1013800069682025696D2025697300256979202504
:101390006964202569682025696D202569730050DE
:1013A00072696E742074696D653A200050726F74B2
:1013B00065637465642050696E0A004232583330A8
:1013C000302072656164792E006F6666006C066776
:1013D00006600659064B0644454255473A004B49BC
:1013E0004C4C45442E20004D3131332053006F6B5F
:1013F00000423258333030204F66662E00454D454E
:101400005247454E43595F50415253455200434164
:1014100053455F4C494748545F4252494748544EF0
:1014200045535300544F47474C455F4C4947485438
:101430005300534F4654574152455F504F57455202
:10144000004255494C445F50455243454E54004C70
:101450004556454C494E475F44415441005A5F5000
:10146000524F4245004155544F4C4556454C005053
:1014700052494E545F4A4F420050524F47524553D3
:1014800053004155544F5245504F52545F54454DAF
:101490005000564F4C554D45545249430045455018
:1014A000524F4D0053455249414C5F584F4E5F5883
:1014B0004F4646004649524D574152455F4E414DB9
:1014C000453A4D61726C696E20312E312E382042C2
:1014D0005643203220284769746875622920534F8B
:1014E000555243455F434F44455F55524C3A6874EB
:1014F0007470733A2F2F6769746875622E636F6D0D
:101500002F4D61726C696E4669726D776172652FDD
:101510004D61726C696E2050524F544F434F4C5F77
:1015200056455253494F4E3A312E30204D41434893
:10153000494E455F545950453A4232583330302075
:1015400045585452554445525F434F554E543A32D4
:1015500020555549443A63656465326132662D34DD
:101560003161322D343734382D396231322D6335C3
:10157000356336326633363766660A002F2F200011
:101580004D31343520533C696E6465783E206F756B
:1015900074206F662072616E67652028302D3129B6
:1015A0000A0053657474696E672054726176656CC5
:1015B00020416363656C65726174696F6E3A2000E7
:1015C00053657474696E6720526574726163742028
:1015D000416363656C65726174696F6E3A20005394
:1015E000657474696E67205072696E74204163631C
:1015F000656C65726174696F6E3A2000536574742E
:10160000696E67205072696E7420616E6420547236
:101610006176656C20416363656C65726174696FA6
:101620006E3A2000486F74656E64206F666673655D
:1016300074733A000001363726FF033C3D38FF0F34
:101640002E303E12FFFF0C0809FFFFFF1A1C18FF87
:10165000FF24221EFFFF08440AFF4307FF45FFFF48
:10166000FFFFFFFF3A200020536572766F200020B5
:101670006F7574206F662072616E67650A0053652E
:1016800072766F200050726F6265205A204F666636
:101690007365743A200020643A0020693A00207093
:1016A0003A006C636420636F6E74726173742076A9
:1016B000616C75653A200043290A0061626C6564BB
:1016C00020286D696E2074656D702000436F6C6416
:1016D00020657874727564657320617265200042BC
:1016E0006564204C6576656C696E672000466169AB
:1016F0006C656420746F20656E61626C6520426564
:1017000064204C6576656C696E670A003A2000209B
:101710007A5F6D696E3A20202D3138207A5F6D61D5
:10172000783A20202D330A0050726F6265205A20CB
:101730004F6666736574004E6F2063617365206C3D
:10174000696768740A00556E6B6E6F776E20636F01
:101750006D6D616E643A202200506C656173652086
:10176000776169742E005374617475733A206D6FDC
:1017700076696E6700090009004368616E6765203D
:1017800066696C616D656E7400473120583134367E
:1017900020593539205A353020463830303000470E
:1017A00031205A353020463330303000473238004F
:1017B00045786974004D616E75616C20457874726E
:1017C0007573696F6E004175746F20556E6C6F6133
:1017D00064004175746F204C6F6164004261636BFB
:1017E00000435045202020202020202020202020A1
:1017F0003238300943005043202020202020202070
:1018000020202020203236300943004142532F410E
:101810005341202020202020202032343009430052
:101820005450552F464C455820202020202020324F
:101830003335094300504554472F4E594C4F4E20E5
:1018400020202020323330094300504C41202020FA
:101850002020202020202020203231300943004247
:1018600061636B004865617465722074696D656FB2
:10187000757420732E004865617465722074696DFB
:10188000656F757420732E00457874727564657287
:1018900020320045787472756465722031004261AF
:1018A000636B00466C6F7720453200466C6F772083
:1018B000453200466C6F7720453100466C6F7720CB
:1018C000453100466565647261746500466565640E
:1018D000726174650046616E2073706565640046D0
:1018E000616E2073706565640054656D706572612A
:1018F00074757265204265640054656D706572612F
:1019000074757265204265640054656D706572611E
:10191000747572652045320054656D70657261742E
:101920007572652045320054656D7065726174751D
:1019300072652045310054656D7065726174757211
:1019400065204531004E6F7A7A6C6520686569675D
:101950006874004261636B00507265686561742051
:10196000504C4120416C6C00507265686561742078
:10197000504C4120453220456E64005072656865C8
:10198000617420504C412045320050726568656199
:101990007420504C4120453120456E6400507265E2
:1019A0006865617420504C41204265640050726546
:1019B0006865617420504C41204531004261636B81
:1019C00000507265686561742041425320416C6C1F
:1019D0000050726568656174204142532045322091
:1019E000456E640050726568656174204142532001
:1019F000453200507265686561742041425320454C
:101A00003120456E64005072656865617420414202
:101A100053204265640050726568656174204142DC
:101A200053204531004261636B004D6F766520584D
:101A3000004D6F76652059004D6F7665205A004D38
:101A40006F7665205A004D6F76652059004D6F7690
:101A5000652058004261636B00697373756520618E
:101A60006E642074727920616761696E2E007072F5
:101A7000696E7465722C2066697820746865005000
:101A80006C656173652073687574646F776E20741C
:101A9000686500506C6561736520776169742E001C
:101AA000436C69636B20746F20636F6E74696E752D
:101AB000652E005374617475733A20006465746513
:101AC0006374696F6E20626F6172642E200073749C
:101AD000657070657220647269766572732E20007D
:101AE00074657374207468652000546865206D61A6
:101AF0006368696E652077696C6C206E6F77006F24
:101B00006E207468652055736572204D616E756135
:101B10006C2E00224572726F7220436F64657322CF
:101B2000206368617074657200506C656173652C28
:101B300020636865636B2074686500647572696E04
:101B400067207468652073656C662D746573740016
:101B500041206572726F72206F63637572656400F5
:101B6000287363726F6C6C20746F207265616420DF
:101B70006D6F72652900436C69636B20746F20651B
:101B80007869742E004E6F7A7A6C65206865696793
:101B900068743A2000486F6D696E67205A3A204F8A
:101BA0004B00486F6D696E6720593A00486F6D6948
:101BB0006E6720583A00426C6F7765722046616EFE
:101BC0003A204F4B00486561746564206265643A51
:101BD000204F4B00457874727564657220323A204C
:101BE0004F4B00457874727564657220313A204F0E
:101BF0004B00287363726F6C6C20746F2072656188
:101C000064206D6F72652900737563636573736615
:101C1000756C6C792E0053656C662D746573742039
:101C2000636F6D706C6574656400776572652072B2
:101C3000657365742E00757064617465642C20731F
:101C4000657474696E6773004D656D6F727920738A
:101C5000747275637475726520776173004E6F7A64
:101C60007A6C6520686569676874005A20617869D4
:101C70007320746573743A20202D2D2D2D2D004E68
:101C80006F7A7A6C65206865696768743A202D2DD3
:101C90002D2D2D004E6F7A7A6C6520686569676816
:101CA000743A202D2D2D2D2D0050726F632E206340
:101CB0006F64653A204F43303100666F72206D6F5C
:101CC000726520696E666F726D6174696F6E2E0049
:101CD0006F6E207468652055736572204D616E7556
:101CE000616C2000224F7468657220436F646573D5
:101CF00022206368617074657200506C6561736561
:101D00002C20636865636B20746865006E6F7220B9
:101D1000636F6D706C6574656C7920737475636B3B
:101D2000007061706572206973206E656974686502
:101D3000722066726565002E2041646A7573742096
:101D4000756E74696C207468652000616E6420741F
:101D50006865207072696E74207375726661636560
:101D6000006265747765656E20746865206E6F7AB1
:101D70007A6C652000506C61636520612070617031
:101D800065722073686565742000287363726F6CD8
:101D90006C20746F2072656164206D6F726529001C
:101DA0004C4344206B6E6F622E00686569676874EF
:101DB000206279207475726E696E672074686500A0
:101DC000506C656173652C2061646A75737420744E
:101DD0006865205A00706F736974696F6E004D6F8B
:101DE00076696E6720746F2063616C6962726174DA
:101DF000696F6E004C6576656C696E6720646F6E06
:101E000065210053656E736F726C6573732D686F17
:101E10006D696E673A2058590053656E736F726C26
:101E20006573732D686F6D696E673A20585900535A
:101E30006572766F206D6F746F723A2020202020BB
:101E4000204E4F4B00536572766F206D6F746F722A
:101E50003A202020202020204F4B005A2061786912
:101E600073206D6F74696F6E3A202020204E4F4BA7
:101E7000005A2061786973206D6F74696F6E3A2023
:101E8000202020204F4B00506F7765726C6F73736A
:101E90003A20202020202020204E4F4B00506F77EA
:101EA00065726C6F73733A20202020202020202040
:101EB0004F4B004532205374657070657220647218
:101EC000697665723A4E4F4B004531205374657008
:101ED000706572206472697665723A4E4F4B005A93
:101EE0002053746570706572206472697665723A09
:101EF000204E4F4B005920537465707065722064FA
:101F000072697665723A204E4F4B005820537465C3
:101F100070706572206472697665723A204E4F4B1C
:101F2000005472696E616D696320647269766572CE
:101F3000733A204F4B2100426C6F776572206661C7
:101F40006E3A2020202020202D2D2D2500426C6F60
:101F50007765722066616E3A2020202020202020A4
:101F60004F4B007072696E74657220736574757082
:101F70002E007468726F7567682074686520696EDA
:101F8000697469616C00492077696C6C20677569B8
:101F9000646520796F7500287363726F6C6C2074B0
:101FA0006F2072656164206D6F7265290073656CC6
:101FB000662D746573742077697A617264210057A5
:101FC000656C636F6D6520746F20746865204232A4
:101FD000583330300053656C662D74657374207708
:101FE000697A61726400202D204E6F00202D2059E7
:101FF00065730064726976657273207570646174CC
:1020000065643F0057657265207468652045787483
:1020100020737465707065720053656C662D74650D
:1020200073742077697A61726400202D204E6F00EE
:10203000202D2059657300202D2052657065617434
:10204000207465737400576173205A206D6F746932
:102050006F6E20736D6F6F74683F0053656C662DF3
:10206000746573742077697A61726400202D204E44
:102070006F00202D20596573004973206C657665CB
:102080006C696E672061726D206F70656E3F0053E2
:10209000656C662D746573742077697A617264006B
:1020A000202D204E6F00202D20596573004973208C
:1020B00074686520626C6F776572206163746976FD
:1020C000653F0053656C662D746573742077697A7B
:1020D00061726400436C69636B20746F2073617676
:1020E000652E2020202020202000537461747573F9
:1020F0003A20706C656173652061646A7573740061
:102100004E6F7A7A6C6520686569676874005365FC
:102110006C662D746573742077697A617264004708
:1021200032382058205900436F6E6669726D004244
:1021300061636B00536176652073657474696E67C3
:102140007300436F6E6669726D004261636B00528B
:10215000657365742073657474696E677300536981
:102160006C656E74206D6F646500537465616C748A
:1021700068206D6F6465004E6F726D616C206D6FCD
:1021800064650052657365742073657474696E6765
:10219000730053746F72652073657474696E67732E
:1021A0000053656C662D746573742077697A61726B
:1021B00064004D6F74696F6E0054656D7065726177
:1021C00074757265004C434420636F6E7472617362
:1021D00074004C434420636F6E7472617374004DDD
:1021E0006F64653A202020202020204E6F726D61A0
:1021F0006C20004D6F64653A202020202020205361
:102200007465616C7468004D6F64653A202020200D
:1022100020202053696C656E7420004261636B005E
:102220004D33303320553120452569205325690031
:102230005049442D44204532005049442D44204506
:1022400032005049442D49204532005049442D491F
:10225000204532005049442D502045320050494419
:102260002D50204532005049442D44204531005026
:1022700049442D44204531005049442D49204531E1
:10228000005049442D49204531005049442D5020EB
:102290004531005049442D502045310050494420DB
:1022A0006175746F74756E65204532005049442025
:1022B0006175746F74756E65204532005049442015
:1022C0006175746F74756E65204531005049442006
:1022D0006175746F74756E6520453100436F6F6C66
:1022E000646F776E00507265686561742041425377
:1022F000005072656865617420504C410042616312
:102300006B00416476616E63656420736574746903
:102310006E67730046616E20737065656400466188
:102320006E2073706565640054656D7065726174CC
:10233000757265204265640054656D7065726174E4
:10234000757265204265640054656D7065726174D4
:102350007572652045320054656D706572617475E3
:1023600072652045320054656D70657261747572D6
:10237000652045310054656D7065726174757265D4
:10238000204531004261636B005654726176206DC6
:10239000696E005654726176206D696E00566D69E3
:1023A0006E00566D696E00566D617820453200569C
:1023B0006D617820453200566D61782045310056B8
:1023C0006D617820453100566D6178204500566D6D
:1023D0006178204500566D6178205A00566D61780D
:1023E000205A00566D6178205900566D6178205949
:1023F00000566D6178205800566D61782058004273
:1024000061636B00416D617820453200416D6178F8
:1024100020453200416D617820453100416D617881
:1024200020453100416D6178204500416D61782083
:102430004500416D6178205A00416D6178205A0055
:10244000416D6178205900416D6178205900416DDE
:102450006178205800416D6178205800412D7472D8
:102460006176656C00412D74726176656C00412D5A
:102470007265747261637400412D72657472616378
:102480007400416363656C00416363656C00426185
:10249000636B0056652D6A65726B0056652D6A6523
:1024A000726B00567A2D6A65726B00567A2D6A65DA
:1024B000726B0056792D6A65726B0056792D6A65CC
:1024C000726B0056782D6A65726B0056782D6A65BE
:1024D000726B004261636B00453173746570732FDA
:1024E0006D6D00453173746570732F6D6D004530EF
:1024F00073746570732F6D6D004530737465707300
:102500002F6D6D004573746570732F6D6D0045738D
:10251000746570732F6D6D005A73746570732F6DD1
:102520006D005A73746570732F6D6D005973746507
:1025300070732F6D6D005973746570732F6D6D001E
:102540005873746570732F6D6D0058737465707374
:102550002F6D6D004261636B004F6666736574207A
:1025600059004F6666736574205800436C69636B4D
:1025700020746F20736176652E202020202020207B
:10258000005374617475733A20706C6561736520D3
:1025900061646A757374004F666673657420585978
:1025A000004F66667365742059004F6666736574E4
:1025B0002058004261636B004F6666736574005378
:1025C000746570732F6D6D004A65726B00416363B3
:1025D000656C65726174696F6E00466565647261F1
:1025E0007465005472696E616D69632073657474FB
:1025F000696E6773004261636B00450045005A00D5
:102600005A0059005900580058004261636B00415C
:1026100075746F2061646A757374005465737420F7
:102620005920686F6D696E670047323820590A4734
:10263000323820590A47323820590A47323820594F
:102640000A473238205900592063616C696272610F
:1026500074696F6E00592063616C6962726174699C
:102660006F6E0054657374205820686F6D696E67D3
:102670000047323820580A47323820580A47323843
:1026800020580A47323820580A4732382058005814
:102690002063616C6962726174696F6E00582063B7
:1026A000616C6962726174696F6E004261636B0094
:1026B00045207468726573686F6C640045207468A7
:1026C000726573686F6C6400592074687265736812
:1026D0006F6C640059207468726573686F6C640075
:1026E00058207468726573686F6C64005820746851
:1026F000726573686F6C64004261636B00453220E1
:102700006E6F6E20535049004F6666004F6E20007A
:102710004531206E6F6E20535049004F6E20004FA0
:102720006666004F6E20005A206E6F6E205350492F
:10273000004F6666004261636B00526573657420EA
:1027400064656661756C74004E6F6E20535049204D
:10275000544D4320647269766572005374616C6CE9
:102760006775617264322073657474696E67730093
:1027700053656E736F726C65737320686F6D696EED
:102780006700537465707065722063757272656E50
:1027900074004261636B0043616E6E6F7420656EFE
:1027A000746572207375626469723A20004D373126
:1027B0003200022E2E004261636B0020204E6F7AA1
:1027C0007A6C653A20004261636B004D696E696DF9
:1027D000756D2054656D70206973203137302E007F
:1027E00048656174696E67206661696C656400455F
:1027F000787472756465206D6F7265004261636BF9
:1028000020202020202020202020202020202020C8
:1028100004004368616E67652066696C616D656E72
:10282000740046696C616D656E742072756E6F75AB
:102830007400506C6561736520776169742E005374
:1028400074617475733A20726573756D696E670093
:10285000506C6561736520776169742E00537461F3
:102860007475733A20657874727564696E67005088
:102870006C6561736520776169742E0053746174AF
:1028800075733A206C6F6164696E6700616E6420D5
:10289000636C69636B20746F20636F6E74696E750F
:1028A0006500506C656173652C206C6F61642066F7
:1028B000696C616D656E74005374617475733A2050
:1028C00077616974696E6700436C69636B20746F2C
:1028D000207265686561742E005374617475733A73
:1028E000207374616E64627900506C656173652059
:1028F000776169742E005374617475733A2068654A
:102900006174696E6700506C6561736520776169F9
:10291000742E005374617475733A20756E6C6F6118
:1029200064696E6700506C656173652077616974D6
:102930002E005374617475733A206D6F76696E67FB
:102940000009004368616E67652066696C616D65AA
:102950006E740046696C616D656E742072756E6F81
:10296000757400436172642072656D6F76656400F2
:102970004361726420696E736572746564005344C8
:10298000204E4F4B2C207265696E73657274205314
:1029900044210000060900FE0701920321207FFF69
:1029A00007FF07FF000000060000010707060200FE
:1029B00080808080800080030202060105A0A005BF
:1029C00007070600005050F850F85050050707065A
:1029D00000002078A07028F020050707060000C03E
:1029E000C810204098180507070600006090A04016
:1029F000A89068020303060104C04080030707068D
:102A000001002040808080402003070706010080ED
:102A100040202020408005050506000120A870A860
:102A2000200505050600012020F8202002030306EA
:102A300002FFC04080050101060003F80202020601
:102A40000200C0C0050505060001081020408005F1
:102A500007070600007088888888887003070706C3
:102A6000010040C040404040E005070706000070FC
:102A70008808708080F8050707060000F81020100D
:102A80000808F005070706000010305090F81010F5
:102A9000050707060000F880F0080888700507079A
:102AA000060000708080F088887005070706000027
:102AB000F8081020202020050707060000708888ED
:102AC00070888870050707060000708888780808F5
:102AD00070020505060200C0C000C0C0020606065E
:102AE00002FFC0C000C0408004070706000010209D
:102AF0004080402010050303060002F800F8040798
:102B000007060100804020102040800507070600CE
:102B10000070880810200020050707060000708854
:102B20000868A8A870050707060000708888F8885C
:102B30008888050707060000F08888F08888F00577
:102B400007070600007088808080887005070706E8
:102B50000000F08888888888F0050707060000F8DC
:102B60008080F08080F8050707060000F88080F07C
:102B7000808080050707060000708880B88888700C
:102B8000050707060000888888F8888888010707F5
:102B90000602008080808080808005070706000094
:102BA000381010101090600507070600008890A0EC
:102BB000C0A0908805070706000080808080808084
:102BC000F805070706000088D8A8888888880507C0
:102BD000070600008888C8A89888880507070600A7
:102BE0000070888888888870050707060000F088CC
:102BF00088F080808005070706000070888888A814
:102C00009068050707060000F08888F0A090880506
:102C10000707060000788080700808F0050707069F
:102C20000000F8202020202020050707060000884B
:102C30008888888888700507070600008888888843
:102C40008850200507070600008888888888A850D3
:102C50000507070600008888502050888805070768
:102C600006000088888850202020050707060000FD
:102C7000F80810204080F8030707060100E0808074
:102C8000808080E0050505060001804020100803D3
:102C90000707060100E02020202020E005030306AE
:102CA0000004205088050101060000F80202020617
:102CB0000205804005050506000070087888780543
:102CC00007070600008080B0C88888F00505050663
:102CD00000007080808870050707060000080868FB
:102CE000988888780505050600007088F8807005CA
:102CF00007070600003048E0404040400506060651
:102D000000FF70888878087005070706000080803B
:102D1000B0C888888801070706020080008080808C
:102D200080800308080601FF200020202020A0400A
:102D3000040707060000808090A0C0A0900307074A
:102D4000060100C04040404040E005050506000087
:102D5000D0A8A8A8A8050505060000B0C8888888DE
:102D600005050506000070888888700506060600BF
:102D7000FFF08888F080800506060600FF788888C6
:102D8000780808050505060000B0C88080800505A4
:102D90000506000070807008F00407070600004078
:102DA00040E04040403005050506000088888898CE
:102DB0006805050506000088888850200505050679
:102DC00000008888A8A85005050506000088502046
:102DD00050880506060600FF888888780870050573
:102DE00005060000F8102040F80307070601002040
:102DF000404080404020010707060200808080801C
:102E0000808080030707060100804040204040800A
:102E1000050202060002689000000006000000069D
:102E20000900FE000000000001090008FE00000586
:102E3000080806000040F0C888889878100508083F
:102E4000060000C0F88888888888F805050506000F
:102E5000012030F830200508080600002070F82016
:102E6000202020E00509090600FF2070A8A8B888E6
:102E70008870200509090600FFE080C0B0A828304E
:102E800028280509090600FFF8A88888888888A8E6
:102E9000F8050A0A0600FE205050505088A8A8885D
:102EA0007003030306000340A04020746F6F206C82
:102EB0006F6E6720657874727573696F6E207072BB
:102EC0006576656E7465640A0020636F6C642065C6
:102ED0007874727573696F6E2070726576656E7442
:102EE00065640A0024F4D43050C38E20C2A2401777
:102EF000828B7011127A910D816CD90AA861E10858
:102F0000C7586607615143061E4B5D05C145A704BE
:102F10001A411104093D9803713931034036DB022F
:102F200065339102D4305402802E1D02632CEE01D1
:102F3000752AC501B028A001102781018F256401E1
:102F40002B244B01E0223401AC211F018D200D0107
:102F5000801FFC00841EED00971DDF00B81CD2000E
:102F6000E61BC600201BBC00641AB200B219A80000
:102F70000A19A0006A189900D117910040178B0018
:102F8000B516840031167E00B31579003A1573002A
:102F9000C7146F0058146A00EE13660088136300AC
:102FA00025135E00C7125B006C1257001512540007
:102FB000C111510070114F0021114B00D610490072
:102FC0008D1047004610440002104200C00F400020
:102FD000800F3E00420F3C00060F3B00CB0E380036
:102FE000930E37005C0E3500270E3400F30D3200CF
:102FF000C10D3100900D3000600D2E00320D2D00FE
:10300000050D2C00D90C2B00AE0C2900850C2900D5
:103010005C0C2700350C27000E0C2600E80B240062
:10302000C40B2400A00B23007D0B23005A0B2100AE
:10303000390B2100180B2000F80A1F00D90A1E00C6
:10304000BB0A1E009D0A1D00800A1D00630A1C00A9
:10305000470A1B002C0A1B00110A1A00F7091A0064
:10306000DD091900C4091900AB09190092091700FC
:103070007B091800630917004C0916003609160071
:10308000200916000A091500F5081500E0081400CB
:10309000CC081400B8081400A40814009008130009
:1030A0007D0812006B081300580812004608120031
:1030B0003408110023081100120811000108110042
:1030C000F0071000E0071000D0071000C007100044
:1030D000B0070F00A107100091070E0083070F0033
:1030E00074070F0065070E0057070E0049070E0012
:1030F0003B070D002E070E0020070D0013070D00E3
:1031000006070D00F9060C00ED060D00E0060C00A8
:10311000D4060C00C8060C00BC060C00B0060C005F
:10312000A4060B0099060C008D060B0082060B000E
:1031300077060B006C060B0061060A0057060B00B1
:103140004C060A0042060A0038060A002E060A004B
:1031500024060A001A060A001006090007060A00DB
:10316000FD050900F4050900EB050900E205090069
:10317000D9050900D0050900C7050900BE050900E9
:10318000B5050800AD050800A50509009C05080067
:10319000940508008C050800840508007C050800DB
:1031A000740508006C050700650508005D0507004B
:1031B000560508004E0507004705070040050800B2
:1031C00038050700310507002A0507002305070019
:1031D0001C050600160507000F0507000805060078
:1031E00002050700FB040600F5040700EE040600D4
:1031F000E8040600E2040700DB040600D50406002C
:10320000CF040600C9040600C3040600BD0406007E
:10321000B7040600B1040500AC040600A6040600CD
:10322000A00405009B040600950405009004060018
:103230008A04050085040500800406007A04050060
:1032400075040500700405006B04050066040500A4
:10325000610405005C0405005704050052040500E4
:103260004D04050048040500430405003E04040025
:103270003A04050035040500300404002C04050060
:1032800027040400230405001E0404001A0404009B
:1032900016040500110404000D04040009040500CF
:1032A0000404040000040400FC030400F803040008
:1032B000F4030400F0030400EC030400E80304003A
:1032C000E4030400E0030400DC030400D80304006A
:1032D000D4030400D0030400CC030400C80303009B
:1032E000C503030024F404D9201BC40C5C0E98040D
:1032F000C4095F0265077101F405F900FB04B3001E
:1033000048048700C10369005803550003034500C2
:10331000BE023A008402310053022A00290225002D
:1033200004022000E4011C00C8011900AF011700CD
:103330009801140084011300710110006101100054
:1033400051010E0043010D0036010B002B010B0053
:1033500020010B00150109000C0109000301080000
:10336000FB000800F3000800EB000700E400060083
:10337000DE000600D8000600D2000600CC000500E2
:10338000C7000500C2000500BD000400B90004002C
:10339000B5000400B1000400AD000400A900040061
:1033A000A5000300A20003009F0004009B0003008F
:1033B00098000300950002009300030090000300B2
:1033C0008D0002008B0003008800020086000200CE
:1033D00084000300810002007F0002007D000200E3
:1033E0007B000200790002007700010076000200F5
:1033F0007400020072000100710002006F00020000
:103400006D0001006C0002006A000100690002000A
:103410006700010066000100650001006400020011
:103420006200010061000100600001005F00020015
:103430005D0001005C0001005B0001005A0001001A
:10344000590001005800010057000100560001001A
:10345000550001005400010053000000530001001A
:103460005200010051000100500001004F00010016
:103470004E0000004E0001004D0001004C00010014
:103480004B0000004B0001004A0001004900010010
:10349000480000004800010047000100460000000D
:1034A0004600010045000000450001004400010005
:1034B0004300000043000100420000004200010000
:1034C0004100000041000100400001003F000000F9
:1034D0003F0001003E0000003E0001003D000000F2
:1034E0003D0001003C0000003C0000003C000100E9
:1034F0003B0000003B0001003A0000003A000100E0
:1035000039000000390001003800000038000000D8
:1035100038000100370000003700010036000000CD
:1035200036000000360001003500000035000000C4
:1035300035000100340000003400000034000100B8
:1035400033000000330000003300010032000000AF
:1035500032000000320001003100000031000000A4
:103560003100010030000000300000003000010098
:103570002F0000002F0000002F0000002F0001008E
:103580002E0000002E0000002E0001002D00000083
:103590002D0000002D0000002D0001002C00000077
:1035A0002C0000002C0000002C0001002B0000006B
:1035B0002B0000002B0000002B0001002A0000005F
:1035C0002A0000002A0000002A0001002900000053
:1035D0002900000029000000290000002900010046
:1035E000280000002800000028000000280000003B
:1035F000280001002700000027000000270000002D
:10360000270000002700010026000000260000001F
:103610002600000026000000260001002500000012
:103620002500000025000000250000002500000006
:1036300025000100240000002400000024000000F8
:1036400024000000240001002300000023000000EB
:1036500023000000230000002300000023000000DE
:1036600023000100220000002200000022000000D0
:1036700022000000220000002200010021000000C2
:1036800021000000210000002100000021000000B6
:1036900021000000210001002000000020000000A7
:1036A000200000002000000020000000200000009A
:1036B00020000000200001001F0000001F0000008B
:1036C0001F0000001F0000001F0000001F0000007E
:1036D0001F0001001E0000001E0000001E00000070
:1036E0001E0000004D383420582059205A20450033
:1036F0006265640A002C2073797374656D2073749D
:103700006F7070656421204865617465725F49441B
:103710003A200070012C0190012701B0012201C064
:10372000011D01F00118011002130130020E0160A9
:1037300002090190020401C002FF000003FA0040E8
:1037400003F5008003F000D003EB002004E60070D6
:1037500004E100E004DC004005D700C005D20040D1
:1037600006CD00D006C8008007C3003008BE00F0B8
:1037700008B900C009B400B00AAF00B00BAA00D06D
:103780000CA500000EA000500F9B00C0109600502A
:1037900012910000148C00C0158700B0178200B091
:1037A000197D00D01B7800001E730040206E009031
:1037B000226900F024640040275F0090295A00E04D
:1037C0002B5500102E500020304B0010324600E0E8
:1037D00033410090353C001037370070383200A07C
:1037E000392D00B03A2800A03B2300603C1E001099
:1037F0003D1900903D1400103E0F00703E0A00C0BD
:103800003E0500003F0000403FFBFF803FF6FFC049
:103810003FF1FF544845524D414C2052554E4157BF
:10382000415900546865726D616C2052756E617704
:103830006179004572723A204D494E54454D5020F1
:10384000424544004572723A204D494E54454D5010
:10385000004D494E54454D5020747269676765723A
:103860006564004572723A204D415854454D5020D0
:10387000424544004572723A204D415854454D50DE
:10388000004D415854454D50207472696767657208
:10389000656400202F002040002042403A00204074
:1038A0003A00436C69636B20746F207265696E73B4
:1038B00065727420534E00506C6561736520696EAB
:1038C0007365727420534E2E00436C69636B2074D1
:1038D0006F20636F6E74696E75652E00534E3A20CB
:1038E00000636F6E666967757265642E005365725A
:1038F00069616C206E756D626572206973206E6FF0
:10390000770053657269616C206E756D6265722017
:10391000696E76616C69642100666F7220796F75DB
:1039200072206D616368696E652E006C6F61642042
:103930007468652073657474696E6773007072696A
:103940006E74657220746F20636F72726563746C3D
:103950007900546869732077696C6C20616C6C6FB6
:103960007720746865006E65787420746F206578C0
:103970007472756465722045312E006261636B203C
:103980006F6620746865207072696E7465722C00B1
:103990006F6E2074686520737469636B6572206F45
:1039A0006E207468650073657269616C206E756D58
:1039B0006265722070726573656E7400506C65612B
:1039C000736520696E73657274207468650028736E
:1039D00063726F6C6C20746F2072656164206D6F10
:1039E00072652900666F756E642E00536572696199
:1039F0006C206E756D626572206E6F740053657217
:103A000069616C206E756D6265722077697A61728A
:103A10006400202D204E6F00202D20596573004931
:103A200073207468697320636F72726563743F00FA
:103A3000534E3A200053657269616C206E756D6259
:103A400065722077697A61726400436C69636B20E8
:103A5000746F20736176652E2020202020202000A6
:103A60005374617475733A20706C6561736520617D
:103A7000646A757374004E6F7A7A6C652068656944
:103A8000676874004C6576656C696E672061646A6E
:103A9000757374004E6F7A7A6C6520686569676823
:103AA0007400536574206E6F7A7A6C65206865695E
:103AB000676874004739310A4731205A350A47325E
:103AC00038205820590A473120582D32300A4739BA
:103AD000300A4D383400436C69636B20746F206387
:103AE0006F6E74696E75652E00506C65617365202C
:103AF000776169742E0050726F632E20636F646566
:103B00003A204F43303100666F72206D6F7265202E
:103B1000696E666F726D6174696F6E2E006F6E20D4
:103B20007468652055736572204D616E75616C0017
:103B3000224F7468657220436F6465732220636846
:103B4000617074657200506C656173652C206368E8
:103B500065636B20746865007175616C69747920A8
:103B60006465637265617365732E006F7468657256
:103B700077697365206C6576656C696E6700616452
:103B80006A7573746D656E7420706F696E74732CD2
:103B900000726573697374616E6365206265747722
:103BA00065656E00456E73757265206120636F6E8A
:103BB00073697374656E74006E6F7220636F6D70DD
:103BC0006C6574656C7920737475636B00706170DB
:103BD0006572206973206E6569746865722066720B
:103BE0006565002E2041646A75737420756E746972
:103BF0006C2074686500616E642074686520707262
:103C0000696E7420737572666163650062657477AE
:103C100065656E20746865206E6F7A7A6C650050F9
:103C20006C616365206120706170657220736865E6
:103C3000657400287363726F6C6C20746F207265FA
:103C40006164206D6F726529004C4344206B6E6F78
:103C5000622E0068656967687420627920747572E5
:103C60006E696E672074686500506C656173652CC1
:103C70002061646A75737420746865205A00636FEC
:103C80006D706C6574652100506F696E742061649D
:103C90006A7573746D656E74004865696768742031
:103CA00061646A7573746D656E74005374617475C4
:103CB000733A204D6F76696E67004E6F7A7A6C6545
:103CC000206865696768743A202D2D2D2D2D0053CD
:103CD00074617475733A2066696E64696E67206DED
:103CE000657368004E6F7A7A6C65206865696768ED
:103CF000743A202D2D2D2D2D004C6576656C696E46
:103D0000672061646A75737400536574206E6F7AFE
:103D10007A6C6520686569676874004739310A47BD
:103D200031205A350A473238205820590A47312065
:103D3000582D32300A4739300A4D3834003A2000C5
:103D4000436F7272656374696F6E200046726F6EA6
:103D5000742072696768740046726F6E74207269AD
:103D6000676874004261636B20726967687400421F
:103D700061636B207269676874004261636B206CD9
:103D8000656674004261636B206C65667400467200
:103D90006F6E74206C6566740046726F6E74206C72
:103DA000656674004261636B00416476616E6365B1
:103DB000642073657474696E6773004C6576656C16
:103DC000696E672061646A757374004261636B0099
:103DD00025753A2530327500253032753A25303256
:103DE000750025756420253032753A25303275000E
:103DF0005A00590058000920000920000000000066
:103E000000000000000000007FFFE0000000000054
:103E1000000000000000007000E000000000000052
:103E200000000000000061F86000000000000000D9
:103E3000000000000041F820000000000000000029
:103E40000000000040F02000000000000000000022
:103E500000000040602000000000000000000000A2
:103E600000005801A07F80003FC000000000410416
:103E7000005C63A0FBC00079E0000000002082002D
:103E80005EF7A0F3C00076E0000000002082005E34
:103E9000F7A0EBC0007EE0000000004104005C637E
:103EA000A07B80003DC0000000008208005801A0F7
:103EB0007B80003BC000000001041000406020FB3C
:103EC000C00077E00000000104100040F020FBC0BB
:103ED0000070E00000000082080041F820FFC000F0
:103EE0007FE00000000041040061F8603F00001F17
:103EF00080000000000000007000E01E00000F00C5
:103F000000000001FFFF807FFFE00C0000060000C2
:103F1000000001FFFF800000000000000000000022
:103F200000000000007FFFE0000000000000000033
:103F3000000000007000E000000000000000000031
:103F4000000000630C6000000000000000000000A2
:103F50000000470E200000000000000000000000EC
:103F6000004F0F20000000000000000000000000D3
:103F70005F0FA00000000000000000000000005ED5
:103F800007A07F80003FC0000000004104004060A7
:103F900020FBC00079E00000000020820040F020FB
:103FA000F3C00076E00000000020820040F020EB2B
:103FB000C0007EE0000000004104004060207B80E3
:103FC000003DC0000000008208005E07A07B80006A
:103FD0003BC0000000010410005F0FA0FBC0007791
:103FE000E0000000010410004F0F20FBC00070E053
:103FF00000000000820800470E20FFC0007FE000A4
:10400000000000410400630C603F00001F800000BE
:1040100000000000007000E01E00000F0000000023
:1040200001FFFF807FFFE00C0000060000000001A0
:10403000FFFF80000000436C69636B20746F206594
:104040007869742E0070726F6365737320756E7477
:10405000696C20636C65616E2E00706C65617365C0
:10406000207265706561742074686500657874728B
:1040700061637465642066696C616D656E742000AF
:10408000287363726F6C6C20746F2072656164209A
:104090006D6F726529006F6E207468652074697099
:1040A000206F662074686520004966207468657218
:1040B00065206973207265736964756500436F6C70
:1040C000642070756C6C2066696E69736865642124
:1040D00000506C656173652070756C6C2066696C4E
:1040E000616D656E742E005374617475733A20208F
:1040F000636F6C642070756C6C696E6700090043B7
:104100006C69636B20746F20636F6E74696E756584
:104110002E0066696C616D656E742E200070756C82
:104120006C20666F726365206F6E20746865005046
:104130006C656173652C206170706C7920612065FD
:1041400076656E00436C69636B20746F20636F6EDD
:1041500074696E75652E0066726F6D2074686520D7
:104160006E6F7A7A6C652E2000616E79206C6566C0
:10417000746F7665722066696C616D656E7400504F
:104180006C656173652C2070756C6C20617761794A
:1041900000506C6561736520776169742E005374FB
:1041A000617475733A20707265706172696E670030
:1041B0000900506C6561736520776169742E005346
:1041C00074617475733A206C6F6164696E6700097D
:1041D00000436C69636B20746F206C6F61642E0008
:1041E000776974686F7574207573696E672073657D
:1041F0006E736F722E00496E736572742066696CFF
:10420000616D656E7420005374617475733A20207B
:1042100068656174696E6720646F6E6500506C65D7
:1042200061736520776169742E00537461747573CE
:104230003A20756E6C6F6164696E67000900436CAB
:1042400069636B20746F20636F6E74696E75652E81
:10425000007468652066696C616D656E74207365B5
:104260006E736F722E006D617920676574207374B0
:1042700075636B20696E73696465006F662074688E
:10428000652066696C616D656E7420746861740088
:10429000696E206120656E6C617267656420746967
:1042A0007000436F6C642070756C6C207265737560
:1042B0006C747300287363726F6C6C20746F20725F
:1042C000656164206D6F72652900756E6C6F616445
:1042D000206973206E65636573736172792100666E
:1042E000696C616D656E742073656E736F720046E4
:1042F000696C616D656E7420646574656374656472
:10430000206F6E00506C6561736520776169742E53
:10431000005374617475733A68656174696E6720DF
:104320006E6F7A7A6C65000900436C69636B207468
:104330006F20636F6E74696E75652E006578747298
:104340007573696F6E2070726F626C656D73006952
:10435000662074686572652061726520616E7900FF
:104360006265747765656E2066696C616D656E74F3
:1043700073206F72004232583330302C20776865DA
:104380006E206368616E67696E67006E6F7A7A6C23
:104390006573206F6620796F75720068656C702098
:1043A000796F7520636C65616E2074686500546870
:1043B00069732070726F636573732077696C6C200A
:1043C00000287363726F6C6C20746F207265616477
:1043D000206D6F7265290077697A617264210057D8
:1043E000656C636F6D6520746F20636F6C64207003
:1043F000756C6C00436F6C642070756C6C0050437E
:104400002020202020202020202020202032363074
:10441000094300414253202020202020202020203A
:104420002020323430094300504554472F4E594C18
:104430004F4E2020202020323330094300504C4181
:104440002020202020202020202020203231300950
:1044500043004261636B0045787472756465722035
:104460003200457874727564657220310042616370
:104470006B00436F6C642070756C6C004D3731308D
:10448000004D37313200202D204E6F00202D205955
:104490006573005265636F766572207072696E7421
:1044A0003F00506F7765726C6F737320646574653D
:1044B0006374656400436C69636B20746F2063618F
:1044C0006E63656C2E004175746F2D7265636F7637
:1044D0006572696E67207072696E7400506F7765DF
:1044E000726C6F73732064657465637465640043F4
:1044F0006C69636B20746F20636F6E74696E756591
:104500002E00637573746F6D6572207365727669C2
:1045100063652100506C6561736520636F6E746123
:104520006374004532207374657070657220666133
:10453000756C74210045312073746570706572204C
:104540006661756C7421005A2073746570706572B1
:10455000206661756C7421005920737465707065F4
:1045600072206661756C74210058207374657070D8
:104570006572206661756C742100636F6D6D756E78
:1045800069636174696F6E206572726F723A00546C
:104590004D4320737465707065722064726976652E
:1045A00072005472696E616D6963204661756C7446
:1045B0000041626F7574004D616368696E652073B8
:1045C000657474696E677300526574727920534420
:1045D0002063617264004D3231005072696E740064
:1045E0004D61696E74656E616E6365005072696ECF
:1045F00074004261636B005072696E742070617563
:10460000736564004D31323500004D323400473956
:10461000310A4731205A350A473238205820590A82
:10462000473120582D32300A4739300A4D3834008E
:104630005072696E742063616E63656C6564004DD1
:10464000363030204230004368616E67652066690D
:104650006C616D656E740043616E63656C20707291
:10466000696E7400526573756D65207072696E7441
:10467000005072696E742073657474696E6773009C
:104680005061757365207072696E74004261636B6E
:10469000004C6576656C20626564004732390A47D4
:1046A0003238205820590A4D3530300A4739310AFE
:1046B000473120582D32300A4739300A47342050CC
:1046C0003230300A204D33303020533430303020F7
:1046D000503230300A473420503530300A204D33C4
:1046E0003030205334303030205032303000436F7F
:1046F0006C642070756C6C00496D70726F7665200B
:104700006C6576656C696E6700536574206E6F7AB0
:104710007A6C6520686569676874004175746F20FC
:10472000686F6D6500473238004D6F76652061789F
:104730006973004368616E67652066696C616D65C9
:104740006E74004261636B00453220537465707073
:104750006572206472697665723A4E4F4B0045313E
:104760002053746570706572206472697665723A60
:104770004E4F4B005A2053746570706572206472FE
:10478000697665723A204E4F4B005920537465701C
:10479000706572206472697665723A204E4F4B00E4
:1047A0005820537465707065722064726976657202
:1047B0003A204E4F4B00534E3A20004E6F7A7A6C9F
:1047C00065206865696768743A2000446961676EAE
:1047D0006F7374696320496E666F2E0042454556BB
:1047E000455259435245415449564500656E6769E3
:1047F0006E6565726564206279006F70656E207306
:104800006F75726365206669726D77617265004DC0
:1048100061726C696E2D666F726B00436C69636BBD
:1048200020746F20736176652E20202020202020A8
:10483000005374617475733A20706C656173652000
:1048400061646A757374004E6F7A7A6C652068656E
:1048500069676874004C697665206E6F7A7A6C655A
:104860002068656967687400576F726B696E672EA0
:104870002E2E00576F726B696E672E2E00576F7267
:104880006B696E672E00576F726B696E6700657893
:104890007065637465642E004E6F69736520616E88
:1048A0006420696D70616374732061726500536583
:1048B0006E736F726C6573732D686F6D696E673A96
:1048C00020580053656C662D746573742057697A9F
:1048D00061726400576F726B696E672E2E2E0057DF
:1048E0006F726B696E672E2E00576F726B696E6701
:1048F0002E00576F726B696E670065787065637420
:1049000065642E004E6F69736520616E6420696D69
:104910007061637473206172650053656E736F72AA
:104920006C6573732D686F6D696E673A205900531B
:10493000656C662D746573742057697A61726400C2
:10494000506C6561736520776169742E00537461E2
:104950007475733A204F4B210053656E736F726C00
:104960006573732D686F6D696E673A2058005365E3
:104970006C662D746573742057697A617264005097
:104980006C6561736520776169742E00537461747E
:1049900075733A204F4B210053656E736F726C65CF
:1049A00073732D686F6D696E673A20590053656C9B
:1049B000662D746573742057697A61726400506C57
:1049C0006561736520776169742E00537461747535
:1049D000733A20686F6D696E6720582B59005365D4
:1049E0006E736F726C6573732D686F6D696E673A65
:1049F0002058590053656C662D746573742057698F
:104A00007A61726400506C656173652077616974C6
:104A10002E005374617475733A68656174696E67CA
:104A2000206E6F7A7A6C650009004368616E676575
:104A30002066696C616D656E7400436C69636B2000
:104A4000746F20636F6E74696E75652E00537461A8
:104A50007475733A202068656174696E6720646FAD
:104A60006E650009004368616E67652066696C6168
:104A70006D656E740066696C616D656E7420746F2F
:104A800020636F6E74696E75652E00436C69636B8D
:104A9000206F7220696E73657274200053746174A4
:104AA00075733A202068656174696E6720646F6E63
:104AB000650009004368616E67652066696C616D19
:104AC000656E7400506C6561736520776169742E42
:104AD000005374617475733A206C6F6164696E671A
:104AE0000009004368616E67652066696C616D65E9
:104AF0006E7400506C6561736520776169742E0077
:104B00005374617475733A20756E6C6F6164696E6D
:104B1000670009004368616E67652066696C616DB6
:104B2000656E7400436C69636B20746F20657869EF
:104B3000742E005374617475733A207374616E64DB
:104B4000627900506C6561736520776169742E002D
:104B50005374617475733A206D6F76696E670045A2
:104B60007874727564657220323A00457874727593
:104B700064657220313A004D616E75616C20657814
:104B800074727573696F6E0045786974696E672019
:104B9000626C6F636B696E672073637265656E0A22
:104BA00000526573656E643A20006F6B0020746F6D
:104BB0006F206C6F6E6720657874727573696F6EA5
:104BC0002070726576656E7465640A0020636F6C90
:104BD0006420657874727573696F6E207072657683
:104BE000656E7465640A004D36303020460062758B
:104BF00073793A2070617573656420666F722069FD
:104C00006E7075740A00627573793A2070617573FD
:104C1000656420666F7220757365720A0062757331
:104C2000793A2070726F63657373696E670A004B1F
:104C3000494C4C45442E20004B494C4C2063617537
:104C4000736564206279204B494C4C206275747402
:104C50006F6E2F70696E0A004B494C4C45442E20F4
:104C6000004B494C4C206361757365642062792068
:104C7000746F6F206D75636820696E616374697607
:104C8000652074696D65202D2063757272656E7480
:104C900020636F6D6D616E643A2000453120646958
:104CA0007361626C65640A004530206469736162F7
:104CB0006C65640A00506C6561736520726573658C
:104CC00074005052494E5445522048414C5445447A
:104CD000005072696E7465722068616C7465642E30
:104CE000206B696C6C28292063616C6C6564210AF7
:104CF000005072696E74207361766564210065727C
:104D0000726F722077726974696E6720746F2066A3
:104D1000696C650A00205A3A0020593A0020583A36
:104D200000656E6473746F7073206869743A200054
:104D3000446F6E6520736176696E672066696C6585
:104D40002E0A004D323900747275650066616C730D
:104D50006500747275650066616C736500747275C8
:104D6000650066616C736500313D2E313800303D61
:104D70002E333235002F3331002F3331002F3331B2
:104D800000747275650066616C736500203D2030AB
:104D90007800580058005800580058005800580033
:104DA00058005800090020617869732064726976A0
:104DB00065722063757272656E743A200074727544
:104DC000650066616C7365002061786973207465A5
:104DD0006D7065726174757265207072657761724D
:104DE0006E207472696767657265643A200020708E
:104DF00072657761726E20666C616720636C6561B5
:104E00007265640A002064726976657220686F6D4D
:104E1000696E672073656E73697469766974792049
:104E200073657420746F2000416374697665204552
:104E3000787472756465723A20004D3630302048BF
:104E40006F74656E6420746F6F20636F6C64207480
:104E50006F206368616E67652066696C616D656E61
:104E6000740A007C3C3E5E2B3D3F2F5B5D3B2C2A51
:104E7000225C004572726F722077726974696E6786
:104E800020746F20454550524F4D210A00506F69E4
:104E90006E7420343A00506F696E7420333A0050BB
:104EA0006F696E7420323A00506F696E7420313A27
:104EB00000454550524F4D2076657273696F6E20E4
:104EC0006D69736D61746368200055706461746905
:104ED0006E6720454550524F4D2076657273696F5D
:104EE0006E20423032202D3E204230330A00204DC9
:104EF00061726C696E3D4230330A00454550524F35
:104F00004D3D00B80B0000B80B0000C800000010B9
:104F100027000000004843000048430000C0400054
:104F200000704220520020204D393030204B004C80
:104F3000696E65617220416476616E63653A0A004C
:104F40000A0946726F6E7420726967687420000ADD
:104F5000094261636B20726967687420000A094224
:104F600061636B206C6566742000426564206C652B
:104F700076656C696E6720696D70726F76656D65B8
:104F80006E74206D6D3A0A0946726F6E74206C65FE
:104F900066742000200A007C42696E6172793A00D2
:104FA00045322000453120005A2000592000582069
:104FB00000544D43206E6F6E205350493A2000201C
:104FC000453120002045302000205A200020592063
:104FD00000205820005374657070657220647269F7
:104FE0007665722063757272656E743A0A002020CD
:104FF0004D383531205A005A2D50726F6265204F5E
:10500000666673657420286D6D293A0A0020440095
:1050100020490020204D333034205000204400200F
:10502000490020204D3330312050002044002049D9
:105030000020500020204D3330312045005049449D
:105040002073657474696E67733A0A002046002005
:10505000420020480020204D3134352053004D615E
:1050600074657269616C2068656174757020706127
:1050700072616D65746572733A0A0020204D343296
:10508000302053004175746F20426564204C657672
:10509000656C696E673A0A0020590020580020208C
:1050A0004D323138205400486F74656E64206F664D
:1050B00066736574733A0A00205A00205900202054
:1050C0004D323036205800486F6D65206F6666732C
:1050D00065743A0A00204500205A002059002058E3
:1050E0000020420020540020204D32303520530053
:1050F000416476616E6365643A20533C6D696E5F0E
:1051000066656564726174653E20543C6D696E5FCE
:1051100074726176656C5F66656564726174653E24
:1051200020423C6D696E5F7365676D656E745F7478
:10513000696D655F75733E20583C6D61785F787965
:105140005F6A65726B3E205A3C6D61785F7A5F6A78
:1051500065726B3E20453C6D61785F655F6A657284
:105160006B3E0A0020540020520020204D32303483
:10517000205000416363656C65726174696F6E20D5
:1051800028756E6974732F7332293A20503C7072FF
:10519000696E745F616363656C3E20523C72657436
:1051A000726163745F616363656C3E20543C74722A
:1051B0006176656C5F616363656C3E0A0020450043
:1051C00020204D323031205400205A002059002038
:1051D000204D3230312058004D6178696D756D2059
:1051E000416363656C65726174696F6E2028756ECA
:1051F0006974732F7332293A0A0020450020204D2C
:10520000323033205400205A0020590020204D32E3
:1052100030332058004D6178696D756D2066656585
:105220006472617465732028756E6974732F7329B5
:105230003A0A0020450020204D3932205400205ADF
:105240000020590020204D393220580053746570D9
:10525000732070657220756E69743A0A0020204DC3
:105260003230302044300A0020204D32303020547B
:105270003120440020204D32303020440020446949
:105280007361626C65640A0046696C616D656E7479
:105290002073657474696E67733A0020204D313451
:1052A000392043203B20556E69747320696E20437A
:1052B000656C736975730A00202047323120202005
:1052C000203B20556E69747320696E206D6D0A0055
:1052D000476C6F62616C2073657474696E67733AB2
:1052E0000A0066696C616D656E743A20007A5F6DC4
:1052F000696E3A2000795F6D61783A2000785F6DC1
:1053000061783A20005265706F7274696E6720652B
:105310006E6473746F70207374617475730A00FF28
:10532000E0FFD11000FFFEFFD0FFE0FFC1FFD1E2A0
:1053300040A0C8A6A22FF800238127AC00AFFF64CD
:10534000A5FF64FF64A4FFD0FFFE0000210024003D
:1053500027002A002D003000330001010000040165
:1053600007010A010200000A0B02090C0D0E0807D2
:105370000304010000000000000000000000000025
:10538000000000000000000000000000000000001D
:1053900000121110000000000000000000000000DA
:1053A00000000000000000000000000000000000FD
:1053B00000000000000000000000000000000000ED
:1053C00000000061800000000000000000000000FC
:1053D0000000007DF0000000000000000000000060
:1053E0000000007FFC000000000000000000000042
:1053F0000000007FFE000000000000000000000030
:105400000000007FFF80000000000000000000009E
:105410000000007FFFC0000000000000000000004E
:105420000000007FFFC0000000000000000000003E
:105430000000007FFFE0000000000000000000000E
:105440000000007FFFE000000000000000000000FE
:105450000000007FFFE000000000000000000000EE
:105460000000007FFFE000000000000000000000DE
:105470000000007FFFE000000000000000000000CE
:105480000000007FFFE000000000000000000000BE
:105490000000007FFFE000000000000000000000AE
:1054A0000000007FFFC000000000000000000000BE
:1054B0000000007FFFC000000000000000000000AE
:1054C0000000007FFF8000000000000000000000DE
:1054D0000000007FFE00000000000000000000004F
:1054E0000000007FFC000000000000000000000041
:1054F0000000007DF000000000000000000000003F
:10550000000FFF9CE0000000000000000000000011
:1055100003FFFF9CE000000000000000000000000E
:105520000FFFFF9CE60000000000000000000000EC
:105530001FFFFF9CE70000000000000000000000CB
:105540007FFFFF9CE700000000000000000000005B
:10555000FFFFFF9CE70000000000000000000001CA
:10556000FFFFFF9CE7200000000000000000000398
:10557000F803FF9CE730000000000000000000037B
:10558000F000FF9CE7300000000000000000000F6A
:1055900080007F9CE73C0000000000000000000F3E
:1055A00000001F9CE73C0000000000000000000F0E
:1055B00000000F9CE73E0000000000000000000E0D
:1055C00000000F9CE73E0000000000000000001EED
:1055D00000000F9CE73E0000000000000000001EDD
:1055E0007000079CE73E0000000000000000001E65
:1055F000F800079CE73FFC00000000000000001ED0
:10560000F800079CE73FFC00000000000000001EBF
:105610007000079CE73E0000000000000000001E34
:1056200000000F9CE73E0000000000000000000E9C
:1056300000000F9CE73E0000000000000000000F8B
:1056400000000F9CE73E0000000000000000000F7B
:1056500080001F9CE73C0000000000000000000FDD
:10566000E0007F9CE73C0000000000000000000319
:10567000F000FF9CE7300000000000000000000187
:10568000FC03FF9CE7300000000000000000000168
:10569000FFFFFF9CE720000000000000000000006A
:1056A000FFFFFF9CE700000000000000000000007A
:1056B0007FFFFF9CE70000000000000000000000EA
:1056C0001FFFFF9CE700000000000000000000003A
:1056D0000FFFFF9CE600000000000000000000003B
:1056E00000FFFF9CE0000000000000000000000040
:1056F00000000000000000000000000000000000AA
:105700000000000000000000000000000000000099
:105710000000000000000000000000000000000089
:105720000000000000000000000000000000000079
:105730000000000000000000000000000003CFBED9
:105740008BEF2273CF88FA8BE00000000002282044
:105750008A08948A2814228A000000000002282067
:105760008A0888822822228A000000000003CF3C99
:105770008BCF0883CF22228B8000000000022820DC
:105780008A0A0882883E228A00000000000228203F
:105790005209088A48222252000000000003CFBEAE
:1057A00023E888722FA22223E0000001FFFFFFFF01
:1057B000FFFFFFFFFFFFFFFFFF0FFFFFFFFFFFFFE9
:1057C000FFFFFFFFFFFFFF1E0000000000000000C2
:1057D000000007FFFF38000000000000000000008C
:1057E00003FFFF700000000000000000000001FF48
:1057F000FF600000000000000000000000FFFF60EC
:1058000000000000000000000000007FFFC000005A
:105810000000000000007800003FFFC00FC0FC0047
:10582000000000007818001FFFC03FE1FF000000EB
:105830000000783C000FFFC07FF3FF8000000000F5
:10584000783C0007FFC0FFFFFFC000000000783C6D
:105850000003FFC1F87F87E000000000780000012E
:10586000FFC1F03F03E00000000078000000FFC12E
:10587000E01E01E01F0003E0783C03F07FC1E01E62
:1058800001E07FC00FF8783C07FC3FC1E01E01E15A
:10589000FFE01FFC783C0FFE1FC1E01E01E3FFF09C
:1058A0003FFE783C1FFE0FC1E01E01E3F3F83F3ED0
:1058B000783C3F3F07C1E01E01E7E0FC7C1F783CDD
:1058C0003E1F07C1E01E01E7C07C7C0F783C3C0F07
:1058D00003C1E01E01E7807C780F783C3C0F03C1D8
:1058E000E01E01E7803C7800783C3C0F03C1E01EDD
:1058F00001E7803C7800783C3C0F03C1E01E01E7E3
:10590000803C7800783C3C0F03C1E01E01E7C03CBE
:105910007800783C3C0F03C1E01E01E3E03C7800D6
:105920007C3C3C0F03C1E01E01E3FF3FF8007FBC5D
:105930003C0F03C1E01E01E1FF3FF8003FBFFC0F39
:1059400003C1E01E01E0FF3FF8001FBFFC0F03C1D1
:10595000E01E01E07F3FF8000FBFFC0F0360000076
:1059600000000000000000000000076000000000D0
:1059700000000000000000000670000000000000B1
:105980000000000000000E380000000000000000D1
:10599000000000001C1E00000000000000000000CD
:1059A0000000780FFFFFFFFFFFFFFFFFFFFFFFFF7C
:1059B000F001FFFFFFFFFFFFFFFFFFFFFFFF802062
:1059C00020506C616E6E65724275666665724279D2
:1059D0007465733A20002046726565204D656D6FD1
:1059E00072793A2000312E312E382042564320322F
:1059F0000A004D61726C696E0020536F66747761A6
:105A000072652052657365740A002057617463687B
:105A1000646F672052657365740A002042726F7765
:105A20006E206F75742052657365740A0020457886
:105A30007465726E616C2052657365740A00506FF4
:105A400077657255700A0073746172740A00456E4E
:105A50006473746F70732025632025632025632091
:105A6000256300000020002300260029002C002FC1
:105A700000320000010000030106010901000022BC
:105A800000250028002B002E003100340002010008
:105A900000050108010B01050505050705080808B3
:105AA00008020202020A0A080804040404010101AF
:105AB00001010101010303030303030303040707B7
:105AC000070C0C0C0C0C0C0C0C0202020206060655
:105AD00006060606060B0B0B0B0B0B0B0B0102103D
