:100000000C94AF2D0C94E02D0C94E02D0C94E02D6D
:100010000C94E02D0C94E02D0C94E02D0C94E02D2C
:100020000C94E02D0D94A55D0C94E02D0C94E02D26
:100030000C94E02D0D94D47D0C94E02D0C94E02DC7
:100040000C94E02D0D947D250C94E02D0C94E02D66
:100050000C94E02D0C94E02D0D94D9200D9417876D
:100060000C94E02D0C94D2550C94E02D0C94E02DC2
:100070000C94E02D0C94E02D0C94E02D0C94E02DCC
:100080000D945B2F0C94E02D0C94E02D0C94E02D3E
:100090000C94E02D0C94E02D0C94E02D0C94E02DAC
:1000A0000C94E02D0C94E02D0D942D2F0C94E02D4C
:1000B0000C94E02D0C94E02D0C94E02D0D94FF2E6B
:1000C0000C94E02D0C94E02D0C94E02D0C94E02D7C
:1000D0000C94E02D0C94E02D0C94E02D0C94E02D6C
:1000E0000C94E02D084AD73B3BCE016E84BCBFFD8B
:1000F000C12F3D6C74319ABD56833DDA3D00C77FF8
:1001000011BED9E4BB4C3E916BAAAABE0000008090
:100110003F05A84CCDB2D44EB93836A9020C50B91F
:10012000918688083CA6AAAA2ABE000000803F004B
:100130000D949C0B0D9415000D94A1700C94F7ACCC
:100140000C949C890C941BBE0D94215A0D9450194B
:100150000D941D5B0C947CF90C94CD920D94907FC2
:100160000C949D930C94F78D0C9419A00C949BFB0C
:100170000D9487800D944C700C94D4AE0C94E29046
:100180000C9415DE0C947CE30D94190C0C945B9389
:100190000C949F910D94315C0C9422890C94548999
:1001A0000D94DC700D9446800C9486B30C94758C81
:1001B0000C9403DE0C94C3890C9477C60D94508084
:1001C0000C94032F0D942A800C94AA930C9483C151
:1001D0000D94957F0D94CA700C942AE50D94B80D7A
:1001E0000C94E5920C946BAF0C94D1B10C94749870
:1001F0000C94308D0C943FA40C942DA10C94659418
:100200000D949A360C948FFF0C944A950C9412CC52
:100210000C949CD20D9418800C94CDB00C94FF9348
:100220000C9459C80C94D1AE0D9458120C94E0B0B3
:100230000D9437700C94D1930C9450890D942280B6
:100240000C94FF920D94A17F0C947DAF0D94635B91
:100250000C9442930D94B85B0C94D9920D946A1946
:100260000D94C3590D9469800D94CA5B0C944AAFE8
:100270000C94FEAF0C941A8F0C94AAAE0D940354F8
:100280000C94C89A0C9447950D949D0A0D94FE0CFD
:100290000D9432800C948F930C9410940C9491894B
:1002A0000D94C0700D940F5C0D94B2700D94A570F8
:1002B0000C9438C90C9495890C9470C50D94D27027
:1002C0000C943E950C9438E50C948C8F0C949E996C
:1002D0000D943C800C9420950C94ABB20C942B950F
:1002E0000D94C4700D94B43A0D944A5B0D94D8707B
:1002F0000C9421A80D945E9A0C9402B30C9453951F
:100300000D9473800D94AA020C947EC70C94BF893F
:100310000D94035A0C9425B50C946EAF0D94180EE1
:100320000C94CFAF0C94BFAE0C9421940D944A9BC7
:100330000C9421890C941CE50D94BC7F0C94A6BBF5
:100340000D94FF7F0D944B700D94A3590D9445703F
:100350000C9428E10C94F0C30C944FF50D94995C27
:100360000D94CE700C9489AD0D947D800D94CE5B70
:100370000D94BC700C94ADAD0C943FE00C940FDE6A
:100380000D94B93A0C942AE10C940E8F0C94E0DA97
:100390000C9477B20C945CAF0C94F29B0D94977014
:1003A0000C94EEB00C9435950D943E700C9426E1AF
:1003B0000C94B02E0D94F77F0C9447970C947CB658
:1003C0000D9491800D949D700C9454910C942FB4C5
:1003D0000C9443940C94BAB00D946B5C0C94868985
:1003E0000C94B8F60C94188F0C944AE00C94EBD053
:1003F0000D94E3590C94A0890C9407B10C94ADAF03
:100400000C94778C0D94685B0C945D930C9406D9D6
:100410000D94985B0C9400E50C9459950C941891EC
:100420000D94135A0D94B3590C9495AE0C94D4FAC0
:100430000C9431B10C943BE50D94320B0C94609507
:100440000C9409DE0C9432940D94215C0C94599315
:100450000C9412B30C941AB30C9452BF0D94430E27
:100460000D94D3590C9427B30D9410090C94398929
:100470000C94F7920C9434910D944F5C0C941F2FB4
:100480000C9460FE0D94537F0D940E800C94079392
:100490000C9424CA0D946E0E0C941D900C94EDB720
:1004A0000D945F800D94B17F0D94B6700D94A605E8
:1004B0000D9486170C94EBF80C94042F0D941714DC
:1004C0000C9454940D9404800C946B8C0D942B5BC1
:1004D0000C946ECD0D94A76F0C948CAF0D94280FD7
:1004E0000C94DF910C940DFA0C944D950C944DAF37
:1004F0000C94F1E10D94387F0C948A890D94A77FB8
:100500000C9456950C9435E00D9430700C940ACCF4
:100510000D94D30C0D94AC700C9439BA0D94F3591E
:100520000C940EE50C94C0AF0C94FF910C9428CF62
:100530000C94D3920C94E3AE0D94B15C0D94A15A3B
:100540000D9418010D94FD710D94A66F0C94FDADE2
:100550000D9428110C9474910D94D7700C94EC8A1E
:100560000C94BB890D94D35B0C949EAF0C94E2BCAD
:100570000D9495590C948FAF0C94C4AD0D948D0FC0
:100580000C949F2E0C94DBAD0C9450950D94601739
:100590000C94BF910C948FAD0C944FE00C9467AE0B
:1005A0000C94ADAE0C9492AD0D94895B0D94A97032
:1005B0000D942B0A0D94A75B4E414E494E49545958
:1005C000494E46CDCCCC3D0AD7233C17B7D138771E
:1005D000CC2B329595E6241FB14F0A000020410034
:1005E00000C84200401C4620BCBE4CCA1B0E5AAE7E
:1005F000C59D74434F4D4D554E49434154494F4E4F
:100600000044525952554E004552524F52530049E0
:100610004E464F004543484F004572726F72207737
:10062000726974696E6720746F20454550524F4D52
:10063000210A0053657474696E6720657874727559
:1006400064657220544D43206173206E6F6E205399
:1006500050490A0053657474696E6720616C6C20A0
:10066000544D43206173205350492E0A004B494C8E
:100670004C45442E200053544F505045442E2000EA
:100680005072696E7465722073746F707065642047
:1006900064756520746F206572726F72732E2046C8
:1006A000697820746865206572726F7220616E646B
:1006B00020757365204D39393920746F2072657348
:1006C000746172742E202854656D70657261747542
:1006D00072652069732072657365742E205365748A
:1006E000206974206166746572207265737461722A
:1006F00074696E67290A004E6F20436865636B73E7
:10070000756D2077697468206C696E65206E756DF3
:100710006265722C204C617374204C696E653A20BE
:1007200000636865636B73756D206D69736D6174CB
:1007300063682C204C617374204C696E653A20000C
:100740004C696E65204E756D626572206973206E0E
:100750006F74204C617374204C696E65204E756D0A
:100760006265722B312C204C617374204C696E656C
:100770003A20004D313130004D3331005344207266
:10078000656164206572726F720A00446F6E652045
:100790007072696E74696E672066696C650A002004
:1007A000496E76616C6964206578747275646572EF
:1007B0002000000080C1000088C10000000000008F
:1007C000994300005E430000964342696C696E6580
:1007D0006172204C6576656C696E6720477269644A
:1007E0003A0A0053756264697669646564207769C2
:1007F0007468204341544D554C4C20524F4D204C71
:100800006576656C696E6720477269643A0A0057BD
:1008100061726E696E673A20486F6D696E6720423B
:10082000756D702044697669736F72203C20310ABF
:100830000004040400000000000000000000803FED
:100840000000A14300006F43000096434732382068
:100850005A20466F7262696464656E0A00473238D6
:10086000205A20466F7262696464656E0020706F62
:10087000736974696F6E206F7574206F6620726182
:100880006E67652E0A003F50726F626520004C65EE
:1008900076656C696E67206D657368206166746546
:1008A0007220636F7272656374696F6E0A000A4624
:1008B000726F6E742072696768743A000A426163ED
:1008C0006B207269676874203A000A4261636B208A
:1008D0006C65667420203A000A46726F6E74206C54
:1008E000656674203A004C6576656C696E67206DAC
:1008F000657368206265666F726520636F727265EA
:100900006374696F6E0A00202844525952554E296B
:1009100000473239204175746F20426564204C6570
:1009200076656C696E670028422961636B00284612
:1009300029726F6E74002852296967687400284C08
:1009400029656674003F2856296572626F736520B9
:100950006C6576656C20697320696D706C61757368
:1009600069626C652028302D34292E0A00426164AA
:10097000205A2076616C75650A004E6F2062696CA2
:10098000696E65617220677269640A0052657375E9
:100990006D696E67207072696E7400423258333030
:1009A000302076302E342072656164792E00436CDD
:1009B00069636B20746F20726573756D652E2E2EC2
:1009C0000044656C6574696F6E206661696C65646E
:1009D0002C2046696C653A200046696C6520646588
:1009E0006C657465643A006F70656E206661696C51
:1009F00065642C2046696C653A200020573A004215
:100A000032583330302076302E342072656164796C
:100A10002E0020573A00205A3A0020593A0020432D
:100A20006F756E7420583A0020453A00205A3A00FB
:100A300020593A00583A003A004361703A00205A6F
:100A400000205900580020204D61783A2000205A9B
:100A500000205900580020204D696E3A20004F6E4A
:100A600020004F666600536F667420656E64737471
:100A70006F70733A200020643A0020693A002070B9
:100A80003A0020653A004B64200023646566696E75
:100A900065202044454641554C545F004B69200079
:100AA00023646566696E65202044454641554C5473
:100AB0005F004B70200023646566696E65202044EA
:100AC000454641554C545F00504944206175746F50
:100AD00074756E652066696E69736865642120505F
:100AE000757420746865206C617374204B702C20C1
:100AF0004B6920616E64204B6420636F6E73746178
:100B00006E74732066726F6D2062656C6F772069FA
:100B10006E746F20436F6E66696775726174696F7A
:100B20006E2E680A00504944206175746F74756EAA
:100B300065206661696C6564212074696D656F75F7
:100B4000740A00544845524D414C2052554E41576D
:100B5000415900546865726D616C2052756E617701
:100B600061790048656174696E67206661696C65CA
:100B7000640048656174696E67206661696C6564CC
:100B800000504944206175746F74756E652066610C
:100B9000696C6564212054656D706572617475724D
:100BA0006520746F6F20686967680A00204B643A9B
:100BB0002000204B693A2000204B703A20000A2088
:100BC000436C617373696320504944200A002054C8
:100BD000753A2000204B753A2000206D61783A204C
:100BE00000206D696E3A200020643A20002062697E
:100BF00061733A20004D65736820706F696E7420D0
:100C000063616E6E6F74206265207265736F6C76BF
:100C100065640A004D34323120696E636F7272650B
:100C2000637420706172616D6574657220757361A3
:100C300067650A004F666673657473206170706C37
:100C4000696564004572723A20546F6F2066617264
:100C50002100546F6F206661722066726F6D207282
:100C600065666572656E636520706F696E740A00F3
:100C700046616C73652045322066696C616D656EF6
:100C8000742072756E6F7574206465746563746525
:100C9000640A0046616C73652066696C616D656EFF
:100CA000742072756E6F7574206465746563746505
:100CB000642E20496E2073746172742047636F64E0
:100CC000650A004175746F0020452F443D00416462
:100CD00076616E6365204B3D00617869733A707789
:100CE0006D5F7363616C65207C7374617475735F91
:100CF000726573706F6E73657C0A00447269766505
:100D000072207265676973746572733A0A006F7452
:100D100009006F74707709007332676109007332DC
:100D2000676209006F6C6109006F6C62090073747F
:100D300073740900667361637469766509005347CB
:100D40005F726573756C740053475F56616C7565AF
:100D5000007374616C6C677561726409000A4452B7
:100D600056535441545553005347207468727300CE
:100D70002D73746172740900687973746572697394
:100D800069730A2D656E640900626C616E6B207474
:100D9000696D65006F66662074696D65004F54204B
:100DA0007072657761726E2054004F5420707265C6
:100DB0007761726E006D737465707309007374658A
:100DC000616C746843686F70007673656E73650953
:100DD0000050574D207363616C6500524D53206382
:100DE000757272656E7400536574206375727265F6
:100DF0006E7400456E61626C6564090009000A4505
:100E000031206973206E6F77207573696E67207368
:100E10007465616C746843686F700A000A4531201C
:100E20006973206E6F77207573696E6720737072B7
:100E30006561644379636C650A000A453020697313
:100E4000206E6F77207573696E67207370726561AD
:100E5000644379636C650A000A4530206973206E2B
:100E60006F77207573696E6720737465616C746841
:100E700043686F700A000A5A2061786973206973A9
:100E8000206E6F77207573696E672073707265616D
:100E9000644379636C650A000A5A2061786973209B
:100EA0006973206E6F77207573696E672073746540
:100EB000616C746843686F700A000A592061786930
:100EC00073206973206E6F77207573696E67207366
:100ED00070726561644379636C650A000A59206128
:100EE000786973206973206E6F77207573696E67F8
:100EF00020737465616C746843686F700A000A58E7
:100F00002061786973206973206E6F77207573692B
:100F10006E67207370726561644379636C650A0063
:100F20000A582061786973206973206E6F77207585
:100F300073696E6720737465616C746843686F7061
:100F40000A000A45312061786973207374616C6C02
:100F5000477561726432207374657073206C6F73AF
:100F6000733A000A45312061786973207374616CAB
:100F70006C47756172643220747269676765726567
:100F800064203A000A4531206178697320737461E6
:100F90006C6C4775617264322076616C75652020D7
:100FA0002020203A000A453020617869732073744C
:100FB000616C6C4775617264322073746570732064
:100FC0006C6F73733A000A4530206178697320733F
:100FD00074616C6C47756172643220747269676702
:100FE00065726564203A000A453020617869732093
:100FF0007374616C6C4775617264322076616C75D4
:101000006520202020203A000A5A20617869732048
:101010007374616C6C4775617264322073746570AF
:1010200073206C6F73733A000A5A206178697320D9
:101030007374616C6C477561726432207472696795
:101040006765726564203A000A5A206178697320E6
:101050007374616C6C4775617264322076616C7573
:101060006520202020203A000A59206178697320E9
:101070007374616C6C47756172643220737465704F
:1010800073206C6F73733A000A592061786973207A
:101090007374616C6C477561726432207472696735
:1010A0006765726564203A000A5920617869732087
:1010B0007374616C6C4775617264322076616C7513
:1010C0006520202020203A000A582061786973208A
:1010D0007374616C6C4775617264322066696C74FC
:1010E00065722069732064656163746976617465F3
:1010F000640A000A582061786973207374616C6C0B
:101100004775617264322066696C74657220697318
:10111000206163746976617465640A000A5920610C
:101120007869732073656E736F726C657373206872
:101130006F6D696E672063616C6962726174696F5B
:101140006E20203A000A5820617869732073656E1A
:10115000736F726C65737320686F6D696E6720635F
:10116000616C6962726174696F6E20203A0050721E
:10117000696E7420736176656421005A2076616C13
:101180007565206166746572206C696674203A200A
:1011900000537461727475702077697A617264208B
:1011A000736574207570210A0053746172747570D0
:1011B0002077697A6172642064697361626C656426
:1011C000210A00537461727475702077697A6172B4
:1011D00064207769746820454550524F4D207761EF
:1011E000726E696E6720616374697665210A0020FA
:1011F0006465677265657320636C6F636B77697391
:1012000065210020746F20636F72726563742072B1
:101210006F7461746520003A003A2D2D2D2072659F
:10122000666572656E636520706F696E740A005042
:101230006F696E742000496E76616C696420736515
:101240007269616C206E756D626572203A20005083
:1012500072696E74657220534E3A20005072696E46
:1012600074657220534E3A200047322F4733206274
:10127000616420706172616D65746572730A0053F8
:101280006C6565702E2E2E00205A3A200020593AA7
:10129000200042656420583A20004D657368207034
:1012A0006F696E742063616E6E6F74206265207268
:1012B00065736F6C7665640A004E6F206D6F76659E
:1012C0002E00456E642066696C65206C6973740A33
:1012D00000426567696E2066696C65206C6973748D
:1012E0000A004D313235005344207072696E7469C2
:1012F0006E67206279746520004E6F74205344201D
:101300007072696E74696E670A0020737472696E18
:10131000673A2022002569730025696D20256973CD
:10132000002569682025696D202569730025696499
:10133000202569682025696D202569730025697954
:1013400020256964202569682025696D2025697339
:10135000005072696E742074696D653A2000507295
:101360006F7465637465642050696E0A0042325878
:101370003330302076302E342072656164792E004F
:101380006F66660014060F0608060106F30544455D
:101390004255473A004B494C4C45442E20004D31B4
:1013A00031332053006F6B00423258333030207697
:1013B000302E34204F66662E00454D455247454E2F
:1013C00043595F50415253455200434153455F4C8E
:1013D000494748545F4252494748544E4553530089
:1013E000544F47474C455F4C494748545300534F6F
:1013F0004654574152455F504F5745520042554958
:101400004C445F50455243454E54004C4556454C64
:10141000494E475F44415441005A5F50524F424544
:10142000004155544F4C4556454C005052494E547E
:101430005F4A4F420050524F475245535300415567
:10144000544F5245504F52545F54454D5000564FE3
:101450004C554D455452494300454550524F4D005F
:1014600053455249414C5F584F4E5F584F464600D6
:101470004649524D574152455F4E414D453A4D61A7
:10148000726C696E20312E312E3820425643203244
:1014900020284769746875622920534F5552434587
:1014A0005F434F44455F55524C3A68747470733AC9
:1014B0002F2F6769746875622E636F6D2F4D61728F
:1014C0006C696E4669726D776172652F4D61726CE1
:1014D000696E2050524F544F434F4C5F5645525304
:1014E000494F4E3A312E30204D414348494E455FD9
:1014F000545950453A4232583330302076302E34E9
:101500002045585452554445525F434F554E543A26
:101510003120555549443A63656465326132662D20
:10152000343161322D343734382D396231322D6304
:1015300035356336326633363766660A002F2F201C
:10154000004D31343520533C696E6465783E206F20
:101550007574206F662072616E67652028302D31AA
:10156000290A0053657474696E6720547261766548
:101570006C20416363656C65726174696F6E3A20BB
:101580000053657474696E67205265747261637488
:1015900020416363656C65726174696F6E3A200007
:1015A00053657474696E67205072696E742041636C
:1015B00063656C65726174696F6E3A20005365747F
:1015C00074696E67205072696E7420616E64205475
:1015D000726176656C20416363656C6572617469E4
:1015E0006F6E3A20000001363726FF033C3D38FF7E
:1015F0000F2E303E12FFFF0C080907FFFF1A1C18C0
:10160000FFFF08440AFF43FFFFFFFFFFFF3A2000F0
:1016100020536572766F2000206F7574206F6620EE
:1016200072616E67650A00536572766F20005072B2
:101630006F6265205A204F66667365743A200020F9
:10164000643A0020693A0020703A006C63642063B9
:101650006F6E74726173742076616C75653A2000E8
:1016600043290A0061626C656420286D696E2074EC
:10167000656D702000436F6C6420657874727564CA
:101680006573206172652000426564204C65766553
:101690006C696E6720004661696C656420746F2018
:1016A000656E61626C6520426564204C6576656C90
:1016B000696E670A003A2000207A5F6D696E3A20F1
:1016C000202D3138207A5F6D61783A20202D330A41
:1016D0000050726F6265205A204F66667365740011
:1016E0004E6F2063617365206C696768740A0055EA
:1016F0006E6B6E6F776E20636F6D6D616E643A20F6
:101700002200506C6561736520776169742E005307
:1017100074617475733A20686F6D696E6720582B19
:10172000590053656E736F726C6573732D686F6DBE
:10173000696E673A2058590053656C662D7465735D
:10174000742057697A61726400506C65617365201A
:10175000776169742E005374617475733A686561BA
:1017600074696E67206E6F7A7A6C65000900436851
:10177000616E67652066696C616D656E7400436CAF
:1017800069636B20746F20636F6E74696E75652E6C
:10179000005374617475733A202068656174696ED2
:1017A0006720646F6E650009004368616E6765209D
:1017B00066696C616D656E740066696C616D656EFD
:1017C0007420746F20636F6E74696E75652E0043AC
:1017D0006C69636B206F7220696E73657274200090
:1017E0005374617475733A202068656174696E671B
:1017F00020646F6E650009004368616E676520664E
:10180000696C616D656E7400506C656173652077FD
:101810006169742E005374617475733A206C6F6142
:1018200064696E670009004368616E6765206669D8
:101830006C616D656E7400506C65617365207761D5
:1018400069742E005374617475733A20756E6C6FF1
:101850006164696E670009004368616E67652066B0
:10186000696C616D656E7400436C69636B20746FA5
:1018700020657869742E005374617475733A20730F
:1018800074616E64627900506C6561736520776184
:1018900069742E005374617475733A206D6F7669A4
:1018A0006E6700457874727564657220323A00453F
:1018B0007874727564657220313A004D616E75619D
:1018C0006C20657874727573696F6E00506C656119
:1018D000736520776169742E005374617475733A6F
:1018E000206D6F76696E6700090009004368616EBC
:1018F00067652066696C616D656E740047312058BC
:1019000031343620593539205A3530204638303078
:1019100030004731205A35302046333030300047D0
:1019200032380045786974004D616E75616C2045F0
:101930007874727573696F6E004175746F20556E9F
:101940006C6F6164004175746F204C6F616400427C
:1019500061636B0043504520202020202020202060
:1019600020202032383009430050432020202020FE
:101970002020202020202020323630094300414200
:10198000532F41534120202020202020203234306A
:101990000943005450552F464C4558202020202004
:1019A0002020323335094300504554472F4E594CBF
:1019B0004F4E2020202020323330094300504C412C
:1019C00020202020202020202020202032313009FB
:1019D00043004261636B00486561746572207469FD
:1019E0006D656F757420732E004865617465722093
:1019F00074696D656F757420732E00457874727507
:101A00006465722031004261636B00466C6F772021
:101A1000453100466C6F772045310046656564723C
:101A20006174650046656564726174650046616E47
:101A300020737065656420310046616E20737065A7
:101A4000656420310054656D7065726174757265EE
:101A5000204265640054656D7065726174757265CD
:101A6000204265640054656D7065726174757265BD
:101A70002045310054656D70657261747572652022
:101A80004531004E6F7A7A6C6520686569676874C5
:101A9000004261636B005072656865617420504C50
:101AA0004120456E64005072656865617420504C39
:101AB0004120426564005072656865617420504C35
:101AC00041004261636B005072656865617420413A
:101AD000425320456E640050726568656174204110
:101AE000425320426564005072656865617420410C
:101AF0004253004261636B004D6F76652058004D84
:101B00006F76652059004D6F7665205A004D6F76CF
:101B100065205A004D6F76652059004D6F7665201F
:101B200058004261636B00697373756520616E6470
:101B30002074727920616761696E2E007072696E1F
:101B40007465722C206669782074686500506C6535
:101B50006173652073687574646F776E207468654F
:101B600000506C6561736520776169742E00436C69
:101B700069636B20746F20636F6E74696E75652E78
:101B8000005374617475733A2000646574656374FE
:101B9000696F6E20626F6172642E200073746570CD
:101BA00070657220647269766572732E20007465A8
:101BB0007374207468652000546865206D616368E3
:101BC000696E652077696C6C206E6F77006F6E2090
:101BD0007468652055736572204D616E75616C2E59
:101BE00000224572726F7220436F64657322206316
:101BF00068617074657200506C656173652C206358
:101C00006865636B2074686500647572696E67202F
:101C10007468652073656C662D746573740041206B
:101C20006572726F72206F636375726564002873EA
:101C300063726F6C6C20746F2072656164206D6FCD
:101C400072652900436C69636B20746F2065786945
:101C5000742E004E6F7A7A6C6520686569676874C7
:101C60003A2000486F6D696E67205A3A204F4B004A
:101C7000486F6D696E6720593A00486F6D696E67ED
:101C800020583A00426C6F7765722046616E3A20A8
:101C90004F4B00486561746564206265643A204F6B
:101CA0004B00457874727564657220323A204F4B50
:101CB00000457874727564657220313A204F4B008C
:101CC000287363726F6C6C20746F2072656164207E
:101CD0006D6F726529007375636365737366756CE8
:101CE0006C792E0053656C662D7465737420636F78
:101CF0006D706C65746564007765726520726573DC
:101D000065742E00757064617465642C207365744D
:101D100074696E6773004D656D6F727920737472AC
:101D200075637475726520776173004E6F7A7A6C93
:101D30006520686569676874005A20617869732056
:101D4000746573743A20202D2D2D2D2D004E6F7A41
:101D50007A6C65206865696768743A202D2D2D2D91
:101D60002D004E6F7A7A6C65206865696768743AF1
:101D7000202D2D2D2D2D0050726F632E20636F644A
:101D8000653A204F43303100666F72206D6F726587
:101D900020696E666F726D6174696F6E2E006F6E72
:101DA000207468652055736572204D616E75616C95
:101DB0002000224F7468657220436F64657322208F
:101DC0006368617074657200506C656173652C2086
:101DD000636865636B20746865006E6F7220636F63
:101DE0006D706C6574656C7920737475636B0070CD
:101DF00061706572206973206E6569746865722010
:101E000066726565002E2041646A75737420756E74
:101E100074696C207468652000616E642074686564
:101E2000207072696E7420737572666163650062FA
:101E300065747765656E20746865206E6F7A7A6C5C
:101E4000652000506C61636520612070617065726F
:101E50002073686565742000287363726F6C6C2052
:101E6000746F2072656164206D6F726529004C4348
:101E700044206B6E6F622E0068656967687420622B
:101E800079207475726E696E672074686500506C95
:101E9000656173652C2061646A757374207468656C
:101EA000205A00706F736974696F6E004D6F7669A8
:101EB0006E6720746F2063616C6962726174696F10
:101EC0006E004C6576656C696E6720646F6E652187
:101ED0000053656E736F726C6573732D686F6D69F7
:101EE0006E673A2058590053656E736F726C657354
:101EF000732D686F6D696E673A205859005365728B
:101F0000766F206D6F746F723A2020202020204E53
:101F10004F4B00536572766F206D6F746F723A206D
:101F20002020202020204F4B005A20617869732008
:101F30006D6F74696F6E3A202020204E4F4B005A0F
:101F40002061786973206D6F74696F6E3A2020206C
:101F500020204F4B00506F7765726C6F73733A207F
:101F6000202020202020204E4F4B00506F7765729C
:101F70006C6F73733A2020202020202020204F4BAC
:101F80000045322053746570706572206472697602
:101F900065723A4E4F4B0045312053746570706541
:101FA00072206472697665723A4E4F4B005A205324
:101FB000746570706572206472697665723A204E3D
:101FC0004F4B0059205374657070657220647269BC
:101FD0007665723A204E4F4B0058205374657070EE
:101FE0006572206472697665723A204E4F4B0054D8
:101FF00072696E616D696320647269766572733AA5
:10200000204F4B2100426C6F7765722066616E3AFB
:102010002020202020202D2D2D2500426C6F77655B
:10202000722066616E3A20202020202020204F4B15
:10203000007072696E7465722073657475702E001D
:102040007468726F7567682074686520696E69745A
:1020500069616C00492077696C6C206775696465FB
:1020600020796F7500287363726F6C6C20746F2019
:1020700072656164206D6F7265290073656C662DF1
:10208000746573742077697A617264210057656C96
:10209000636F6D6520746F20746865204232583319
:1020A00030300053656C662D746573742077697ADF
:1020B00061726400202D204E6F00202D2059657321
:1020C000006472697665727320757064617465640A
:1020D0003F005765726520746865204578742073E9
:1020E0007465707065720053656C662D74657374E9
:1020F0002077697A61726400202D204E6F00202DB8
:102100002059657300202D2052657065617420741C
:1021100065737400576173205A206D6F74696F6E18
:1021200020736D6F6F74683F0053656C662D746526
:1021300073742077697A61726400202D204E6F00DD
:10214000202D20596573004973206C6576656C6994
:102150006E672061726D206F70656E3F0053656C15
:10216000662D746573742077697A61726400202D1E
:10217000204E6F00202D205965730049732074682C
:102180006520626C6F776572206163746976653F64
:102190000053656C662D746573742077697A61727B
:1021A0006400436C69636B20746F20736176652EE5
:1021B00020202020202020005374617475733A2061
:1021C000706C656173652061646A757374004E6F2D
:1021D0007A7A6C65206865696768740053656C6617
:1021E0002D746573742077697A61726400473238A0
:1021F0002058205900436F6E6669726D004261631A
:102200006B00536176652073657474696E67730043
:10221000436F6E6669726D004261636B0052657355
:1022200065742073657474696E67730053696C65B7
:102230006E74206D6F646500537465616C74682002
:102240006D6F6465004E6F726D616C206D6F6465BB
:102250000052657365742073657474696E677300EA
:1022600053746F72652073657474696E677300537D
:10227000656C662D746573742077697A6172640089
:102280004D6F74696F6E0054656D70657261747521
:102290007265004C434420636F6E74726173740006
:1022A0004C434420636F6E7472617374004D6F64AD
:1022B000653A202020202020204E6F726D616C2016
:1022C000004D6F64653A2020202020202053746543
:1022D000616C7468004D6F64653A202020202020D6
:1022E0002053696C656E7420004261636B004D334E
:1022F0003033205531204525692053256900504948
:10230000442D44204531005049442D44204531009E
:102310005049442D49204531005049442D4920451C
:1023200031005049442D50204531005049442D5032
:1023300020453100504944206175746F74756E6595
:1023400020453100504944206175746F74756E6585
:1023500020453100436F6F6C646F776E005072657B
:10236000686561742041425300507265686561740C
:1023700020504C41004261636B00416476616E63A2
:1023800065642073657474696E67730046616E20BE
:10239000737065656420310046616E2073706565F9
:1023A0006420310054656D706572617475726520CA
:1023B0004265640054656D70657261747572652064
:1023C0004265640054656D70657261747572652054
:1023D00045310054656D7065726174757265204594
:1023E00031004261636B005654726176206D696EF4
:1023F000005654726176206D696E00566D696E00EC
:10240000566D696E00566D6178204500566D617895
:10241000204500566D6178205A00566D6178205A2B
:1024200000566D6178205900566D6178205900562C
:102430006D6178205800566D6178205800426163C4
:102440006B00416D6178204500416D617820450049
:10245000416D6178205A00416D6178205A00416DCC
:102460006178205900416D6178205900416D617893
:10247000205800416D6178205800412D74726176BA
:10248000656C00412D74726176656C00412D72653A
:10249000747261637400412D7265747261637400BB
:1024A000416363656C00416363656C004261636B0B
:1024B0000056652D6A65726B0056652D6A65726BF4
:1024C00000567A2D6A65726B00567A2D6A65726BBA
:1024D0000056792D6A65726B0056792D6A65726BAC
:1024E0000056782D6A65726B0056782D6A65726B9E
:1024F000004261636B004573746570732F6D6D00EE
:102500004573746570732F6D6D005A7374657073C5
:102510002F6D6D005A73746570732F6D6D00597354
:10252000746570732F6D6D005973746570732F6DC2
:102530006D005873746570732F6D6D0058737465FA
:1025400070732F6D6D004261636B0053746570731F
:102550002F6D6D004A65726B00416363656C657237
:102560006174696F6E0046656564726174650054DC
:1025700072696E616D69632073657474696E6773E7
:10258000004261636B00450045005A005A00590043
:102590005900580058004261636B004175746F2008
:1025A00061646A7573740054657374205920686F90
:1025B0006D696E670047323820590A473238205912
:1025C0000A47323820590A47323820590A473238E8
:1025D000205900592063616C6962726174696F6E81
:1025E00000592063616C6962726174696F6E005496
:1025F000657374205820686F6D696E6700473238C4
:1026000020580A47323820580A47323820580A479B
:10261000323820580A473238205800582063616CFD
:102620006962726174696F6E00582063616C6962DF
:10263000726174696F6E004261636B00452074685B
:10264000726573686F6C64004520746872657368A6
:102650006F6C640059207468726573686F6C6400F5
:1026600059207468726573686F6C640058207468D0
:10267000726573686F6C6400582074687265736863
:102680006F6C64004261636B004532206E6F6E2098
:10269000535049004F6666004F6E20004531206E52
:1026A0006F6E20535049004F6E20004F6666004FFA
:1026B0006E20005A206E6F6E20535049004F6666A0
:1026C000004261636B0052657365742064656661E6
:1026D000756C74004E6F6E2053504920544D43204A
:1026E000647269766572005374616C6C67756172AF
:1026F00064322073657474696E67730053656E731A
:102700006F726C65737320686F6D696E67005374C8
:1027100065707065722063757272656E74004261D7
:10272000636B0043616E6E6F7420656E746572201A
:102730007375626469723A20004D37313200022E9F
:102740002E004261636B0020204E6F7A7A6C653AEE
:1027500020004261636B004D696E696D756D205498
:10276000656D70206973203137302E0048656174C3
:10277000696E67206661696C65640045787472757E
:102780006465206D6F7265004261636B20202020BC
:10279000202020202020202020202020040043680A
:1027A000616E67652066696C616D656E740046696F
:1027B0006C616D656E742072756E6F757400506C0F
:1027C0006561736520776169742E00537461747557
:1027D000733A20726573756D696E6700506C656140
:1027E000736520776169742E005374617475733A50
:1027F00020657874727564696E6700506C656173EA
:102800006520776169742E005374617475733A2082
:102810006C6F6164696E6700616E6420636C6963EC
:102820006B20746F20636F6E74696E756500506CF9
:10283000656173652C206C6F61642066696C616DE5
:10284000656E74005374617475733A2077616974AE
:10285000696E6700436C69636B20746F20726568F2
:102860006561742E005374617475733A20737461DA
:102870006E64627900506C6561736520776169747C
:102880002E005374617475733A2068656174696EC3
:102890006700506C6561736520776169742E005321
:1028A00074617475733A20756E6C6F6164696E67DC
:1028B00000506C6561736520776169742E005374F4
:1028C000617475733A206D6F76696E670009004315
:1028D00068616E67652066696C616D656E7400463F
:1028E000696C616D656E742072756E6F75740043EE
:1028F0006172642072656D6F766564004361726415
:1029000020696E736572746564005344204E4F4BAA
:102910002C207265696E7365727420534421000027
:10292000060900FE0701920321207FFF07FF07FF32
:10293000000000060000010707060200808080807A
:10294000800080030202060105A0A005070706001B
:10295000005050F850F85050050707060000207846
:10296000A07028F020050707060000C0C81020400E
:1029700098180507070600006090A040A89068021C
:102980000303060104C0408003070706010020403E
:10299000808080402003070706010080402020201F
:1029A000408005050506000120A870A82005050542
:1029B0000600012020F820200203030602FFC04089
:1029C00080050101060003F8020202060200C0C0F1
:1029D00005050506000108102040800507070600D0
:1029E000007088888888887003070706010040C047
:1029F00040404040E00507070600007088087080EE
:102A000080F8050707060000F81020100808F005F8
:102A1000070706000010305090F810100507070651
:102A20000000F880F00808887005070706000070AD
:102A30008080F0888870050707060000F8081020DD
:102A4000202020050707060000708888708888709D
:102A500005070706000070888878080870020505D9
:102A6000060200C0C000C0C00206060602FFC0C0C9
:102A700000C040800407070600001020408040206E
:102A800010050303060002F800F80407070601001A
:102A9000804020102040800507070600007088084D
:102AA0001020002005070706000070880868A8A805
:102AB00070050707060000708888F8888888050771
:102AC00007060000F08888F08888F00507070600F0
:102AD0000070888080808870050707060000F088F5
:102AE00088888888F0050707060000F88080F08055
:102AF00080F8050707060000F88080F080808005D8
:102B00000707060000708880B888887005070706E8
:102B10000000888888F888888801070706020080F6
:102B20008080808080800507070600003810101024
:102B30001090600507070600008890A0C0A090884C
:102B4000050707060000808080808080F805070761
:102B500006000088D8A8888888880507070600002E
:102B60008888C8A8988888050707060000708888A4
:102B700088888870050707060000F08888F0808044
:102B80008005070706000070888888A890680507F8
:102B900007060000F08888F0A09088050707060067
:102BA00000788080700808F0050707060000F8200C
:102BB00020202020200507070600008888888888B4
:102BC00088700507070600008888888888502005D7
:102BD00007070600008888888888A8500507070628
:102BE0000000888850205088880507070600008864
:102BF000888850202020050707060000F8081020CC
:102C00004080F8030707060100E08080808080E0B4
:102C1000050505060001804020100803070706018E
:102C200000E02020202020E00503030600042050BF
:102C300088050101060000F8020202060205804034
:102C40000505050600007008788878050707060066
:102C5000008080B0C88888F00505050600007080F7
:102C6000808870050707060000080868988888783B
:102C70000505050600007088F88070050707060046
:102C8000003048E0404040400506060600FF7088DE
:102C9000887808700507070600008080B0C888881B
:102CA000880107070602008000808080808003087A
:102CB000080601FF200020202020A040040707066E
:102CC0000000808090A0C0A090030707060100C00C
:102CD0004040404040E0050505060000D0A8A8A8F7
:102CE000A8050505060000B0C88888880505050602
:102CF000000070888888700506060600FFF0888846
:102D0000F080800506060600FF78888878080805A8
:102D10000505060000B0C880808005050506000096
:102D200070807008F00407070600004040E0404053
:102D30004030050505060000888888986805050567
:102D40000600008888885020050505060000888850
:102D5000A8A85005050506000088502050880506E3
:102D6000060600FF888888780870050505060000BB
:102D7000F8102040F803070706010020404080407B
:102D80004020010707060200808080808080800349
:102D900007070601008040402040408005020206EF
:102DA0000002689000000006000000060900FE0016
:102DB0000000000001090008FE00000508080600E8
:102DC0000040F0C88888987810050808060000C000
:102DD000F88888888888F80505050600012030F8FD
:102DE00030200508080600002070F820202020E090
:102DF0000509090600FF2070A8A8B888887020057A
:102E000009090600FFE080C0B0A82830282805097D
:102E1000090600FFF8A88888888888A8F8050A0AA3
:102E20000600FE205050505088A8A8887003030365
:102E300006000340A0401000C90210012C0140010F
:102E4000220170011801B0010E01F00104015002CD
:102E5000FA00B002F0003003E600D003DC0090047A
:102E6000D2007005C800A006BE000008B400B0097A
:102E7000AA00D00BA000600E960060118C00001517
:102E8000820020197800C01D6E00A0226400B027C7
:102E90005A00902C500000314600E0343C001038BD
:102EA0003200903A2800603C1E00A03D1400803E95
:102EB0000A00203F000066696C616D656E743A20FF
:102EC000007A5F6D696E3A2000795F6D61783A2013
:102ED00000785F6D61783A20005265706F72746996
:102EE0006E6720656E6473746F702073746174759F
:102EF000730A0020746F6F206C6F6E6720657874A2
:102F0000727573696F6E2070726576656E74656434
:102F10000A0020636F6C6420657874727573696F42
:102F20006E2070726576656E7465640A0024F4D450
:102F30003050C38E20C2A24017828B7011127A913A
:102F40000D816CD90AA861E108C758660761514331
:102F5000061E4B5D05C145A7041A411104093D98A1
:102F600003713931034036DB0265339102D43054AA
:102F700002802E1D02632CEE01752AC501B028A027
:102F800001102781018F2564012B244B01E022349D
:102F900001AC211F018D200D01801FFC00841EED5E
:102FA00000971DDF00B81CD200E61BC600201BBC2A
:102FB00000641AB200B219A8000A19A0006A189990
:102FC00000D117910040178B00B516840031167E92
:102FD00000B31579003A157300C7146F0058146ACE
:102FE00000EE1366008813630025135E00C7125BB2
:102FF000006C12570015125400C111510070114F8E
:103000000021114B00D61049008D10470046104496
:103010000002104200C00F4000800F3E00420F3CF3
:1030200000060F3B00CB0E3800930E37005C0E35C8
:1030300000270E3400F30D3200C10D3100900D3029
:1030400000600D2E00320D2D00050D2C00D90C2B2B
:1030500000AE0C2900850C29005C0C2700350C27DC
:10306000000E0C2600E80B2400C40B2400A00B2348
:10307000007D0B23005A0B2100390B2100180B2077
:1030800000F80A1F00D90A1E00BB0A1E009D0A1D77
:1030900000800A1D00630A1C00470A1B002C0A1B43
:1030A00000110A1A00F7091A00DD091900C40919EC
:1030B00000AB091900920917007B09180063091772
:1030C000004C09160036091600200916000A0915D9
:1030D00000F5081500E0081400CC081400B8081426
:1030E00000A4081400900813007D0812006B081358
:1030F0000058081200460812003408110023081175
:10310000001208110001081100F0071000E007107C
:1031100000D0071000C0071000B0070F00A1071073
:103120000091070E0083070F0074070F0065070E5C
:103130000057070E0049070E003B070D002E070E33
:103140000020070D0013070D0006070D00F9060CFF
:1031500000ED060D00E0060C00D4060C00C8060CBD
:1031600000BC060C00B0060C00A4060B0099060C6F
:10317000008D060B0082060B0077060B006C060B19
:103180000061060A0057060B004C060A0042060AB8
:103190000038060A002E060A0024060A001A060A4B
:1031A000001006090007060A00FD050900F40509DC
:1031B00000EB050900E2050900D9050900D0050961
:1031C00000C7050900BE050900B5050800AD0508E2
:1031D00000A50509009C050800940508008C050859
:1031E00000840508007C050800740508006C0507CC
:1031F00000650508005D050700560508004E050737
:10320000004705070040050800380507003105079D
:10321000002A050700230507001C05060016050700
:10322000000F0507000805060002050700FB04065D
:1032300000F5040700EE040600E8040600E20407B7
:1032400000DB040600D5040600CF040600C904060E
:1032500000C3040600BD040600B7040600B104055F
:1032600000AC040600A6040600A00405009B0406AA
:103270000095040500900406008A040500850405F5
:1032800000800406007A040500750405007004053A
:10329000006B04050066040500610405005C04057C
:1032A0000057040500520405004D040500480405BC
:1032B00000430405003E0404003A040500350405FB
:1032C00000300404002C0405002704040023040536
:1032D000001E0404001A040400160405001104046E
:1032E000000D0404000904050004040400000404A3
:1032F00000FC030400F8030400F4030400F00304DA
:1033000000EC030400E8030400E4030400E0030409
:1033100000DC030400D8030400D4030400D0030439
:1033200000CC030400C8030300C503030024F40415
:10333000D9201BC40C5C0E9804C4095F0265077198
:1033400001F405F900FB04B30048048700C10369D8
:10335000005803550003034500BE023A00840231C1
:103360000053022A002902250004022000E4011C67
:1033700000C8011900AF011700980114008401135F
:1033800000710110006101100051010E0043010D98
:103390000036010B002B010B0020010B0015010969
:1033A000000C01090003010800FB000800F30008FD
:1033B00000EB000700E4000600DE000600D800066F
:1033C00000D2000600CC000500C7000500C20005C1
:1033D00000BD000400B9000400B5000400B1000401
:1033E00000AD000400A9000400A5000300A2000332
:1033F000009F0004009B000300980003009500025A
:103400000093000300900003008D0002008B000376
:103410000088000200860002008400030081000290
:10342000007F0002007D0002007B000200790002A4
:1034300000770001007600020074000200720001B3
:1034400000710002006F0002006D0001006C0002BC
:10345000006A0001006900020067000100660001C7
:1034600000650001006400020062000100610001CB
:1034700000600001005F0002005D0001005C0001CF
:10348000005B0001005A00010059000100580001D2
:1034900000570001005600010055000100540001D2
:1034A00000530000005300010052000100510001D0
:1034B00000500001004F0001004E0000004E0001CE
:1034C000004D0001004C0001004B0000004B0001CA
:1034D000004A0001004900010048000000480001C6
:1034E00000470001004600000046000100450000C2
:1034F00000450001004400010043000000430001BA
:1035000000420000004200010041000000410001B3
:1035100000400001003F0000003F0001003E0000AD
:10352000003E0001003D0000003D0001003C0000A5
:10353000003C0000003C0001003B0000003B00019B
:10354000003A0000003A0001003900000039000193
:10355000003800000038000000380001003700008B
:103560000037000100360000003600000036000180
:103570000035000000350000003500010034000077
:10358000003400000034000100330000003300006C
:103590000033000100320000003200000032000160
:1035A0000031000000310000003100010030000057
:1035B0000030000000300001002F0000002F00004C
:1035C000002F0000002F0001002E0000002E000040
:1035D000002E0001002D0000002D0000002D000035
:1035E000002D0001002C0000002C0000002C000029
:1035F000002C0001002B0000002B0000002B00001D
:10360000002B0001002A0000002A0000002A000010
:10361000002A000100290000002900000029000004
:1036200000290000002900010028000000280000F7
:1036300000280000002800000028000100270000EA
:1036400000270000002700000027000000270001DD
:1036500000260000002600000026000000260000D2
:1036600000260001002500000025000000250000C4
:1036700000250000002500000025000100240000B6
:1036800000240000002400000024000000240001A9
:10369000002300000023000000230000002300009E
:1036A000002300000023000000230001002200008E
:1036B0000022000000220000002200000022000082
:1036C0000022000100210000002100000021000074
:1036D0000021000000210000002100000021000165
:1036E000002000000020000000200000002000005A
:1036F0000020000000200000002000000020000149
:10370000001F0000001F0000001F0000001F00003D
:10371000001F0000001F0000001F0001001E00002D
:10372000001E0000001E0000001E0000004D383486
:1037300020582059205A2045006265640A002C2038
:1037400073797374656D2073746F70706564212074
:103750004865617465725F49443A200070012C012C
:1037600090012701B0012201C0011D01F0011801E3
:103770001002130130020E016002090190020401DF
:10378000C002FF000003FA004003F5008003F000D0
:10379000D003EB002004E6007004E100E004DC004C
:1037A0004005D700C005D2004006CD00D006C800B5
:1037B0008007C3003008BE00F008B900C009B4009B
:1037C000B00AAF00B00BAA00D00CA500000EA000FC
:1037D000500F9B00C01096005012910000148C00F6
:1037E000C0158700B0178200B0197D00D01B78008B
:1037F000001E730040206E0090226900F0246400D7
:1038000040275F0090295A00E02B5500102E5000F1
:1038100020304B0010324600E033410090353C0030
:103820001037370070383200A0392D00B03A280028
:10383000A03B2300603C1E00103D1900903D140089
:10384000103E0F00703E0A00C03E0500003F000021
:10385000403FFBFF803FF6FFC03FF1FF5448455219
:103860004D414C2052554E415741590054686572A4
:103870006D616C2052756E61776179004572723AA4
:10388000204D494E54454D502042454400457272EA
:103890003A204D494E54454D50004D494E54454DEA
:1038A0005020747269676765726564004572723A88
:1038B000204D415854454D502042454400457272B8
:1038C0003A204D415854454D50004D415854454DB6
:1038D000502074726967676572656400202F00204C
:1038E00042403A0020403A00436C69636B20746F99
:1038F000207265696E7365727420534E00506C655A
:1039000061736520696E7365727420534E2E004397
:103910006C69636B20746F20636F6E74696E75657C
:103920002E00534E3A2000636F6E666967757265AC
:10393000642E0053657269616C206E756D626572EC
:10394000206973206E6F770053657269616C206E19
:10395000756D62657220696E76616C6964210066BE
:103960006F7220796F7572206D616368696E652E64
:10397000006C6F6164207468652073657474696E8F
:103980006773007072696E74657220746F20636F64
:1039900072726563746C7900546869732077696C1E
:1039A0006C20616C6C6F7720746865006E6578744C
:1039B00020746F2065787472756465722045312EAD
:1039C000006261636B206F662074686520707269A5
:1039D0006E7465722C006F6E207468652073746954
:1039E000636B6572206F6E20746865007365726921
:1039F000616C206E756D6265722070726573656EA4
:103A00007400506C6561736520696E736572742013
:103A100074686500287363726F6C6C20746F207219
:103A2000656164206D6F72652900666F756E642E26
:103A30000053657269616C206E756D626572206EEF
:103A40006F740053657269616C206E756D6265728A
:103A50002077697A61726400202D204E6F00202D3E
:103A600020596573004973207468697320636F720D
:103A7000726563743F00534E3A200053657269616A
:103A80006C206E756D6265722077697A6172640070
:103A9000436C69636B20746F20736176652E202000
:103AA0002020202020005374617475733A20706CBC
:103AB000656173652061646A757374004E6F7A7A0C
:103AC0006C6520686569676874004C6576656C692B
:103AD0006E672061646A757374004E6F7A7A6C65E4
:103AE0002068656967687400536574206E6F7A7A20
:103AF0006C6520686569676874004739310A473129
:103B0000205A350A473238205820590A4731205860
:103B10002D32300A4739300A4D383400436C69631E
:103B20006B20746F20636F6E74696E75652E005024
:103B30006C6561736520776169742E0050726F63E4
:103B40002E20636F64653A204F43303100666F72F8
:103B5000206D6F726520696E666F726D6174696F3A
:103B60006E2E006F6E207468652055736572204D4F
:103B7000616E75616C00224F7468657220436F64DA
:103B8000657322206368617074657200506C6561B2
:103B900073652C20636865636B20746865007175BC
:103BA000616C697479206465637265617365732EF5
:103BB000006F7468657277697365206C6576656CF3
:103BC000696E670061646A7573746D656E742070E8
:103BD0006F696E74732C00726573697374616E63C0
:103BE00065206265747765656E00456E73757265F4
:103BF000206120636F6E73697374656E74006E6FFD
:103C00007220636F6D706C6574656C792073747568
:103C1000636B007061706572206973206E656974F2
:103C20006865722066726565002E2041646A75734E
:103C30007420756E74696C2074686500616E642010
:103C4000746865207072696E742073757266616342
:103C500065006265747765656E20746865206E6FB7
:103C60007A7A6C6500506C616365206120706170C8
:103C7000657220736865657400287363726F6C6C7D
:103C800020746F2072656164206D6F726529004C2D
:103C90004344206B6E6F622E00686569676874200C
:103CA0006279207475726E696E6720746865005061
:103CB0006C656173652C2061646A75737420746827
:103CC00065205A00636F6D706C6574652100506FDC
:103CD000696E742061646A7573746D656E740048F2
:103CE00065696768742061646A7573746D656E7464
:103CF000005374617475733A204D6F76696E670076
:103D00004E6F7A7A6C65206865696768743A202D11
:103D10002D2D2D2D005374617475733A2066696ED4
:103D200064696E67206D657368004E6F7A7A6C65A2
:103D3000206865696768743A202D2D2D2D2D004C63
:103D40006576656C696E672061646A75737400538B
:103D50006574206E6F7A7A6C65206865696768742F
:103D6000004739310A4731205A350A47323820583E
:103D700020590A473120582D32300A4739300A4D30
:103D80003834003A2000436F7272656374696F6E55
:103D9000200046726F6E7420726967687400467204
:103DA0006F6E74207269676874004261636B207281
:103DB00069676874004261636B20726967687400A8
:103DC0004261636B206C656674004261636B206CBA
:103DD0006566740046726F6E74206C65667400468A
:103DE000726F6E74206C656674004261636B004193
:103DF0006476616E6365642073657474696E67735D
:103E0000004C6576656C696E672061646A757374D1
:103E1000004261636B0025753A253032750025300C
:103E200032753A253032750025756420253032759B
:103E30003A25303275005A0059005800092000090F
:103E400020000000000000000000000000007FFFD4
:103E5000E00000000000000000000000007000E032
:103E600000000000000000000000000061F8600099
:103E7000000000000000000000000041F8200000E9
:103E80000000000000000000000040F020000000E2
:103E90000000000000000000004060200000000062
:103EA00000000000000000005801A07F800000001A
:103EB000000000004104005C63A0FFC0000000009F
:103EC0000000002082005EF7A0FFC000000000009C
:103ED00000002082005EF7A0FFC00000000000008C
:103EE000004104005C63A07F80000000000000002F
:103EF0008208005801A07F8000000000000001043B
:103F00001000406020FFC00000000000000104100D
:103F10000040F020FFC00000000000000082080008
:103F200041F820FFC00000000000000041040061D3
:103F3000F8603F000000000000000000000070007A
:103F4000E01E0000000000000001FFFF807FFFE096
:103F50000C0000000000000001FFFF8000000000D6
:103F600000000000000000000000007FFFE00000F3
:103F7000000000000000000000007000E0000000F1
:103F8000000000000000000000630C600000000062
:103F90000000000000000000470E200000000000AC
:103FA000000000000000004F0F2000000000000093
:103FB0000000000000005F0FA000000000000000F3
:103FC00000000000005E07A07F80000000000000ED
:103FD00000410400406020FFC0000000000000001D
:103FE00020820040F020FFC0000000000000002000
:103FF000820040F020FFC0000000000000004104EB
:10400000004060207F800000000000000082080067
:104010005E07A07F80000000000000010410005F28
:104020000FA0FFC0000000000000010410004F0FAF
:1040300020FFC000000000000000820800470E20A2
:10404000FFC000000000000000410400630C603F5E
:1040500000000000000000000000007000E01E00F2
:1040600000000000000001FFFF807FFFE00C000067
:10407000000000000001FFFF80000000436C696346
:104080006B20746F20657869742E0070726F6365A1
:10409000737320756E74696C20636C65616E2E009D
:1040A000706C6561736520726570656174207468F9
:1040B00065006578747261637465642066696C611B
:1040C0006D656E742000287363726F6C6C20746F62
:1040D0002072656164206D6F726529006F6E2074B7
:1040E000686520746970206F6620746865200049D7
:1040F00066207468657265206973207265736964EF
:10410000756500436F6C642070756C6C2066696E19
:1041100069736865642100506C6561736520707512
:104120006C6C2066696C616D656E742E00537461F1
:104130007475733A2020636F6C642070756C6C69C1
:104140006E67000900436C69636B20746F20636FB6
:104150006E74696E75652E0066696C616D656E744E
:104160002E200070756C6C20666F726365206F6E18
:104170002074686500506C656173652C20617070F7
:104180006C792061206576656E00436C69636B20F5
:10419000746F20636F6E74696E75652E0066726F42
:1041A0006D20746865206E6F7A7A6C652E200061D0
:1041B0006E79206C6566746F7665722066696C61D5
:1041C0006D656E7400506C656173652C2070756C44
:1041D0006C206177617900506C656173652077614F
:1041E00069742E005374617475733A20707265702F
:1041F0006172696E67000900506C656173652077B4
:104200006169742E005374617475733A206C6F6128
:1042100064696E67000900436C69636B20746F20EA
:104220006C6F61642E00776974686F7574207573A4
:10423000696E672073656E736F722E00496E7365C9
:1042400072742066696C616D656E742000537461D0
:104250007475733A202068656174696E6720646FB5
:104260006E6500506C6561736520776169742E001E
:104270005374617475733A20756E6C6F6164696E06
:1042800067000900436C69636B20746F20636F6E75
:1042900074696E75652E007468652066696C616D61
:1042A000656E742073656E736F722E006D61792078
:1042B00067657420737475636B20696E73696465D8
:1042C000006F66207468652066696C616D656E7448
:1042D000207468617400696E206120656E6C617283
:1042E0006765642074697000436F6C642070756C3E
:1042F0006C20726573756C747300287363726F6CD5
:104300006C20746F2072656164206D6F7265290086
:10431000756E6C6F6164206973206E65636573737D
:10432000617279210066696C616D656E74207365D8
:104330006E736F720046696C616D656E74206465A2
:10434000746563746564206F6E00506C656173659D
:1043500020776169742E005374617475733A6865CF
:104360006174696E67206E6F7A7A6C65000900432C
:104370006C69636B20746F20636F6E74696E756512
:104380002E00657874727573696F6E2070726F623B
:104390006C656D7300696620746865726520617272
:1043A0006520616E79006265747765656E20666967
:1043B0006C616D656E7473206F72004232583330D9
:1043C000302C207768656E206368616E67696E6760
:1043D000006E6F7A7A6C6573206F6620796F7572E4
:1043E0000068656C7020796F7520636C65616E2064
:1043F00074686500546869732070726F63657373C5
:104400002077696C6C2000287363726F6C6C207469
:104410006F2072656164206D6F7265290077697A1B
:10442000617264210057656C636F6D6520746F2045
:10443000636F6C642070756C6C00436F6C642070EB
:10444000756C6C005043202020202020202020204C
:1044500020202032363009430041425320202020C2
:1044600020202020202020203234300943005045D5
:1044700054472F4E594C4F4E2020202020323330AD
:10448000094300504C4120202020202020202020C3
:1044900020203231300943004261636B004578745B
:1044A00072756465722031004261636B00436F6C0A
:1044B000642070756C6C004D373130004D373132EF
:1044C00000202D204E6F00202D205965730052656D
:1044D000636F766572207072696E743F00506F77FB
:1044E00065726C6F737320646574656374656400D2
:1044F000436C69636B20746F2063616E63656C2E1F
:10450000004175746F2D7265636F766572696E67B1
:10451000207072696E7400506F7765726C6F737380
:1045200020646574656374656400436C69636B2023
:10453000746F20636F6E74696E75652E006375739A
:10454000746F6D65722073657276696365210050C2
:104550006C6561736520636F6E74616374004532CE
:104560002073746570706572206661756C742100CB
:1045700045312073746570706572206661756C7466
:1045800021005A2073746570706572206661756CC5
:1045900074210059207374657070657220666175AE
:1045A0006C742100582073746570706572206661A8
:1045B000756C742100636F6D6D756E6963617469EC
:1045C0006F6E206572726F723A00544D432073749F
:1045D00065707065722064726976657200547269E4
:1045E0006E616D6963204661756C740041626F7520
:1045F00074004D616368696E652073657474696EDB
:104600006773005265747279205344206361726449
:10461000004D3231005072696E74004D61696E74E4
:10462000656E616E6365005072696E74004261630D
:104630006B005072696E7420706175736564004D13
:1046400031323500004D3234004739310A473120CC
:104650005A350A473238205820590A473120582DF8
:1046600032300A4739300A4D3834005072696E745E
:104670002063616E63656C6564004D3630302042A6
:1046800030004368616E67652066696C616D656EB8
:10469000740043616E63656C207072696E740052C1
:1046A0006573756D65207072696E74005072696E05
:1046B000742073657474696E6773005061757365F7
:1046C000207072696E74004261636B004C657665A0
:1046D0006C20626564004732390A4732382058201E
:1046E000590A4D3530300A4739310A473120582DA3
:1046F00032300A4739300A473420503230300A20ED
:104700004D33303020533430303020503230300A86
:10471000473420503530300A204D33303020533468
:10472000303030205032303000436F6C6420707570
:104730006C6C00496D70726F7665206C6576656C87
:10474000696E6700536574206E6F7A7A6C652068B5
:104750006569676874004175746F20686F6D6500E6
:10476000473238004D6F7665206178697300436881
:10477000616E67652066696C616D656E740042618B
:10478000636B0045322053746570706572206472EB
:10479000697665723A4E4F4B00453120537465700F
:1047A000706572206472697665723A4E4F4B005A9A
:1047B0002053746570706572206472697665723A10
:1047C000204E4F4B00592053746570706572206401
:1047D00072697665723A204E4F4B005820537465CB
:1047E00070706572206472697665723A204E4F4B24
:1047F00000534E3A20004E6F7A7A6C6520686569E6
:104800006768743A2000446961676E6F7374696306
:1048100020496E666F2E0042454556455259435217
:1048200045415449564500656E67696E6565726518
:1048300064206279006F70656E20736F75726365B6
:10484000206669726D77617265004D61726C696E88
:104850002D666F726B00436C69636B20746F2073FD
:104860006176652E20202020202020005374617462
:1048700075733A20706C656173652061646A757345
:1048800074004E6F7A7A6C65206865696768740099
:104890004C697665206E6F7A7A6C65206865696709
:1048A000687400576F726B696E672E2E2E00576FFB
:1048B000726B696E672E2E00576F726B696E672E72
:1048C00000576F726B696E67006578706563746519
:1048D000642E004E6F69736520616E6420696D708F
:1048E00061637473206172650053656E736F726CDF
:1048F0006573732D686F6D696E673A205800536554
:104900006C662D746573742057697A617264005700
:104910006F726B696E672E2E2E00576F726B696E09
:10492000672E2E00576F726B696E672E00576F727D
:104930006B696E670065787065637465642E004E00
:104940006F69736520616E6420696D706163747353
:10495000206172650053656E736F726C6573732DA1
:10496000686F6D696E673A20590053656C662D74E7
:104970006573742057697A61726400506C65617365
:104980006520776169742E005374617475733A20E1
:104990004F4B210053656E736F726C6573732D6896
:1049A0006F6D696E673A20580053656C662D7465AB
:1049B00073742057697A61726400506C6561736525
:1049C00020776169742E005374617475733A204FB7
:1049D0004B210053656E736F726C6573732D686F36
:1049E0006D696E673A20590053656C662D74657366
:1049F000742057697A6172640045786974696E67DA
:104A000020626C6F636B696E672073637265656E9D
:104A10000A00526573656E643A20006F6B00207463
:104A20006F6F206C6F6E6720657874727573696F35
:104A30006E2070726576656E7465640A0020636F1F
:104A40006C6420657874727573696F6E207072651E
:104A500076656E7465640A004D363030204600621B
:104A60007573793A2070617573656420666F722082
:104A7000696E7075740A00627573793A2070617599
:104A800073656420666F7220757365720A006275C3
:104A900073793A2070726F63657373696E670A0089
:104AA0004B494C4C45442E20004B494C4C206361F3
:104AB00075736564206279204B494C4C2062757493
:104AC000746F6E2F70696E0A004B494C4C45442E32
:104AD00020004B494C4C20636175736564206279FA
:104AE00020746F6F206D75636820696E61637469EF
:104AF00076652074696D65202D2063757272656E10
:104B00007420636F6D6D616E643A200045312064DE
:104B1000697361626C65640A004530206469736181
:104B2000626C65640A00506C656173652072657320
:104B30006574005052494E5445522048414C5445EA
:104B400044005072696E7465722068616C746564AB
:104B50002E206B696C6C28292063616C6C65642164
:104B60000A005072696E7420736176656421006575
:104B700072726F722077726974696E6720746F2029
:104B800066696C650A00205A3A0020593A0020589C
:104B90003A00656E6473746F7073206869743A20AC
:104BA00000446F6E6520736176696E672066696C7C
:104BB000652E0A004D323900747275650066616CAD
:104BC000736500747275650066616C73650074725C
:104BD00075650066616C736500313D2E31380030BB
:104BE0003D2E333235002F3331002F3331002F3338
:104BF0003100747275650066616C736500203D203C
:104C00003078005800580058005800580058005894
:104C100000580058000900206178697320647269A7
:104C20007665722063757272656E743A20007472D4
:104C300075650066616C7365002061786973207426
:104C4000656D7065726174757265207072657761EB
:104C5000726E207472696767657265643A2000201D
:104C60007072657761726E20666C616720636C6537
:104C7000617265640A002064726976657220686FEB
:104C80006D696E672073656E73697469766974798E
:104C90002073657420746F20004163746976652009
:104CA00045787472756465723A20004D3630302054
:104CB000486F74656E6420746F6F20636F6C64203E
:104CC000746F206368616E67652066696C616D65ED
:104CD0006E740A007C3C3E5E2B3D3F2F5B5D3B2C9F
:104CE0002A225C004572726F722077726974696E55
:104CF0006720746F20454550524F4D210A00506F78
:104D0000696E7420343A00506F696E7420333A0033
:104D1000506F696E7420323A00506F696E742031A2
:104D20003A00454550524F4D2076657273696F6E5B
:104D3000206D69736D6174636820005570646174DF
:104D4000696E6720454550524F4D207665727369F4
:104D50006F6E20423032202D3E204230330A002038
:104D60004D61726C696E3D4230330A0045455052C8
:104D70004F4D3D00B80B0000B80B0000C80000000C
:104D80001027000000004843000048430000C040D6
:104D90000000704220520020204D393030204B005E
:104DA0004C696E65617220416476616E63653A0A92
:104DB000000A0946726F6E74207269676874200079
:104DC0000A094261636B20726967687420000A09EE
:104DD0004261636B206C6566742000426564206CE0
:104DE0006576656C696E6720696D70726F76656D4A
:104DF000656E74206D6D3A0A0946726F6E74206C90
:104E00006566742000200A007C42696E6172793AFE
:104E10000045322000453120005A2000592000581A
:104E20002000544D43206E6F6E205350493A2000AD
:104E300020453120002045302000205A20002059F4
:104E400020002058200053746570706572206472D1
:104E5000697665722063757272656E743A0A002015
:104E6000204D383531205A005A2D50726F6265201E
:104E70004F666673657420286D6D293A0A002044D8
:104E80000020490020204D333034205000204400C1
:104E900020490020204D333031205000504944201B
:104EA00073657474696E67733A0A00204600204285
:104EB0000020480020204D3134352053004D6174CE
:104EC000657269616C2068656174757020706172CB
:104ED000616D65746572733A0A0020204D3432307A
:104EE0002053004175746F20426564204C657665DF
:104EF0006C696E673A0A00205A0020590020204D44
:104F0000323036205800486F6D65206F66667365D5
:104F1000743A0A00204500205A0020590020580009
:104F200020420020540020204D32303520530041D3
:104F30006476616E6365643A20533C6D696E5F66AA
:104F4000656564726174653E20543C6D696E5F7482
:104F5000726176656C5F66656564726174653E203A
:104F6000423C6D696E5F7365676D656E745F7469F1
:104F70006D655F75733E20583C6D61785F78795F31
:104F80006A65726B3E205A3C6D61785F7A5F6A6534
:104F9000726B3E20453C6D61785F655F6A65726B40
:104FA0003E0A0020540020520020204D3230342090
:104FB0005000416363656C65726174696F6E20288F
:104FC000756E6974732F7332293A20503C70726980
:104FD0006E745F616363656C3E20523C72657472EF
:104FE0006163745F616363656C3E20543C747261FD
:104FF00076656C5F616363656C3E0A002045002046
:105000005A0020590020204D3230312058004D6187
:1050100078696D756D20416363656C657261746953
:105020006F6E2028756E6974732F7332293A0A00E7
:10503000204500205A0020590020204D32303320D6
:1050400058004D6178696D756D20666565647261A3
:105050007465732028756E6974732F73293A0A007A
:10506000204500205A0020590020204D3932205878
:105070000053746570732070657220756E69743AA0
:105080000A0020204D3230302044300A0020204DCC
:105090003230302044002044697361626C65640AD8
:1050A0000046696C616D656E742073657474696E19
:1050B00067733A0020204D3134392043203B20557E
:1050C0006E69747320696E2043656C736975730A29
:1050D000002020473231202020203B20556E69746B
:1050E0007320696E206D6D0A00476C6F62616C20E1
:1050F00073657474696E67733A0A00FFE0FFD1103C
:1051000000FFFEFFD0FFE0FFC1FFD1E240A0C8A634
:10511000A22FF800238127AC00AFFF64A5FF64FF36
:1051200064A4FFD0FFFE00002100240027002A0015
:105130002D003000330001010000040107010A01C5
:10514000020000000000000000000000000000005D
:10515000000000000000000000618000000000006E
:105160000000000000000000007DF00000000000D2
:105170000000000000000000007FFC0000000000B4
:105180000000000000000000007FFE0000000000A2
:105190000000000000000000007FFF800000000011
:1051A0000000000000000000007FFFC000000000C1
:1051B0000000000000000000007FFFC000000000B1
:1051C0000000000000000000007FFFE00000000081
:1051D0000000000000000000007FFFE00000000071
:1051E0000000000000000000007FFFE00000000061
:1051F0000000000000000000007FFFE00000000051
:105200000000000000000000007FFFE00000000040
:105210000000000000000000007FFFE00000000030
:105220000000000000000000007FFFE00000000020
:105230000000000000000000007FFFC00000000030
:105240000000000000000000007FFFC00000000020
:105250000000000000000000007FFF800000000050
:105260000000000000000000007FFE0000000000C1
:105270000000000000000000007FFC0000000000B3
:105280000000000000000000007DF00000000000B1
:10529000000000000000000FFF9CE0000000000084
:1052A00000000000000003FFFF9CE0000000000081
:1052B0000000000000000FFFFF9CE600000000005F
:1052C0000000000000001FFFFF9CE700000000003E
:1052D0000000000000007FFFFF9CE70000000000CE
:1052E000000000000000FFFFFF9CE700000000003E
:1052F000000000000001FFFFFF9CE720000000000D
:10530000000000000003F803FF9CE73000000000ED
:10531000000000000003F000FF9CE73000000000E8
:1053200000000000000F80007F9CE73C00000000B0
:1053300000000000000F00001F9CE73C0000000080
:1053400000000000000F00000F9CE73E000000007E
:1053500000000000000E00000F9CE73E000000006F
:1053600000000000001E00000F9CE73E000000004F
:1053700000000000001E7000079CE73E00000000D7
:1053800000000000001EF800079CE73FFC00000042
:1053900000000000001EF800079CE73FFC00000032
:1053A00000000000001E7000079CE73E00000000A7
:1053B00000000000001E00000F9CE73E00000000FF
:1053C00000000000000E00000F9CE73E00000000FF
:1053D00000000000000F00000F9CE73E00000000EE
:1053E00000000000000F80001F9CE73C0000000050
:1053F00000000000000FE0007F9CE73C0000000080
:10540000000000000003F000FF9CE73000000000F7
:10541000000000000001FC03FF9CE73000000000DA
:10542000000000000001FFFFFF9CE72000000000DB
:10543000000000000000FFFFFF9CE70000000000EC
:105440000000000000007FFFFF9CE700000000005C
:105450000000000000001FFFFF9CE70000000000AC
:105460000000000000000FFFFF9CE60000000000AD
:1054700000000000000000FFFF9CE00000000000B2
:10548000000000000000000000000000000000001C
:10549000000000000000000000000000000000000C
:1054A00000000000000000000000000000000000FC
:1054B00000000000000000000000000000000000EC
:1054C00000000000000000000000000000000000DC
:1054D00000000003CFBE8BEF2273CF88FA8BE00071
:1054E0000000000228208A08948A2814228A0000DA
:1054F0000000000228208A0888822822228A0000D0
:1055000000000003CF3C8BCF0883CF22228B80008A
:105510000000000228208A0A0882883E228A0000B1
:105520000000000228205209088A48222252000066
:1055300000000003CFBE23E888722FA22223E000E0
:105540000001FFFFFFFFFFFFFFFFFFFFFFFFFF0F58
:10555000FFFFFFFFFFFFFFFFFFFFFFFFFF1E00003A
:10556000000000000000000007FFFF3800000000FE
:1055700000000000000003FFFF70000000000000BA
:105580000000000001FFFF600000000000000000BC
:10559000000000FFFF6000000000000000000000AD
:1055A000007FFFC000000000000000007800003F06
:1055B000FFC00FC0FC00000000007818001FFFC0F3
:1055C0003FE1FF0000000000783C000FFFC07FF3C8
:1055D000FF8000000000783C0007FFC0FFFFFFC015
:1055E00000000000783C0003FFC1F87F87E0000066
:1055F000000078000001FFC1F03F03E00000000060
:1056000078000000FFC1E01E01E01F0003E0783CCD
:1056100003F07FC1E01E01E07FC00FF8783C07FC7B
:105620003FC1E01E01E1FFE01FFC783C0FFE1FC1FF
:10563000E01E01E3FFF03FFE783C1FFE0FC1E01EBD
:1056400001E3F3F83F3E783C3F3F07C1E01E01E72E
:10565000E0FC7C1F783C3E1F07C1E01E01E7C07CD8
:105660007C0F783C3C0F03C1E01E01E7807C780F83
:10567000783C3C0F03C1E01E01E7803C7800783C99
:105680003C0F03C1E01E01E7803C7800783C3C0FF2
:1056900003C1E01E01E7803C7800783C3C0F03C169
:1056A000E01E01E7C03C7800783C3C0F03C1E01EDF
:1056B00001E3E03C78007C3C3C0F03C1E01E01E3C9
:1056C000FF3FF8007FBC3C0F03C1E01E01E1FF3F3C
:1056D000F8003FBFFC0F03C1E01E01E0FF3FF800F0
:1056E0001FBFFC0F03C1E01E01E07F3FF8000FBFAA
:1056F000FC0F03600000000000000000000000003C
:1057000007600000000000000000000000000670BC
:105710000000000000000000000000000E38000043
:10572000000000000000000000001C1E000000003F
:105730000000000000000000780FFFFFFFFFFFFFE8
:10574000FFFFFFFFFFFFF001FFFFFFFFFFFFFFFF76
:10575000FFFFFFFF802020506C616E6E6572427506
:105760006666657242797465733A200020467265F8
:1057700065204D656D6F72793A2000312E312E38DB
:105780002042564320320A004D61726C696E00203F
:10579000536F6674776172652052657365740A0091
:1057A000205761746368646F672052657365740A7B
:1057B000002042726F776E206F757420526573659A
:1057C000740A002045787465726E616C20526573AE
:1057D00065740A00506F77657255700A00737461C2
:1057E00072740A00456E6473746F707320256320B1
:1057F0002563202563202563000000200023002668
:105800000029002C002F00320000010000030106D7
:1058100001090100002200250028002B002E003184
:1058200000340002010000050108010B0105050517
:1058300005070508080808020202020A0A08080407
:105840000404040101010101010101030303030335
:10585000030303040707070C0C0C0C0C0C0C0C02C4
:1058600002020206060606060606060B0B0B0B0BCB
:105870000B0B0B01021020200808102040102040C4
:105880008002010201080402010102040810204004
:105890008080402010080402018004020180402022
:1058A000100804020108040201010204081020404B
:1058B00080010204081020408000000A0B02090C3D
:1058C0000D0E0807030401000000000000000000A6
:1058D00000000000000000000000000000000000C8
:1058E0000000000000121110000000000000000085
:1058F0000000000000000000000000000000005058
:10590000726F62696E67206661696C65640A005037
:10591000726F62696E67206661696C656400205A07
:105920003A200020593A200042656420583A20006D
:105930002066697273740A005A0059005800486F53
:105940006D6520000000A0420000A0420000004160
:105950000000000057726974696E6720746F2066DA
:10596000696C653A20006F70656E206661696C65D0
:10597000642C2046696C653A20006F70656E206665
:1059800061696C65642C2046696C653A2000466943
:105990006C652073656C65637465640A00205369E7
:1059A0007A653A200046696C65206F70656E6564A3
:1059B0003A20006F70656E206661696C65642C200A
:1059C00046696C653A20002066696C653A2000647F
:1059D0006F696E67006672657368004E6F772000AE
:1059E000454E4420535542524F5554494E450A00A6
:1059F0002220706F73002220706172656E743A22EB
:105A000000535542524F5554494E452043414C4C4A
:105A1000207461726765743A22004B494C4C4544CE
:105A20002E2000747279696E6720746F2063616C38
:105A30006C207375622D67636F64652066696C65A1
:105A400073207769746820746F6F206D616E7920A0
:105A50006C6576656C732E204D4158206C657665BB
:105A60006C2069733A0043616E6E6F74206F7065CD
:105A70006E20737562646972200053442063617202
:105A800064206F6B0A006F70656E526F6F742066D2
:105A900061696C65640A00766F6C756D652E696E60
:105AA0006974206661696C65640A004572726F7280
:105AB0003A00534420696E6974206661696C0A007B
:105AC0006175746F25692E67004D3234004D323395
:105AD00020257300656E7175657565696E67202296
